{
    "contractName": "UnilevelSystem",
    "abi": [
        {
            "inputs": [],
            "stateMutability": "nonpayable",
            "type": "constructor"
        },
        {
            "anonymous": false,
            "inputs": [
                {
                    "indexed": true,
                    "internalType": "address",
                    "name": "admin",
                    "type": "address"
                }
            ],
            "name": "AdminRemoved",
            "type": "event"
        },
        {
            "anonymous": false,
            "inputs": [
                {
                    "indexed": true,
                    "internalType": "address",
                    "name": "admin",
                    "type": "address"
                }
            ],
            "name": "NewAdmin",
            "type": "event"
        },
        {
            "anonymous": false,
            "inputs": [
                {
                    "indexed": true,
                    "internalType": "address",
                    "name": "previousOwner",
                    "type": "address"
                },
                {
                    "indexed": true,
                    "internalType": "address",
                    "name": "newOwner",
                    "type": "address"
                }
            ],
            "name": "OwnershipTransferred",
            "type": "event"
        },
        {
            "stateMutability": "payable",
            "type": "fallback"
        },
        {
            "inputs": [
                {
                    "internalType": "address",
                    "name": "_tokenTRC20",
                    "type": "address"
                }
            ],
            "name": "ChangeTokenPrincipal",
            "outputs": [
                {
                    "internalType": "bool",
                    "name": "",
                    "type": "bool"
                }
            ],
            "stateMutability": "nonpayable",
            "type": "function"
        },
        {
            "inputs": [],
            "name": "MIN_RETIRO",
            "outputs": [
                {
                    "internalType": "uint256",
                    "name": "",
                    "type": "uint256"
                }
            ],
            "stateMutability": "view",
            "type": "function"
        },
        {
            "inputs": [],
            "name": "PRECIO_BLOCK",
            "outputs": [
                {
                    "internalType": "uint256",
                    "name": "",
                    "type": "uint256"
                }
            ],
            "stateMutability": "view",
            "type": "function"
        },
        {
            "inputs": [],
            "name": "activerFee",
            "outputs": [
                {
                    "internalType": "uint256",
                    "name": "",
                    "type": "uint256"
                }
            ],
            "stateMutability": "view",
            "type": "function"
        },
        {
            "inputs": [
                {
                    "internalType": "bool[]",
                    "name": "old",
                    "type": "bool[]"
                }
            ],
            "name": "actualizarArrayBool",
            "outputs": [
                {
                    "internalType": "bool[]",
                    "name": "",
                    "type": "bool[]"
                }
            ],
            "stateMutability": "pure",
            "type": "function"
        },
        {
            "inputs": [
                {
                    "internalType": "uint256[]",
                    "name": "old",
                    "type": "uint256[]"
                }
            ],
            "name": "actualizarArrayUint256",
            "outputs": [
                {
                    "internalType": "uint256[]",
                    "name": "",
                    "type": "uint256[]"
                }
            ],
            "stateMutability": "pure",
            "type": "function"
        },
        {
            "inputs": [
                {
                    "internalType": "address[]",
                    "name": "oldNetwork",
                    "type": "address[]"
                }
            ],
            "name": "actualizarNetwork",
            "outputs": [
                {
                    "internalType": "address[]",
                    "name": "",
                    "type": "address[]"
                }
            ],
            "stateMutability": "pure",
            "type": "function"
        },
        {
            "inputs": [
                {
                    "internalType": "address",
                    "name": "",
                    "type": "address"
                }
            ],
            "name": "addressToId",
            "outputs": [
                {
                    "internalType": "uint256",
                    "name": "",
                    "type": "uint256"
                }
            ],
            "stateMutability": "view",
            "type": "function"
        },
        {
            "inputs": [
                {
                    "internalType": "address",
                    "name": "",
                    "type": "address"
                }
            ],
            "name": "admin",
            "outputs": [
                {
                    "internalType": "bool",
                    "name": "",
                    "type": "bool"
                }
            ],
            "stateMutability": "view",
            "type": "function"
        },
        {
            "inputs": [
                {
                    "internalType": "address[]",
                    "name": "network",
                    "type": "address[]"
                }
            ],
            "name": "allnetwork",
            "outputs": [
                {
                    "internalType": "address[]",
                    "name": "",
                    "type": "address[]"
                }
            ],
            "stateMutability": "view",
            "type": "function"
        },
        {
            "inputs": [
                {
                    "internalType": "address",
                    "name": "_user",
                    "type": "address"
                },
                {
                    "internalType": "uint256",
                    "name": "_bloks",
                    "type": "uint256"
                },
                {
                    "internalType": "bool",
                    "name": "_infinity",
                    "type": "bool"
                }
            ],
            "name": "asignarBloke",
            "outputs": [
                {
                    "internalType": "bool",
                    "name": "",
                    "type": "bool"
                }
            ],
            "stateMutability": "nonpayable",
            "type": "function"
        },
        {
            "inputs": [
                {
                    "internalType": "address",
                    "name": "_user",
                    "type": "address"
                },
                {
                    "internalType": "uint256",
                    "name": "_bloks",
                    "type": "uint256"
                }
            ],
            "name": "asignarBlokePago",
            "outputs": [
                {
                    "internalType": "bool",
                    "name": "",
                    "type": "bool"
                }
            ],
            "stateMutability": "nonpayable",
            "type": "function"
        },
        {
            "inputs": [
                {
                    "internalType": "address",
                    "name": "_user",
                    "type": "address"
                },
                {
                    "internalType": "address",
                    "name": "_sponsor",
                    "type": "address"
                }
            ],
            "name": "asignarMembership",
            "outputs": [
                {
                    "internalType": "bool",
                    "name": "",
                    "type": "bool"
                }
            ],
            "stateMutability": "nonpayable",
            "type": "function"
        },
        {
            "inputs": [
                {
                    "internalType": "uint256",
                    "name": "",
                    "type": "uint256"
                }
            ],
            "name": "baserange",
            "outputs": [
                {
                    "internalType": "bool",
                    "name": "",
                    "type": "bool"
                }
            ],
            "stateMutability": "view",
            "type": "function"
        },
        {
            "inputs": [],
            "name": "baserangelength",
            "outputs": [
                {
                    "internalType": "uint256",
                    "name": "",
                    "type": "uint256"
                }
            ],
            "stateMutability": "view",
            "type": "function"
        },
        {
            "inputs": [
                {
                    "internalType": "uint256",
                    "name": "_bloks",
                    "type": "uint256"
                }
            ],
            "name": "buyBlocks",
            "outputs": [],
            "stateMutability": "nonpayable",
            "type": "function"
        },
        {
            "inputs": [
                {
                    "internalType": "address",
                    "name": "yo",
                    "type": "address"
                },
                {
                    "internalType": "uint256",
                    "name": "_largo",
                    "type": "uint256"
                }
            ],
            "name": "column",
            "outputs": [
                {
                    "internalType": "address[]",
                    "name": "",
                    "type": "address[]"
                }
            ],
            "stateMutability": "view",
            "type": "function"
        },
        {
            "inputs": [
                {
                    "internalType": "address",
                    "name": "yo",
                    "type": "address"
                }
            ],
            "name": "columnHijos",
            "outputs": [
                {
                    "internalType": "address[]",
                    "name": "",
                    "type": "address[]"
                }
            ],
            "stateMutability": "view",
            "type": "function"
        },
        {
            "inputs": [
                {
                    "internalType": "bool",
                    "name": "_true_false",
                    "type": "bool"
                }
            ],
            "name": "controlWitdrawl",
            "outputs": [
                {
                    "internalType": "bool",
                    "name": "",
                    "type": "bool"
                }
            ],
            "stateMutability": "nonpayable",
            "type": "function"
        },
        {
            "inputs": [
                {
                    "internalType": "address",
                    "name": "_user",
                    "type": "address"
                },
                {
                    "internalType": "bool",
                    "name": "_infinity",
                    "type": "bool"
                }
            ],
            "name": "depositos",
            "outputs": [
                {
                    "internalType": "uint256[]",
                    "name": "",
                    "type": "uint256[]"
                },
                {
                    "internalType": "uint256[]",
                    "name": "",
                    "type": "uint256[]"
                },
                {
                    "internalType": "bool[]",
                    "name": "",
                    "type": "bool[]"
                },
                {
                    "internalType": "uint256",
                    "name": "",
                    "type": "uint256"
                }
            ],
            "stateMutability": "view",
            "type": "function"
        },
        {
            "inputs": [],
            "name": "descuento",
            "outputs": [
                {
                    "internalType": "uint256",
                    "name": "",
                    "type": "uint256"
                }
            ],
            "stateMutability": "view",
            "type": "function"
        },
        {
            "inputs": [],
            "name": "dias",
            "outputs": [
                {
                    "internalType": "uint256",
                    "name": "",
                    "type": "uint256"
                }
            ],
            "stateMutability": "view",
            "type": "function"
        },
        {
            "inputs": [],
            "name": "duracionMembership",
            "outputs": [
                {
                    "internalType": "uint256",
                    "name": "",
                    "type": "uint256"
                }
            ],
            "stateMutability": "view",
            "type": "function"
        },
        {
            "inputs": [
                {
                    "internalType": "uint256",
                    "name": "",
                    "type": "uint256"
                }
            ],
            "name": "gananciasRango",
            "outputs": [
                {
                    "internalType": "uint256",
                    "name": "",
                    "type": "uint256"
                }
            ],
            "stateMutability": "view",
            "type": "function"
        },
        {
            "inputs": [
                {
                    "internalType": "address",
                    "name": "",
                    "type": "address"
                },
                {
                    "internalType": "uint256",
                    "name": "",
                    "type": "uint256"
                }
            ],
            "name": "hijo",
            "outputs": [
                {
                    "internalType": "address",
                    "name": "",
                    "type": "address"
                }
            ],
            "stateMutability": "view",
            "type": "function"
        },
        {
            "inputs": [
                {
                    "internalType": "uint256",
                    "name": "",
                    "type": "uint256"
                }
            ],
            "name": "idToAddress",
            "outputs": [
                {
                    "internalType": "address",
                    "name": "",
                    "type": "address"
                }
            ],
            "stateMutability": "view",
            "type": "function"
        },
        {
            "inputs": [
                {
                    "internalType": "uint256",
                    "name": "",
                    "type": "uint256"
                }
            ],
            "name": "infinity",
            "outputs": [
                {
                    "internalType": "uint256",
                    "name": "",
                    "type": "uint256"
                }
            ],
            "stateMutability": "view",
            "type": "function"
        },
        {
            "inputs": [],
            "name": "inversiones",
            "outputs": [
                {
                    "internalType": "uint256",
                    "name": "",
                    "type": "uint256"
                }
            ],
            "stateMutability": "view",
            "type": "function"
        },
        {
            "inputs": [
                {
                    "internalType": "address",
                    "name": "",
                    "type": "address"
                }
            ],
            "name": "investors",
            "outputs": [
                {
                    "internalType": "bool",
                    "name": "registered",
                    "type": "bool"
                },
                {
                    "internalType": "uint256",
                    "name": "membership",
                    "type": "uint256"
                },
                {
                    "internalType": "uint256",
                    "name": "balanceRef",
                    "type": "uint256"
                },
                {
                    "internalType": "uint256",
                    "name": "totalRef",
                    "type": "uint256"
                },
                {
                    "internalType": "uint256",
                    "name": "invested",
                    "type": "uint256"
                },
                {
                    "internalType": "uint256",
                    "name": "paidAt",
                    "type": "uint256"
                },
                {
                    "internalType": "uint256",
                    "name": "paidAt2",
                    "type": "uint256"
                },
                {
                    "internalType": "uint256",
                    "name": "withdrawn",
                    "type": "uint256"
                },
                {
                    "internalType": "uint256",
                    "name": "directos",
                    "type": "uint256"
                },
                {
                    "internalType": "string",
                    "name": "data",
                    "type": "string"
                },
                {
                    "internalType": "uint256",
                    "name": "blokesDirectos",
                    "type": "uint256"
                }
            ],
            "stateMutability": "view",
            "type": "function"
        },
        {
            "inputs": [],
            "name": "lastUserId",
            "outputs": [
                {
                    "internalType": "uint256",
                    "name": "",
                    "type": "uint256"
                }
            ],
            "stateMutability": "view",
            "type": "function"
        },
        {
            "inputs": [
                {
                    "internalType": "address payable",
                    "name": "_newadmin",
                    "type": "address"
                }
            ],
            "name": "makeNewAdmin",
            "outputs": [],
            "stateMutability": "nonpayable",
            "type": "function"
        },
        {
            "inputs": [
                {
                    "internalType": "address payable",
                    "name": "_oldadmin",
                    "type": "address"
                }
            ],
            "name": "makeRemoveAdmin",
            "outputs": [],
            "stateMutability": "nonpayable",
            "type": "function"
        },
        {
            "inputs": [],
            "name": "newRecompensa",
            "outputs": [],
            "stateMutability": "nonpayable",
            "type": "function"
        },
        {
            "inputs": [],
            "name": "onOffWitdrawl",
            "outputs": [
                {
                    "internalType": "bool",
                    "name": "",
                    "type": "bool"
                }
            ],
            "stateMutability": "view",
            "type": "function"
        },
        {
            "inputs": [],
            "name": "owner",
            "outputs": [
                {
                    "internalType": "address payable",
                    "name": "",
                    "type": "address"
                }
            ],
            "stateMutability": "view",
            "type": "function"
        },
        {
            "inputs": [
                {
                    "internalType": "address",
                    "name": "",
                    "type": "address"
                }
            ],
            "name": "padre",
            "outputs": [
                {
                    "internalType": "address",
                    "name": "",
                    "type": "address"
                }
            ],
            "stateMutability": "view",
            "type": "function"
        },
        {
            "inputs": [],
            "name": "personas",
            "outputs": [
                {
                    "internalType": "uint256",
                    "name": "",
                    "type": "uint256"
                }
            ],
            "stateMutability": "view",
            "type": "function"
        },
        {
            "inputs": [],
            "name": "porcent",
            "outputs": [
                {
                    "internalType": "uint256",
                    "name": "",
                    "type": "uint256"
                }
            ],
            "stateMutability": "view",
            "type": "function"
        },
        {
            "inputs": [
                {
                    "internalType": "uint256",
                    "name": "",
                    "type": "uint256"
                }
            ],
            "name": "porcientos",
            "outputs": [
                {
                    "internalType": "uint256",
                    "name": "",
                    "type": "uint256"
                }
            ],
            "stateMutability": "view",
            "type": "function"
        },
        {
            "inputs": [],
            "name": "precioRegistro",
            "outputs": [
                {
                    "internalType": "uint256",
                    "name": "",
                    "type": "uint256"
                }
            ],
            "stateMutability": "view",
            "type": "function"
        },
        {
            "inputs": [
                {
                    "internalType": "uint256",
                    "name": "",
                    "type": "uint256"
                }
            ],
            "name": "primervez",
            "outputs": [
                {
                    "internalType": "uint256",
                    "name": "",
                    "type": "uint256"
                }
            ],
            "stateMutability": "view",
            "type": "function"
        },
        {
            "inputs": [
                {
                    "internalType": "uint256",
                    "name": "",
                    "type": "uint256"
                }
            ],
            "name": "puntosRango",
            "outputs": [
                {
                    "internalType": "uint256",
                    "name": "",
                    "type": "uint256"
                }
            ],
            "stateMutability": "view",
            "type": "function"
        },
        {
            "inputs": [
                {
                    "internalType": "address",
                    "name": "",
                    "type": "address"
                },
                {
                    "internalType": "uint256",
                    "name": "",
                    "type": "uint256"
                }
            ],
            "name": "rangoReclamado",
            "outputs": [
                {
                    "internalType": "bool",
                    "name": "",
                    "type": "bool"
                }
            ],
            "stateMutability": "view",
            "type": "function"
        },
        {
            "inputs": [],
            "name": "redimBNB",
            "outputs": [
                {
                    "internalType": "uint256",
                    "name": "",
                    "type": "uint256"
                }
            ],
            "stateMutability": "nonpayable",
            "type": "function"
        },
        {
            "inputs": [
                {
                    "internalType": "uint256",
                    "name": "_value",
                    "type": "uint256"
                }
            ],
            "name": "redimTokenPrincipal02",
            "outputs": [
                {
                    "internalType": "uint256",
                    "name": "",
                    "type": "uint256"
                }
            ],
            "stateMutability": "nonpayable",
            "type": "function"
        },
        {
            "inputs": [
                {
                    "internalType": "address",
                    "name": "_sponsor",
                    "type": "address"
                },
                {
                    "internalType": "string",
                    "name": "_datos",
                    "type": "string"
                }
            ],
            "name": "registro",
            "outputs": [],
            "stateMutability": "nonpayable",
            "type": "function"
        },
        {
            "inputs": [
                {
                    "internalType": "uint256",
                    "name": "_descuento",
                    "type": "uint256"
                }
            ],
            "name": "setDescuento",
            "outputs": [
                {
                    "internalType": "bool",
                    "name": "",
                    "type": "bool"
                }
            ],
            "stateMutability": "nonpayable",
            "type": "function"
        },
        {
            "inputs": [
                {
                    "internalType": "uint256",
                    "name": "_numerodeinverionessinganancia",
                    "type": "uint256"
                }
            ],
            "name": "setInversiones",
            "outputs": [
                {
                    "internalType": "uint256",
                    "name": "",
                    "type": "uint256"
                }
            ],
            "stateMutability": "nonpayable",
            "type": "function"
        },
        {
            "inputs": [
                {
                    "internalType": "uint256",
                    "name": "_min",
                    "type": "uint256"
                }
            ],
            "name": "setMIN_RETIRO",
            "outputs": [
                {
                    "internalType": "uint256",
                    "name": "",
                    "type": "uint256"
                }
            ],
            "stateMutability": "nonpayable",
            "type": "function"
        },
        {
            "inputs": [
                {
                    "internalType": "uint256",
                    "name": "_nivel",
                    "type": "uint256"
                },
                {
                    "internalType": "uint256",
                    "name": "_value",
                    "type": "uint256"
                }
            ],
            "name": "setPorcientos",
            "outputs": [
                {
                    "internalType": "uint256[]",
                    "name": "",
                    "type": "uint256[]"
                }
            ],
            "stateMutability": "nonpayable",
            "type": "function"
        },
        {
            "inputs": [
                {
                    "internalType": "uint256",
                    "name": "_nivel",
                    "type": "uint256"
                },
                {
                    "internalType": "uint256",
                    "name": "_value",
                    "type": "uint256"
                }
            ],
            "name": "setPorcientosSalida",
            "outputs": [
                {
                    "internalType": "uint256[]",
                    "name": "",
                    "type": "uint256[]"
                }
            ],
            "stateMutability": "nonpayable",
            "type": "function"
        },
        {
            "inputs": [
                {
                    "internalType": "uint256",
                    "name": "_precio",
                    "type": "uint256"
                }
            ],
            "name": "setPrecioRegistro",
            "outputs": [
                {
                    "internalType": "bool",
                    "name": "",
                    "type": "bool"
                }
            ],
            "stateMutability": "nonpayable",
            "type": "function"
        },
        {
            "inputs": [
                {
                    "internalType": "uint256",
                    "name": "_value",
                    "type": "uint256"
                }
            ],
            "name": "setPriceBlock",
            "outputs": [
                {
                    "internalType": "bool",
                    "name": "",
                    "type": "bool"
                }
            ],
            "stateMutability": "nonpayable",
            "type": "function"
        },
        {
            "inputs": [
                {
                    "internalType": "uint256",
                    "name": "_nivel",
                    "type": "uint256"
                },
                {
                    "internalType": "uint256",
                    "name": "_value",
                    "type": "uint256"
                }
            ],
            "name": "setPrimeravezPorcientos",
            "outputs": [
                {
                    "internalType": "uint256[]",
                    "name": "",
                    "type": "uint256[]"
                }
            ],
            "stateMutability": "nonpayable",
            "type": "function"
        },
        {
            "inputs": [
                {
                    "internalType": "bool[]",
                    "name": "_baserange",
                    "type": "bool[]"
                },
                {
                    "internalType": "uint256[]",
                    "name": "_gananciasRango",
                    "type": "uint256[]"
                },
                {
                    "internalType": "uint256[]",
                    "name": "_puntosRango",
                    "type": "uint256[]"
                }
            ],
            "name": "setRangos",
            "outputs": [
                {
                    "internalType": "bool",
                    "name": "",
                    "type": "bool"
                }
            ],
            "stateMutability": "nonpayable",
            "type": "function"
        },
        {
            "inputs": [
                {
                    "internalType": "uint256",
                    "name": "_porcentaje",
                    "type": "uint256"
                }
            ],
            "name": "setRetorno",
            "outputs": [
                {
                    "internalType": "uint256",
                    "name": "",
                    "type": "uint256"
                }
            ],
            "stateMutability": "nonpayable",
            "type": "function"
        },
        {
            "inputs": [
                {
                    "internalType": "uint256",
                    "name": "_dias",
                    "type": "uint256"
                }
            ],
            "name": "setTiempo",
            "outputs": [
                {
                    "internalType": "uint256",
                    "name": "",
                    "type": "uint256"
                }
            ],
            "stateMutability": "nonpayable",
            "type": "function"
        },
        {
            "inputs": [
                {
                    "internalType": "uint256",
                    "name": "_unidades",
                    "type": "uint256"
                }
            ],
            "name": "setTiempoUnidades",
            "outputs": [
                {
                    "internalType": "uint256",
                    "name": "",
                    "type": "uint256"
                }
            ],
            "stateMutability": "nonpayable",
            "type": "function"
        },
        {
            "inputs": [
                {
                    "internalType": "address[]",
                    "name": "_wallet",
                    "type": "address[]"
                },
                {
                    "internalType": "uint256[]",
                    "name": "_fee",
                    "type": "uint256[]"
                },
                {
                    "internalType": "uint256",
                    "name": "_activerFee",
                    "type": "uint256"
                }
            ],
            "name": "setWalletFee",
            "outputs": [
                {
                    "internalType": "bool",
                    "name": "",
                    "type": "bool"
                }
            ],
            "stateMutability": "nonpayable",
            "type": "function"
        },
        {
            "inputs": [
                {
                    "internalType": "address[]",
                    "name": "_wallets",
                    "type": "address[]"
                },
                {
                    "internalType": "uint256[]",
                    "name": "_valores",
                    "type": "uint256[]"
                }
            ],
            "name": "setWalletstransfers",
            "outputs": [
                {
                    "internalType": "bool",
                    "name": "",
                    "type": "bool"
                }
            ],
            "stateMutability": "nonpayable",
            "type": "function"
        },
        {
            "inputs": [],
            "name": "tiempo",
            "outputs": [
                {
                    "internalType": "uint256",
                    "name": "",
                    "type": "uint256"
                }
            ],
            "stateMutability": "view",
            "type": "function"
        },
        {
            "inputs": [],
            "name": "tokenPricipal",
            "outputs": [
                {
                    "internalType": "address",
                    "name": "",
                    "type": "address"
                }
            ],
            "stateMutability": "view",
            "type": "function"
        },
        {
            "inputs": [],
            "name": "totalInvested",
            "outputs": [
                {
                    "internalType": "uint256",
                    "name": "",
                    "type": "uint256"
                }
            ],
            "stateMutability": "view",
            "type": "function"
        },
        {
            "inputs": [],
            "name": "totalInvestors",
            "outputs": [
                {
                    "internalType": "uint256",
                    "name": "",
                    "type": "uint256"
                }
            ],
            "stateMutability": "view",
            "type": "function"
        },
        {
            "inputs": [],
            "name": "totalRefRewards",
            "outputs": [
                {
                    "internalType": "uint256",
                    "name": "",
                    "type": "uint256"
                }
            ],
            "stateMutability": "view",
            "type": "function"
        },
        {
            "inputs": [],
            "name": "totalRefWitdrawl",
            "outputs": [
                {
                    "internalType": "uint256",
                    "name": "",
                    "type": "uint256"
                }
            ],
            "stateMutability": "view",
            "type": "function"
        },
        {
            "inputs": [],
            "name": "totalRoiWitdrawl",
            "outputs": [
                {
                    "internalType": "uint256",
                    "name": "",
                    "type": "uint256"
                }
            ],
            "stateMutability": "view",
            "type": "function"
        },
        {
            "inputs": [],
            "name": "totalTeamWitdrawl",
            "outputs": [
                {
                    "internalType": "uint256",
                    "name": "",
                    "type": "uint256"
                }
            ],
            "stateMutability": "view",
            "type": "function"
        },
        {
            "inputs": [
                {
                    "internalType": "address payable",
                    "name": "newOwner",
                    "type": "address"
                }
            ],
            "name": "transferOwnership",
            "outputs": [],
            "stateMutability": "nonpayable",
            "type": "function"
        },
        {
            "inputs": [],
            "name": "unidades",
            "outputs": [
                {
                    "internalType": "uint256",
                    "name": "",
                    "type": "uint256"
                }
            ],
            "stateMutability": "view",
            "type": "function"
        },
        {
            "inputs": [
                {
                    "internalType": "string",
                    "name": "_datos",
                    "type": "string"
                }
            ],
            "name": "updateData",
            "outputs": [],
            "stateMutability": "nonpayable",
            "type": "function"
        },
        {
            "inputs": [
                {
                    "internalType": "uint256",
                    "name": "",
                    "type": "uint256"
                }
            ],
            "name": "valor",
            "outputs": [
                {
                    "internalType": "uint256",
                    "name": "",
                    "type": "uint256"
                }
            ],
            "stateMutability": "view",
            "type": "function"
        },
        {
            "inputs": [
                {
                    "internalType": "uint256",
                    "name": "",
                    "type": "uint256"
                }
            ],
            "name": "valorFee",
            "outputs": [
                {
                    "internalType": "uint256",
                    "name": "",
                    "type": "uint256"
                }
            ],
            "stateMutability": "view",
            "type": "function"
        },
        {
            "inputs": [
                {
                    "internalType": "uint256",
                    "name": "",
                    "type": "uint256"
                }
            ],
            "name": "wallet",
            "outputs": [
                {
                    "internalType": "address",
                    "name": "",
                    "type": "address"
                }
            ],
            "stateMutability": "view",
            "type": "function"
        },
        {
            "inputs": [
                {
                    "internalType": "uint256",
                    "name": "",
                    "type": "uint256"
                }
            ],
            "name": "walletFee",
            "outputs": [
                {
                    "internalType": "address",
                    "name": "",
                    "type": "address"
                }
            ],
            "stateMutability": "view",
            "type": "function"
        },
        {
            "inputs": [],
            "name": "withdraw",
            "outputs": [],
            "stateMutability": "nonpayable",
            "type": "function"
        },
        {
            "inputs": [],
            "name": "withdraw2",
            "outputs": [],
            "stateMutability": "nonpayable",
            "type": "function"
        },
        {
            "inputs": [],
            "name": "withdrawTeam",
            "outputs": [],
            "stateMutability": "nonpayable",
            "type": "function"
        },
        {
            "inputs": [
                {
                    "internalType": "address",
                    "name": "any_user",
                    "type": "address"
                },
                {
                    "internalType": "bool",
                    "name": "_infinity",
                    "type": "bool"
                }
            ],
            "name": "withdrawable",
            "outputs": [
                {
                    "internalType": "uint256",
                    "name": "",
                    "type": "uint256"
                }
            ],
            "stateMutability": "view",
            "type": "function"
        },
        {
            "inputs": [
                {
                    "internalType": "address",
                    "name": "any_user",
                    "type": "address"
                }
            ],
            "name": "withdrawableRange",
            "outputs": [
                {
                    "internalType": "uint256",
                    "name": "amount",
                    "type": "uint256"
                }
            ],
            "stateMutability": "view",
            "type": "function"
        },
        {
            "stateMutability": "payable",
            "type": "receive"
        }
    ],
    "bytecode": "600280547355d398326f99059ff775485246999027b31979556001600160a01b031991821681179092556003805482168317905567d02ab486cedc00006004556802b5e3af16b18800006005908155600680549092169092179055600160075561012060405260326080908152601e60a052601460c052600a60e081905261010052620000909160089190620004a7565b506040805160a081018252600f81526009602082018190526006928201929092526003606082018190526080820152620000cd91906005620004a7565b506040805160a08101825260058082526003602083015260029282019290925260016060820181905260808201526200010a91600a9190620004a7565b506040805161010081018252600080825260208201819052918101829052606081018290526080810182905260a0810182905260c0810182905260e08101919091526200015c90600b906008620004fc565b5060408051610100810182526828a857425466f800008152685150ae84a8cdf00000602082015268cb49b44ba602d80000918101919091526901969368974c05b00000606082015269032d26d12e980b6000006080820152690a968163f0a57b40000060a0820152691fc3842bd1f071c0000060c08201526934f086f3b33b6840000060e0820152620001f490600c906008620005a3565b5060408051610100810182526103e881526107d06020820152611388918101919091526127106060820152614e206080820152620186a060a0820152620493e060c08201526207a12060e08201526200025290600d906008620005ec565b50600e805460ff1916600190811790915561016d600f556103846010556201518060115560f0601255606460135560026014819055601582905560219190915560408051808201909152734490566647735e8cbce0ce96efc8fb91c164859b815273d0f2fcdf7d399205e9709c6d0fbee434335e42dd6020820152620002dc916022919062000631565b506040805180820190915260058152605f602082015262000302906023906002620004a7565b506801a055690d9db800006024556002602555604080516060810182527317a7e5b2d9b5d191f7307e990e630c9dc18e1396815273afe9d039ec7d4409b1b8c2f1556f20843079b7286020820152738dd59f5670e9809c8a800a49d1ff1cea471c53da918101919091526200037c90602690600362000631565b50604080516060810182526046815260086020820152600591810191909152620003ab906027906003620004a7565b50348015620003b957600080fd5b50600080546001600160a01b0319163390811782558152600160208181526040808420805460ff19908116851790915584546001600160a01b03168552601b9092529092208054909216178155601154600f5462000418919062000707565b6200042c90670de0b6b3a764000062000707565b62000438904262000729565b60018201553360009081526020805260409020600b80546200045c92919062000689565b50507f65ce8396b736f5da9d881cc6fbcb11ef9721292dc41ec8c40879fd9edea5744d80546001600160a01b031916339081179091556000908152601f602052604081205562000744565b828054828255906000526020600020908101928215620004ea579160200282015b82811115620004ea578251829060ff16905591602001919060010190620004c8565b50620004f8929150620006da565b5090565b82805482825590600052602060002090601f01602090048101928215620004ea5791602002820160005b838211156200056557835183826101000a81548160ff021916908315150217905550926020019260010160208160000104928301926001030262000526565b8015620005945782816101000a81549060ff021916905560010160208160000104928301926001030262000565565b5050620004f8929150620006da565b828054828255906000526020600020908101928215620004ea579160200282015b82811115620004ea57825182906001600160501b0316905591602001919060010190620005c4565b828054828255906000526020600020908101928215620004ea579160200282015b82811115620004ea578251829062ffffff169055916020019190600101906200060d565b828054828255906000526020600020908101928215620004ea579160200282015b82811115620004ea57825182546001600160a01b0319166001600160a01b0390911617825560209092019160019091019062000652565b82805482825590600052602060002090601f01602090048101928215620004ea57600052602060002091601f016020900482015b82811115620004ea578254825591600101919060010190620006bd565b5b80821115620004f85760008155600101620006db565b634e487b7160e01b600052601160045260246000fd5b6000816000190483118215151615620007245762000724620006f1565b500290565b600082198211156200073f576200073f620006f1565b500190565b6145a280620007546000396000f3fe6080604052600436106104475760003560e01c80637b0412ed11610232578063b3d9fa091161012d578063db3be1a2116100b0578063f5c9dbef11610077578063f5c9dbef14610d9b578063f90b3f5a14610db0578063fc5d861514610dd0578063fd14d59814610df0578063ff0b0cc514610e0557005b8063db3be1a214610d0c578063e7348e8c14610d2c578063ea98847b14610d46578063edf5eb1d14610d5b578063f2fde38b14610d7b57005b8063c17dbdf9116100f4578063c17dbdf914610c73578063c40d5dbc14610c93578063cb0e0d7d14610ca9578063cc759ba214610cd6578063cfda9ee614610cec57005b8063b3d9fa0914610bf2578063b85ea33514610c12578063bb51f32d14610c32578063bd9bee1914610c47578063bfe0e02014610c5d57005b80639b8ff503116101b5578063aaa749c51161017c578063aaa749c514610b46578063ab6db19914610b66578063b139042614610b7c578063b17b6e4414610b9c578063b35f0a8f14610bbc57005b80639b8ff50314610aaa578063a278133514610ac0578063a365528b14610ae0578063a77d211914610b10578063a8beb71714610b2657005b8063815374ca116101f9578063815374ca14610a0a57806389b2521c14610a2a5780638da5cb5b14610a4a5780638f9ef8c114610a6a57806398c07d0a14610a8a57005b80637b0412ed146109715780637db9e9c6146109875780637faee0471461099d5780637fcc1e36146109bd57806381032892146109ea57005b80634de1be621161034257806368446ead116102c557806370a0966b1161028c57806370a0966b146108db57806370d7e3d5146108fb5780637251b9ac14610911578063725fc270146109315780637367b0801461095157005b806368446ead1461083957806369ed1e0a1461085957806369f4a84b146108795780636c5292791461088e5780636f7bc9be146108a457005b80635d216c60116103095780635d216c601461078957806362550916146107a957806363a846f8146107c95780636589fa8a146107f957806367f74aab1461081957005b80634de1be62146106fe57806350188c081461071e57806350da983f146107335780635216aeec14610753578063548225221461076957005b806329e1a243116103ca578063348d448711610391578063348d4487146106875780633ccfd60b1461069d57806343bf0bd4146106b25780634728f718146106d25780634b9b8203146106e857005b806329e1a243146105b95780632a2d0c47146105d95780632acc8210146106275780632e8a03cf14610647578063339640b51461066757005b806321309f211161040e57806321309f211461052d57806324de19f21461054d5780632748d29b1461056357806328cca7191461058357806329b8caff146105a357005b80631053abb1146104505780631140e85b1461048557806315e8392b146104b35780631ce7f99b146104e05780631e403c351461050057005b3661044e57005b005b34801561045c57600080fd5b5061047061046b366004613c6a565b610e1b565b60405190151581526020015b60405180910390f35b34801561049157600080fd5b506104a56104a0366004613ca3565b610fe6565b60405190815260200161047c565b3480156104bf57600080fd5b506104d36104ce366004613cbc565b6110fe565b60405161047c9190613ce8565b3480156104ec57600080fd5b506104d36104fb366004613e12565b611193565b34801561050c57600080fd5b5061052061051b366004613e46565b611251565b60405161047c9190613ea3565b34801561053957600080fd5b506104a5610548366004613ca3565b6112ef565b34801561055957600080fd5b506104a560055481565b34801561056f57600080fd5b506104a561057e366004613ca3565b611310565b34801561058f57600080fd5b506104a561059e366004613ca3565b61133a565b3480156105af57600080fd5b506104a560155481565b3480156105c557600080fd5b506104a56105d4366004613ca3565b61134a565b3480156105e557600080fd5b5061060f6105f4366004613ca3565b601e602052600090815260409020546001600160a01b031681565b6040516001600160a01b03909116815260200161047c565b34801561063357600080fd5b50610470610642366004613cbc565b61135a565b34801561065357600080fd5b50610470610662366004613ca3565b61139c565b34801561067357600080fd5b5061060f610682366004613cbc565b6113c6565b34801561069357600080fd5b506104a560215481565b3480156106a957600080fd5b5061044e6113fe565b3480156106be57600080fd5b506104706106cd366004613f83565b611592565b3480156106de57600080fd5b506104a560125481565b3480156106f457600080fd5b506104a560115481565b34801561070a57600080fd5b506104a5610719366004613ca3565b611617565b34801561072a57600080fd5b506104a5611641565b34801561073f57600080fd5b5061047061074e36600461400a565b61165f565b34801561075f57600080fd5b506104a560165481565b34801561077557600080fd5b50610520610784366004613e46565b6116b3565b34801561079557600080fd5b506105206107a4366004613e46565b61174f565b3480156107b557600080fd5b506104a56107c4366004613ca3565b6117eb565b3480156107d557600080fd5b506104706107e436600461400a565b60016020526000908152604090205460ff1681565b34801561080557600080fd5b506104a5610814366004613ca3565b6117fb565b34801561082557600080fd5b50610470610834366004614027565b611820565b34801561084557600080fd5b5061044e6108543660046140d8565b611948565b34801561086557600080fd5b5061044e61087436600461400a565b611974565b34801561088557600080fd5b5061044e6119fe565b34801561089a57600080fd5b506104a560045481565b3480156108b057600080fd5b506108c46108bf36600461400a565b611d4c565b60405161047c9b9a9998979695949392919061410c565b3480156108e757600080fd5b5061044e6108f636600461400a565b611e33565b34801561090757600080fd5b506104a560185481565b34801561091d57600080fd5b5061060f61092c366004613ca3565b611ebb565b34801561093d57600080fd5b506104a561094c366004613ca3565b611ee5565b34801561095d57600080fd5b5061052061096c3660046141b6565b611ef5565b34801561097d57600080fd5b506104a560135481565b34801561099357600080fd5b506104a560245481565b3480156109a957600080fd5b506104d36109b8366004613e12565b611f9f565b3480156109c957600080fd5b506109dd6109d83660046141ea565b6120bc565b60405161047c9190614250565b3480156109f657600080fd5b506104a5610a05366004613ca3565b61216b565b348015610a1657600080fd5b506104d3610a2536600461400a565b61217b565b348015610a3657600080fd5b506104a5610a45366004614263565b612232565b348015610a5657600080fd5b5060005461060f906001600160a01b031681565b348015610a7657600080fd5b5061044e610a85366004614291565b612253565b348015610a9657600080fd5b506104a5610aa536600461400a565b612698565b348015610ab657600080fd5b506104a560195481565b348015610acc57600080fd5b5061060f610adb366004613ca3565b612902565b348015610aec57600080fd5b50610b00610afb366004614263565b612912565b60405161047c94939291906142e0565b348015610b1c57600080fd5b506104a560075481565b348015610b3257600080fd5b50610470610b4136600461432b565b612b1d565b348015610b5257600080fd5b50610470610b61366004613ca3565b612b6f565b348015610b7257600080fd5b506104a560105481565b348015610b8857600080fd5b5060065461060f906001600160a01b031681565b348015610ba857600080fd5b50610470610bb7366004614384565b612b99565b348015610bc857600080fd5b5061060f610bd736600461400a565b601c602052600090815260409020546001600160a01b031681565b348015610bfe57600080fd5b50610470610c0d366004613ca3565b612bc7565b348015610c1e57600080fd5b506104a5610c2d366004613ca3565b612bf1565b348015610c3e57600080fd5b5061044e612c1b565b348015610c5357600080fd5b506104a560255481565b348015610c6957600080fd5b506104a560175481565b348015610c7f57600080fd5b5061044e610c8e366004613ca3565b612dd4565b348015610c9f57600080fd5b506104a5600f5481565b348015610cb557600080fd5b506104a5610cc436600461400a565b601f6020526000908152604090205481565b348015610ce257600080fd5b506104a560145481565b348015610cf857600080fd5b50610470610d07366004613ca3565b6132df565b348015610d1857600080fd5b50610470610d273660046143a1565b613313565b348015610d3857600080fd5b50600e546104709060ff1681565b348015610d5257600080fd5b5061044e613368565b348015610d6757600080fd5b506104a5610d76366004613ca3565b6134ed565b348015610d8757600080fd5b5061044e610d9636600461400a565b6134fd565b348015610da757600080fd5b50600b546104a5565b348015610dbc57600080fd5b506104a5610dcb366004613ca3565b61358b565b348015610ddc57600080fd5b50610470610deb366004613cbc565b6135b0565b348015610dfc57600080fd5b506104a5613773565b348015610e1157600080fd5b506104a5601a5481565b3360009081526001602052604081205460ff16610e3757600080fd5b6001600160a01b038216610e4a57600080fd5b6001600160a01b0383166000908152601b60205260409020805460ff16610fb557805460ff19166001178155601154600f54610e869190614423565b610e909042614442565b60018201556001600160a01b038481166000908152601c6020908152604080832080546001600160a01b0319169488169485179055928252601b90529081206008810180549192610ee08361445a565b90915550506001600160a01b038481166000908152601d60209081526040822080546001810182559083529082200180546001600160a01b031916928816929092179091556015805491610f338361445a565b90915550506001600160a01b03851660009081526020805260409020600b8054610f5e929190613a3c565b50602180546000908152601e6020908152604080832080546001600160a01b0319166001600160a01b038b169081179091558454908452601f90925282208190559190610faa8361445a565b919050555050610fda565b601154600f54610fc59190614423565b8160010154610fd49190614442565b60018201555b60019150505b92915050565b600080546001600160a01b0316336001600160a01b03161461100757600080fd5b6003546040516370a0823160e01b815230600482015283916001600160a01b0316906370a0823190602401602060405180830381865afa15801561104f573d6000803e3d6000fd5b505050506040513d601f19601f820116820180604052508101906110739190614475565b101561107e57600080fd5b60035460005460405163a9059cbb60e01b81526001600160a01b0391821660048201526024810185905291169063a9059cbb906044016020604051808303816000875af11580156110d3573d6000803e3d6000fd5b505050506040513d601f19601f820116820180604052508101906110f7919061448e565b5090919050565b60608060005b8381101561118b5761111582611193565b6001600160a01b038087166000908152601c602052604090205482519294501690839083908110611148576111486144ab565b6001600160a01b039283166020918202929092018101919091529581166000908152601c90965260409095205490941693806111838161445a565b915050611104565b509392505050565b60606000825160016111a59190614442565b6001600160401b038111156111bc576111bc613d35565b6040519080825280602002602001820160405280156111e5578160200160208202803683370190505b50905060005b835181101561124a57838181518110611206576112066144ab565b6020026020010151828281518110611220576112206144ab565b6001600160a01b0390921660209283029190910190910152806112428161445a565b9150506111eb565b5092915050565b6000546060906001600160a01b0316336001600160a01b03161461127457600080fd5b8160098481548110611288576112886144ab565b906000526020600020018190555060098054806020026020016040519081016040528092919081815260200182805480156112e257602002820191906000526020600020905b8154815260200190600101908083116112ce575b5050505050905092915050565b600d81815481106112ff57600080fd5b600091825260209091200154905081565b600080546001600160a01b0316336001600160a01b03161461133157600080fd5b50601181905590565b600981815481106112ff57600080fd5b602381815481106112ff57600080fd5b60208052816000526040600020818154811061137557600080fd5b9060005260206000209060209182820401919006915091509054906101000a900460ff1681565b600080546001600160a01b0316336001600160a01b0316146113bd57600080fd5b50600555600190565b601d60205281600052604060002081815481106113e257600080fd5b6000918252602090912001546001600160a01b03169150829050565b600e5460ff1661140d57600080fd5b336000818152601b6020526040812091611428906000612232565b6003546040516370a0823160e01b815230600482015291925082916001600160a01b03909116906370a0823190602401602060405180830381865afa158015611475573d6000803e3d6000fd5b505050506040513d601f19601f820116820180604052508101906114999190614475565b10156114a457600080fd5b6004548110156114b357600080fd5b6003546001600160a01b031663a9059cbb336114e560646114df601354876137d590919063ffffffff16565b9061380e565b6040516001600160e01b031960e085901b1681526001600160a01b03909216600483015260248201526044016020604051808303816000875af1158015611530573d6000803e3d6000fd5b505050506040513d601f19601f82011682018060405250810190611554919061448e565b50808260070160008282546115699190614442565b909155505042600583015560188054829190600090611589908490614442565b90915550505050565b600080546001600160a01b0316336001600160a01b0316146115b357600080fd5b83516115c690600b906020870190613a9a565b5082516115da90600c906020860190613b3a565b5081516115ee90600d906020850190613b3a565b503360009081526020805260409020600b805461160c929190613a3c565b506001949350505050565b600080546001600160a01b0316336001600160a01b03161461163857600080fd5b50600481905590565b600061165a6011546010546137d590919063ffffffff16565b905090565b600080546001600160a01b0316336001600160a01b03161461168057600080fd5b50600380546001600160a01b0383166001600160a01b031991821681179092556006805490911690911790556001919050565b6000546060906001600160a01b0316336001600160a01b0316146116d657600080fd5b81600884815481106116ea576116ea6144ab565b906000526020600020018190555060088054806020026020016040519081016040528092919081815260200182805480156112e257602002820191906000526020600020908154815260200190600101908083116112ce575050505050905092915050565b6000546060906001600160a01b0316336001600160a01b03161461177257600080fd5b81600a8481548110611786576117866144ab565b9060005260206000200181905550600a8054806020026020016040519081016040528092919081815260200182805480156112e257602002820191906000526020600020908154815260200190600101908083116112ce575050505050905092915050565b602781815481106112ff57600080fd5b3360009081526001602052604081205460ff1661181757600080fd5b50601281905590565b3360009081526001602052604081205460ff1661183c57600080fd5b600083116118655760405162461bcd60e51b815260040161185c906144c1565b60405180910390fd5b6001600160a01b0384166000908152601b60205260409020805460ff1661188b57600080fd5b60008460055461189b9190614423565b905081600a0160405180608001604052804281526020016118cc60646114df601254876137d590919063ffffffff16565b81526020016118eb60646114df601254876137d590919063ffffffff16565b81529515156020968701528154600180820184556000938452928790208251600490920201908155958101518683015560408101516002870155606001516003909501805460ff1916951515959095179094555091949350505050565b336000908152601b602090815260409091208251909161196f916009840191850190613b75565b505050565b3360009081526001602052604090205460ff1661199057600080fd5b6001600160a01b0381166119a357600080fd5b6040516001600160a01b038216907f71614071b88dee5e0b2ae578a9dd7b2ebbe9ae832ba419dc0242cd065a290b6c90600090a26001600160a01b03166000908152600160208190526040909120805460ff19169091179055565b600e5460ff16611a0d57600080fd5b6000611a1833612698565b905060008111611a2757600080fd5b336000908152601b60209081526040808320815161018081018352815460ff16151581526001820154938101939093526002810154918301919091526003810154606083015260048101546080830152600581015460a0830152600681015460c0830152600781015460e0830152600881015461010083015260098101805461012084019190611ab6906144f8565b80601f0160208091040260200160405190810160405280929190818152602001828054611ae2906144f8565b8015611b2f5780601f10611b0457610100808354040283529160200191611b2f565b820191906000526020600020905b815481529060010190602001808311611b1257829003601f168201915b50505050508152602001600a8201805480602002602001604051908101604052809291908181526020016000905b82821015611bb6576000848152602090819020604080516080810182526004860290920180548352600180820154848601526002820154928401929092526003015460ff16151560608301529083529092019101611b5d565b505050508152602001600b82015481525050905060005b600c5481101561196f57600d8181548110611bea57611bea6144ab565b906000526020600020015482610160015110158015611c4657503360009081526020805260409020805482908110611c2457611c246144ab565b90600052602060002090602091828204019190069054906101000a900460ff16155b15611d3a576003546001600160a01b031663a9059cbb33600c8481548110611c7057611c706144ab565b6000918252602090912001546040516001600160e01b031960e085901b1681526001600160a01b03909216600483015260248201526044016020604051808303816000875af1158015611cc7573d6000803e3d6000fd5b505050506040513d601f19601f82011682018060405250810190611ceb919061448e565b50336000908152602080526040902080546001919083908110611d1057611d106144ab565b90600052602060002090602091828204019190066101000a81548160ff0219169083151502179055505b80611d448161445a565b915050611bcd565b601b60205260009081526040902080546001820154600283015460038401546004850154600586015460068701546007880154600889015460098a01805460ff909a169a9899979896979596949593949293919291611daa906144f8565b80601f0160208091040260200160405190810160405280929190818152602001828054611dd6906144f8565b8015611e235780601f10611df857610100808354040283529160200191611e23565b820191906000526020600020905b815481529060010190602001808311611e0657829003601f168201915b50505050509080600b015490508b565b6000546001600160a01b0316336001600160a01b031614611e5357600080fd5b6001600160a01b038116611e6657600080fd5b6040516001600160a01b038216907fa3b62bc36326052d97ea62d63c3d60308ed4c3ea8ac079dd8499f1e9c4f80c0f90600090a26001600160a01b03166000908152600160205260409020805460ff19169055565b60228181548110611ecb57600080fd5b6000918252602090912001546001600160a01b0316905081565b600881815481106112ff57600080fd5b6060600082516001611f079190614442565b6001600160401b03811115611f1e57611f1e613d35565b604051908082528060200260200182016040528015611f47578160200160208202803683370190505b50905060005b835181101561124a57838181518110611f6857611f686144ab565b6020026020010151828281518110611f8257611f826144ab565b602090810291909101015280611f978161445a565b915050611f4d565b60606000805b83518110156120b457601b6000858381518110611fc457611fc46144ab565b60200260200101516001600160a01b03166001600160a01b0316815260200190815260200160002091506000805b85518110156120455785818151811061200d5761200d6144ab565b60200260200101516001600160a01b0316826001600160a01b0316141561203357600091505b8061203d8161445a565b915050611ff2565b506001600160a01b038116156120a15761205e85611193565b94508085600187516120709190614533565b81518110612080576120806144ab565b60200260200101906001600160a01b031690816001600160a01b0316815250505b50806120ac8161445a565b915050611fa5565b509192915050565b60606000825160016120ce9190614442565b6001600160401b038111156120e5576120e5613d35565b60405190808252806020026020018201604052801561210e578160200160208202803683370190505b50905060005b835181101561124a5783818151811061212f5761212f6144ab565b6020026020010151828281518110612149576121496144ab565b91151560209283029190910190910152806121638161445a565b915050612114565b600c81815481106112ff57600080fd5b60608060005b6001600160a01b0384166000908152601d602052604090205481101561124a576121aa82611193565b6001600160a01b0385166000908152601d60205260409020805491935090829081106121d8576121d86144ab565b9060005260206000200160009054906101000a90046001600160a01b0316828281518110612208576122086144ab565b6001600160a01b03909216602092830291909101909101528061222a8161445a565b915050612181565b6000606080606060006122458787612912565b9a9950505050505050505050565b336000908152601b602052604090206001600160a01b0383166122c65760405162461bcd60e51b815260206004820152602560248201527f64656265732074656e657220726566657269646f207061726120726567697374604482015264726172746560d81b606482015260840161185c565b602454156123f2576024546003546001600160a01b031663dd62ed3e336040516001600160e01b031960e084901b1681526001600160a01b039091166004820152306024820152604401602060405180830381865afa15801561232d573d6000803e3d6000fd5b505050506040513d601f19601f820116820180604052508101906123519190614475565b101561235c57600080fd5b6003546001600160a01b03166323b872dd33602480546040516001600160e01b031960e086901b1681526001600160a01b039093166004840152309183019190915260448201526064016020604051808303816000875af11580156123c5573d6000803e3d6000fd5b505050506040513d601f19601f820116820180604052508101906123e9919061448e565b6123f257600080fd5b60026025541061250c5760005b60225481101561250a57600354602280546001600160a01b039092169163a9059cbb919084908110612433576124336144ab565b9060005260206000200160009054906101000a90046001600160a01b031661248860646114df6023878154811061246c5761246c6144ab565b90600052602060002001546024546137d590919063ffffffff16565b6040516001600160e01b031960e085901b1681526001600160a01b03909216600483015260248201526044016020604051808303816000875af11580156124d3573d6000803e3d6000fd5b505050506040513d601f19601f820116820180604052508101906124f7919061448e565b50806125028161445a565b9150506123ff565b505b805460ff1661265857805460ff19166001178155601154600f546125309190614423565b61253a9042614442565b6001820155336000908152601c6020908152604080832080546001600160a01b0319166001600160a01b0388169081179091558352601b909152812060088101805491926125878361445a565b90915550506001600160a01b0384166000908152601d60209081526040822080546001810182559083529082200180546001600160a01b0319163317905560158054916125d38361445a565b9190505550600b602060006125e53390565b6001600160a01b031681526020810191909152604001600020815461260a9290613a3c565b50602180546000908152601e6020908152604080832080546001600160a01b031916339081179091558454908452601f9092528220819055919061264d8361445a565b91905055505061267d565b601154600f546126689190614423565b81600101546126779190614442565b60018201555b81516126929060098301906020850190613b75565b50505050565b6001600160a01b0381166000908152601b60209081526040808320815161018081018352815460ff16151581526001820154938101939093526002810154918301919091526003810154606083015260048101546080830152600581015460a0830152600681015460c0830152600781015460e0830152600881015461010083015260098101805484939291610120840191612733906144f8565b80601f016020809104026020016040519081016040528092919081815260200182805461275f906144f8565b80156127ac5780601f10612781576101008083540402835291602001916127ac565b820191906000526020600020905b81548152906001019060200180831161278f57829003601f168201915b50505050508152602001600a8201805480602002602001604051908101604052809291908181526020016000905b82821015612833576000848152602090819020604080516080810182526004860290920180548352600180820154848601526002820154928401929092526003015460ff161515606083015290835290920191016127da565b505050508152602001600b82015481525050905060005b600c548110156128fb57600d8181548110612867576128676144ab565b9060005260206000200154826101600151101580156128c3575033600090815260208052604090208054829081106128a1576128a16144ab565b90600052602060002090602091828204019190069054906101000a900460ff16155b156128e957600c81815481106128db576128db6144ab565b906000526020600020015492505b806128f38161445a565b91505061284a565b5050919050565b60268181548110611ecb57600080fd5b6001600160a01b0382166000908152601b6020526040812060609182918291908183808083808080805b600a8a0154811015612b055789600a01818154811061295d5761295d6144ab565b6000918252602090912060036004909202019081015490995060ff1615158f15151415612af35761298d88611ef5565b975061299887611ef5565b96506129a3866120bc565b9550886000015487600189516129b99190614533565b815181106129c9576129c96144ab565b6020026020010181815250506129dd611641565b89546129e99190614442565b93508342116129f857426129fa565b835b60038a015490925060ff1615612a2a57885460068b015411612a1d578854612a23565b89600601545b9250612a46565b885460058b015411612a3d578854612a43565b89600501545b92505b8215801590612a5457508183105b15612ac257612a61611641565b612a6b8484614533565b8a60020154612a7a9190614423565b612a84919061454a565b612a8e9086614442565b945060018660018851612aa19190614533565b81518110612ab157612ab16144ab565b911515602092830291909101909101525b88600201548860018a51612ad69190614533565b81518110612ae657612ae66144ab565b6020026020010181815250505b80612afd8161445a565b91505061293c565b50959e949d50929b5090995091975050505050505050565b600080546001600160a01b0316336001600160a01b031614612b3e57600080fd5b8251612b51906026906020860190613be8565b508151612b65906027906020850190613b3a565b5060019392505050565b600080546001600160a01b0316336001600160a01b031614612b9057600080fd5b50602455600190565b3360009081526001602052604081205460ff16612bb557600080fd5b50600e805460ff191682151517905590565b600080546001600160a01b0316336001600160a01b031614612be857600080fd5b50601355600190565b600080546001600160a01b0316336001600160a01b031614612c1257600080fd5b50600781905590565b6000601b81336001600160a01b03908116825260208201929092526040908101600020600281015460035492516370a0823160e01b815230600482015291945092839216906370a0823190602401602060405180830381865afa158015612c86573d6000803e3d6000fd5b505050506040513d601f19601f82011682018060405250810190612caa9190614475565b1015612d0f5760405162461bcd60e51b815260206004820152602e60248201527f6e6f206861792073616c646f20656e20656c20636f6e747261746f207061726160448201526d20686163657220656c207061676f60901b606482015260840161185c565b600454811015612d1e57600080fd5b6003546001600160a01b031663a9059cbb33612d4a60646114df601354876137d590919063ffffffff16565b6040516001600160e01b031960e085901b1681526001600160a01b03909216600483015260248201526044016020604051808303816000875af1158015612d95573d6000803e3d6000fd5b505050506040513d601f19601f82011682018060405250810190612db9919061448e565b50816002016000905580601a60008282546115899190614442565b60008111612df45760405162461bcd60e51b815260040161185c906144c1565b336000908152601b60205260409020805460ff16612e495760405162461bcd60e51b81526020600482015260126024820152716e6f2065737461207265676973747261646f60701b604482015260640161185c565b80600101544210612e925760405162461bcd60e51b815260206004820152601360248201527206e6f207469656e65206d656d6265727368697606c1b604482015260640161185c565b600082600554612ea29190614423565b60035490915081906001600160a01b031663dd62ed3e336040516001600160e01b031960e084901b1681526001600160a01b039091166004820152306024820152604401602060405180830381865afa158015612f03573d6000803e3d6000fd5b505050506040513d601f19601f82011682018060405250810190612f279190614475565b1015612f755760405162461bcd60e51b815260206004820152601b60248201527f73616c646f206170726f7661646f20696e737566696369656e74650000000000604482015260640161185c565b6003546001600160a01b03166323b872dd336040516001600160e01b031960e084901b1681526001600160a01b039091166004820152306024820152604481018490526064016020604051808303816000875af1158015612fda573d6000803e3d6000fd5b505050506040513d601f19601f82011682018060405250810190612ffe919061448e565b6130415760405162461bcd60e51b81526020600482015260146024820152737472616e666572656e6369612066616c6c69646160601b604482015260640161185c565b336000908152601c60205260409020546001600160a01b0316156130fc576130bb335b8260088054806020026020016040519081016040528092919081815260200182805480156130b157602002820191906000526020600020905b81548152602001906001019080831161309d575b5050505050613830565b336000908152601c60209081526040808320546001600160a01b03168352601b9091528120600b81018054919286926130f5908490614442565b9091555050505b81600a01604051806080016040528042815260200161312b60646114df601254876137d590919063ffffffff16565b815260200161314a60646114df601254876137d590919063ffffffff16565b815260006020918201819052835460018082018655948252828220845160049283029091019081559284015194830194909455604083015160028301556060909201516003909101805460ff191691151591909117905590830180548592906131b4908490614442565b9250508190555080601660008282546131cd9190614442565b90915550600090505b60265481101561269257600354602680546001600160a01b039092169163a9059cbb91908490811061320a5761320a6144ab565b9060005260206000200160009054906101000a90046001600160a01b031661325d60646114df60278781548110613243576132436144ab565b9060005260206000200154886137d590919063ffffffff16565b6040516001600160e01b031960e085901b1681526001600160a01b03909216600483015260248201526044016020604051808303816000875af11580156132a8573d6000803e3d6000fd5b505050506040513d601f19601f820116820180604052508101906132cc919061448e565b50806132d78161445a565b9150506131d6565b600b81815481106132ef57600080fd5b9060005260206000209060209182820401919006915054906101000a900460ff1681565b600080546001600160a01b0316336001600160a01b03161461333457600080fd5b8351613347906022906020870190613be8565b50825161335b906023906020860190613b3a565b5050602555506001919050565b600e5460ff1661337757600080fd5b336000818152601b6020526040812091613392906001612232565b6003546040516370a0823160e01b815230600482015291925082916001600160a01b03909116906370a0823190602401602060405180830381865afa1580156133df573d6000803e3d6000fd5b505050506040513d601f19601f820116820180604052508101906134039190614475565b101561340e57600080fd5b60045481101561341d57600080fd5b6003546001600160a01b031663a9059cbb3361344960646114df601354876137d590919063ffffffff16565b6040516001600160e01b031960e085901b1681526001600160a01b03909216600483015260248201526044016020604051808303816000875af1158015613494573d6000803e3d6000fd5b505050506040513d601f19601f820116820180604052508101906134b8919061448e565b50808260070160008282546134cd9190614442565b909155505042600683015560198054829190600090611589908490614442565b600a81815481106112ff57600080fd5b6000546001600160a01b0316336001600160a01b03161461351d57600080fd5b6001600160a01b03811661353057600080fd5b600080546040516001600160a01b03808516939216917f8be0079c531659141344cd1fd0a4f28419497f9722a3daafe3b4186f6b6457e091a3600080546001600160a01b0319166001600160a01b0392909216919091179055565b3360009081526001602052604081205460ff166135a757600080fd5b50601081905590565b600080546001600160a01b0316336001600160a01b0316146135d157600080fd5b600082116135f15760405162461bcd60e51b815260040161185c906144c1565b6001600160a01b0383166000908152601b60205260409020805460ff1661361757600080fd5b6000836005546136279190614423565b336000908152601c60205260409020549091506001600160a01b0316156136925761365133613064565b336000908152601c60209081526040808320546001600160a01b03168352601b9091528120600b810180549192879261368b908490614442565b9091555050505b81600a0160405180608001604052804281526020016136c160646114df601254876137d590919063ffffffff16565b81526020016136e060646114df601254876137d590919063ffffffff16565b815260006020918201819052835460018082018655948252828220845160049283029091019081559284015194830194909455604083015160028301556060909201516003909101805460ff1916911515919091179055908301805486929061374a908490614442565b9250508190555080601660008282546137639190614442565b9091555060019695505050505050565b600080546001600160a01b0316336001600160a01b03161461379457600080fd5b600080546040516001600160a01b03909116914780156108fc02929091818181858888f193505050501580156137ce573d6000803e3d6000fd5b5047905090565b6000826137e457506000610fe0565b60006137f08385614423565b9050826137fd858361454a565b1461380757600080fd5b9392505050565b600080821161381c57600080fd5b6000613828838561454a565b949350505050565b606061383d8483516110fe565b905060008080805b8551811015613a3257858181518110613860576138606144ab565b6020026020010151600014613a1b57601b6000868381518110613885576138856144ab565b6020908102919091018101516001600160a01b03168252810191909152604001600020805490925060ff1680156138c0575042826001015410155b15613a205760006001600160a01b03168582815181106138e2576138e26144ab565b60200260200101516001600160a01b031614613a1b5761392a6103e86114df888481518110613913576139136144ab565b60200260200101518a6137d590919063ffffffff16565b935061396160646114df60098481548110613947576139476144ab565b90600052602060002001548a6137d590919063ffffffff16565b9250838260020160008282546139779190614442565b92505081905550838260030160008282546139929190614442565b9091555050604080516080810182524281526020808201868152928201868152600160608401818152600a88018054808401825560009182529481209551600490950290950193845594519083015551600282015591516003909201805460ff19169215159290921790915560178054869290613a10908490614442565b90915550613a209050565b613a32565b80613a2a8161445a565b915050613845565b5050505050505050565b82805482825590600052602060002090601f01602090048101928215613a8a57600052602060002091601f016020900482015b82811115613a8a578254825591600101919060010190613a6f565b50613a96929150613c3d565b5090565b82805482825590600052602060002090601f01602090048101928215613a8a5791602002820160005b83821115613b0057835183826101000a81548160ff0219169083151502179055509260200192600101602081600001049283019260010302613ac3565b8015613b2d5782816101000a81549060ff0219169055600101602081600001049283019260010302613b00565b5050613a96929150613c3d565b828054828255906000526020600020908101928215613a8a579160200282015b82811115613a8a578251825591602001919060010190613b5a565b828054613b81906144f8565b90600052602060002090601f016020900481019282613ba35760008555613a8a565b82601f10613bbc57805160ff1916838001178555613a8a565b82800160010185558215613a8a5791820182811115613a8a578251825591602001919060010190613b5a565b828054828255906000526020600020908101928215613a8a579160200282015b82811115613a8a57825182546001600160a01b0319166001600160a01b03909116178255602090920191600190910190613c08565b5b80821115613a965760008155600101613c3e565b6001600160a01b0381168114613c6757600080fd5b50565b60008060408385031215613c7d57600080fd5b8235613c8881613c52565b91506020830135613c9881613c52565b809150509250929050565b600060208284031215613cb557600080fd5b5035919050565b60008060408385031215613ccf57600080fd5b8235613cda81613c52565b946020939093013593505050565b6020808252825182820181905260009190848201906040850190845b81811015613d295783516001600160a01b031683529284019291840191600101613d04565b50909695505050505050565b634e487b7160e01b600052604160045260246000fd5b604051601f8201601f191681016001600160401b0381118282101715613d7357613d73613d35565b604052919050565b60006001600160401b03821115613d9457613d94613d35565b5060051b60200190565b600082601f830112613daf57600080fd5b81356020613dc4613dbf83613d7b565b613d4b565b82815260059290921b84018101918181019086841115613de357600080fd5b8286015b84811015613e07578035613dfa81613c52565b8352918301918301613de7565b509695505050505050565b600060208284031215613e2457600080fd5b81356001600160401b03811115613e3a57600080fd5b61382884828501613d9e565b60008060408385031215613e5957600080fd5b50508035926020909101359150565b600081518084526020808501945080840160005b83811015613e9857815187529582019590820190600101613e7c565b509495945050505050565b6020815260006138076020830184613e68565b8015158114613c6757600080fd5b600082601f830112613ed557600080fd5b81356020613ee5613dbf83613d7b565b82815260059290921b84018101918181019086841115613f0457600080fd5b8286015b84811015613e07578035613f1b81613eb6565b8352918301918301613f08565b600082601f830112613f3957600080fd5b81356020613f49613dbf83613d7b565b82815260059290921b84018101918181019086841115613f6857600080fd5b8286015b84811015613e075780358352918301918301613f6c565b600080600060608486031215613f9857600080fd5b83356001600160401b0380821115613faf57600080fd5b613fbb87838801613ec4565b94506020860135915080821115613fd157600080fd5b613fdd87838801613f28565b93506040860135915080821115613ff357600080fd5b5061400086828701613f28565b9150509250925092565b60006020828403121561401c57600080fd5b813561380781613c52565b60008060006060848603121561403c57600080fd5b833561404781613c52565b925060208401359150604084013561405e81613eb6565b809150509250925092565b600082601f83011261407a57600080fd5b81356001600160401b0381111561409357614093613d35565b6140a6601f8201601f1916602001613d4b565b8181528460208386010111156140bb57600080fd5b816020850160208301376000918101602001919091529392505050565b6000602082840312156140ea57600080fd5b81356001600160401b0381111561410057600080fd5b61382884828501614069565b60006101608d1515835260208d818501528c60408501528b60608501528a60808501528960a08501528860c08501528760e0850152866101008501528161012085015285518083860152600092505b8083101561417a5786830182015185840161018001529181019161415b565b8083111561418d57600061018082870101525b610140850195909552505050601f91909101601f191601610180019a9950505050505050505050565b6000602082840312156141c857600080fd5b81356001600160401b038111156141de57600080fd5b61382884828501613f28565b6000602082840312156141fc57600080fd5b81356001600160401b0381111561421257600080fd5b61382884828501613ec4565b600081518084526020808501945080840160005b83811015613e98578151151587529582019590820190600101614232565b602081526000613807602083018461421e565b6000806040838503121561427657600080fd5b823561428181613c52565b91506020830135613c9881613eb6565b600080604083850312156142a457600080fd5b82356142af81613c52565b915060208301356001600160401b038111156142ca57600080fd5b6142d685828601614069565b9150509250929050565b6080815260006142f36080830187613e68565b82810360208401526143058187613e68565b90508281036040840152614319818661421e565b91505082606083015295945050505050565b6000806040838503121561433e57600080fd5b82356001600160401b038082111561435557600080fd5b61436186838701613d9e565b9350602085013591508082111561437757600080fd5b506142d685828601613f28565b60006020828403121561439657600080fd5b813561380781613eb6565b6000806000606084860312156143b657600080fd5b83356001600160401b03808211156143cd57600080fd5b6143d987838801613d9e565b945060208601359150808211156143ef57600080fd5b506143fc86828701613f28565b925050604084013590509250925092565b634e487b7160e01b600052601160045260246000fd5b600081600019048311821515161561443d5761443d61440d565b500290565b600082198211156144555761445561440d565b500190565b600060001982141561446e5761446e61440d565b5060010190565b60006020828403121561448757600080fd5b5051919050565b6000602082840312156144a057600080fd5b815161380781613eb6565b634e487b7160e01b600052603260045260246000fd5b6020808252601e908201527f63616e7469646164206d696e696d6120646520626c6f6b657320657320310000604082015260600190565b600181811c9082168061450c57607f821691505b6020821081141561452d57634e487b7160e01b600052602260045260246000fd5b50919050565b6000828210156145455761454561440d565b500390565b60008261456757634e487b7160e01b600052601260045260246000fd5b50049056fea26469706673582212207ebf685a2de617686e36e31d3c45825f2e7f5c6a85516bef35a4a4fa8136fff364736f6c634300080a0033",
    "sourcePath": "c:/Users/STC/Documents/GitHub/0-INFINITY-BLOCKS-TEST-UNILEVEL/contracts/UnilevelSystem.sol",
    "compiler": {
        "name": "solc",
        "version": "0.8.10+commit.fc410830"
    },
    "functionHashes": {
        "ChangeTokenPrincipal(address)": "50da983f",
        "MIN_RETIRO()": "6c529279",
        "PRECIO_BLOCK()": "24de19f2",
        "activerFee()": "bd9bee19",
        "actualizarArrayBool(bool[])": "7fcc1e36",
        "actualizarArrayUint256(uint256[])": "7367b080",
        "actualizarNetwork(address[])": "1ce7f99b",
        "addressToId(address)": "cb0e0d7d",
        "admin(address)": "63a846f8",
        "allnetwork(address[])": "7faee047",
        "asignarBloke(address,uint256,bool)": "67f74aab",
        "asignarBlokePago(address,uint256)": "fc5d8615",
        "asignarMembership(address,address)": "1053abb1",
        "baserange(uint256)": "cfda9ee6",
        "baserangelength()": "f5c9dbef",
        "buyBlocks(uint256)": "c17dbdf9",
        "column(address,uint256)": "15e8392b",
        "columnHijos(address)": "815374ca",
        "controlWitdrawl(bool)": "b17b6e44",
        "depositos(address,bool)": "a365528b",
        "descuento()": "7b0412ed",
        "dias()": "ab6db199",
        "duracionMembership()": "c40d5dbc",
        "gananciasRango(uint256)": "81032892",
        "hijo(address,uint256)": "339640b5",
        "idToAddress(uint256)": "2a2d0c47",
        "infinity(uint256)": "edf5eb1d",
        "inversiones()": "a77d2119",
        "investors(address)": "6f7bc9be",
        "lastUserId()": "348d4487",
        "makeNewAdmin(address)": "69ed1e0a",
        "makeRemoveAdmin(address)": "70a0966b",
        "newRecompensa()": "69f4a84b",
        "onOffWitdrawl()": "e7348e8c",
        "owner()": "8da5cb5b",
        "padre(address)": "b35f0a8f",
        "personas()": "cc759ba2",
        "porcent()": "4728f718",
        "porcientos(uint256)": "28cca719",
        "precioRegistro()": "7db9e9c6",
        "primervez(uint256)": "725fc270",
        "puntosRango(uint256)": "21309f21",
        "rangoReclamado(address,uint256)": "2acc8210",
        "redimBNB()": "fd14d598",
        "redimTokenPrincipal02(uint256)": "1140e85b",
        "registro(address,string)": "8f9ef8c1",
        "setDescuento(uint256)": "b3d9fa09",
        "setInversiones(uint256)": "b85ea335",
        "setMIN_RETIRO(uint256)": "4de1be62",
        "setPorcientos(uint256,uint256)": "1e403c35",
        "setPorcientosSalida(uint256,uint256)": "5d216c60",
        "setPrecioRegistro(uint256)": "aaa749c5",
        "setPriceBlock(uint256)": "2e8a03cf",
        "setPrimeravezPorcientos(uint256,uint256)": "54822522",
        "setRangos(bool[],uint256[],uint256[])": "43bf0bd4",
        "setRetorno(uint256)": "6589fa8a",
        "setTiempo(uint256)": "f90b3f5a",
        "setTiempoUnidades(uint256)": "2748d29b",
        "setWalletFee(address[],uint256[],uint256)": "db3be1a2",
        "setWalletstransfers(address[],uint256[])": "a8beb717",
        "tiempo()": "50188c08",
        "tokenPricipal()": "b1390426",
        "totalInvested()": "5216aeec",
        "totalInvestors()": "29b8caff",
        "totalRefRewards()": "bfe0e020",
        "totalRefWitdrawl()": "9b8ff503",
        "totalRoiWitdrawl()": "70d7e3d5",
        "totalTeamWitdrawl()": "ff0b0cc5",
        "transferOwnership(address)": "f2fde38b",
        "unidades()": "4b9b8203",
        "updateData(string)": "68446ead",
        "valor(uint256)": "62550916",
        "valorFee(uint256)": "29e1a243",
        "wallet(uint256)": "a2781335",
        "walletFee(uint256)": "7251b9ac",
        "withdraw()": "3ccfd60b",
        "withdraw2()": "ea98847b",
        "withdrawTeam()": "bb51f32d",
        "withdrawable(address,bool)": "89b2521c",
        "withdrawableRange(address)": "98c07d0a"
    },
    "gasEstimates": {
        "creation": {
            "codeDepositCost": "3565200",
            "executionCost": "infinite",
            "totalCost": "infinite"
        },
        "external": {
            "": "253",
            "ChangeTokenPrincipal(address)": "51128",
            "MIN_RETIRO()": "2429",
            "PRECIO_BLOCK()": "2386",
            "activerFee()": "2429",
            "actualizarArrayBool(bool[])": "infinite",
            "actualizarArrayUint256(uint256[])": "infinite",
            "actualizarNetwork(address[])": "infinite",
            "addressToId(address)": "2624",
            "admin(address)": "2626",
            "allnetwork(address[])": "infinite",
            "asignarBloke(address,uint256,bool)": "infinite",
            "asignarBlokePago(address,uint256)": "infinite",
            "asignarMembership(address,address)": "infinite",
            "baserange(uint256)": "6380",
            "baserangelength()": "2358",
            "buyBlocks(uint256)": "infinite",
            "column(address,uint256)": "infinite",
            "columnHijos(address)": "infinite",
            "controlWitdrawl(bool)": "26895",
            "depositos(address,bool)": "infinite",
            "descuento()": "2364",
            "dias()": "2384",
            "duracionMembership()": "2384",
            "gananciasRango(uint256)": "4732",
            "hijo(address,uint256)": "4935",
            "idToAddress(uint256)": "2568",
            "infinity(uint256)": "4708",
            "inversiones()": "2429",
            "investors(address)": "infinite",
            "lastUserId()": "2363",
            "makeNewAdmin(address)": "28099",
            "makeRemoveAdmin(address)": "28025",
            "newRecompensa()": "infinite",
            "onOffWitdrawl()": "2388",
            "owner()": "2449",
            "padre(address)": "2707",
            "personas()": "2428",
            "porcent()": "2429",
            "porcientos(uint256)": "4710",
            "precioRegistro()": "2386",
            "primervez(uint256)": "4708",
            "puntosRango(uint256)": "4644",
            "rangoReclamado(address,uint256)": "6505",
            "redimBNB()": "infinite",
            "redimTokenPrincipal02(uint256)": "infinite",
            "registro(address,string)": "infinite",
            "setDescuento(uint256)": "24613",
            "setInversiones(uint256)": "24643",
            "setMIN_RETIRO(uint256)": "24622",
            "setPorcientos(uint256,uint256)": "infinite",
            "setPorcientosSalida(uint256,uint256)": "infinite",
            "setPrecioRegistro(uint256)": "24612",
            "setPriceBlock(uint256)": "24680",
            "setPrimeravezPorcientos(uint256,uint256)": "infinite",
            "setRangos(bool[],uint256[],uint256[])": "infinite",
            "setRetorno(uint256)": "24717",
            "setTiempo(uint256)": "24671",
            "setTiempoUnidades(uint256)": "24666",
            "setWalletFee(address[],uint256[],uint256)": "infinite",
            "setWalletstransfers(address[],uint256[])": "infinite",
            "tiempo()": "infinite",
            "tokenPricipal()": "2448",
            "totalInvested()": "2430",
            "totalInvestors()": "2452",
            "totalRefRewards()": "2451",
            "totalRefWitdrawl()": "2363",
            "totalRoiWitdrawl()": "2384",
            "totalTeamWitdrawl()": "2449",
            "transferOwnership(address)": "30567",
            "unidades()": "2451",
            "updateData(string)": "infinite",
            "valor(uint256)": "4665",
            "valorFee(uint256)": "4644",
            "wallet(uint256)": "4704",
            "walletFee(uint256)": "4725",
            "withdraw()": "infinite",
            "withdraw2()": "infinite",
            "withdrawTeam()": "infinite",
            "withdrawable(address,bool)": "infinite",
            "withdrawableRange(address)": "infinite"
        },
        "internal": {
            "rewardReferers(address,uint256,uint256[] memory)": "infinite"
        }
    }
}