{
    "contractName": "UnilevelSystem",
    "abi": [
        {
            "inputs": [],
            "stateMutability": "nonpayable",
            "type": "constructor"
        },
        {
            "anonymous": false,
            "inputs": [
                {
                    "indexed": true,
                    "internalType": "address",
                    "name": "admin",
                    "type": "address"
                }
            ],
            "name": "AdminRemoved",
            "type": "event"
        },
        {
            "anonymous": false,
            "inputs": [
                {
                    "indexed": true,
                    "internalType": "address",
                    "name": "admin",
                    "type": "address"
                }
            ],
            "name": "NewAdmin",
            "type": "event"
        },
        {
            "anonymous": false,
            "inputs": [
                {
                    "indexed": true,
                    "internalType": "address",
                    "name": "previousOwner",
                    "type": "address"
                },
                {
                    "indexed": true,
                    "internalType": "address",
                    "name": "newOwner",
                    "type": "address"
                }
            ],
            "name": "OwnershipTransferred",
            "type": "event"
        },
        {
            "stateMutability": "payable",
            "type": "fallback"
        },
        {
            "inputs": [
                {
                    "internalType": "address",
                    "name": "_tokenTRC20",
                    "type": "address"
                }
            ],
            "name": "ChangeTokenPrincipal",
            "outputs": [
                {
                    "internalType": "bool",
                    "name": "",
                    "type": "bool"
                }
            ],
            "stateMutability": "nonpayable",
            "type": "function"
        },
        {
            "inputs": [],
            "name": "MIN_RETIRO",
            "outputs": [
                {
                    "internalType": "uint256",
                    "name": "",
                    "type": "uint256"
                }
            ],
            "stateMutability": "view",
            "type": "function"
        },
        {
            "inputs": [],
            "name": "PRECIO_BLOCK",
            "outputs": [
                {
                    "internalType": "uint256",
                    "name": "",
                    "type": "uint256"
                }
            ],
            "stateMutability": "view",
            "type": "function"
        },
        {
            "inputs": [],
            "name": "activerFee",
            "outputs": [
                {
                    "internalType": "uint256",
                    "name": "",
                    "type": "uint256"
                }
            ],
            "stateMutability": "view",
            "type": "function"
        },
        {
            "inputs": [
                {
                    "internalType": "bool[]",
                    "name": "old",
                    "type": "bool[]"
                }
            ],
            "name": "actualizarArrayBool",
            "outputs": [
                {
                    "internalType": "bool[]",
                    "name": "",
                    "type": "bool[]"
                }
            ],
            "stateMutability": "pure",
            "type": "function"
        },
        {
            "inputs": [
                {
                    "internalType": "uint256[]",
                    "name": "old",
                    "type": "uint256[]"
                }
            ],
            "name": "actualizarArrayUint256",
            "outputs": [
                {
                    "internalType": "uint256[]",
                    "name": "",
                    "type": "uint256[]"
                }
            ],
            "stateMutability": "pure",
            "type": "function"
        },
        {
            "inputs": [
                {
                    "internalType": "address[]",
                    "name": "oldNetwork",
                    "type": "address[]"
                }
            ],
            "name": "actualizarNetwork",
            "outputs": [
                {
                    "internalType": "address[]",
                    "name": "",
                    "type": "address[]"
                }
            ],
            "stateMutability": "pure",
            "type": "function"
        },
        {
            "inputs": [
                {
                    "internalType": "address",
                    "name": "",
                    "type": "address"
                }
            ],
            "name": "addressToId",
            "outputs": [
                {
                    "internalType": "uint256",
                    "name": "",
                    "type": "uint256"
                }
            ],
            "stateMutability": "view",
            "type": "function"
        },
        {
            "inputs": [
                {
                    "internalType": "address",
                    "name": "",
                    "type": "address"
                }
            ],
            "name": "admin",
            "outputs": [
                {
                    "internalType": "bool",
                    "name": "",
                    "type": "bool"
                }
            ],
            "stateMutability": "view",
            "type": "function"
        },
        {
            "inputs": [
                {
                    "internalType": "address[]",
                    "name": "network",
                    "type": "address[]"
                }
            ],
            "name": "allnetwork",
            "outputs": [
                {
                    "internalType": "address[]",
                    "name": "",
                    "type": "address[]"
                }
            ],
            "stateMutability": "view",
            "type": "function"
        },
        {
            "inputs": [
                {
                    "internalType": "address",
                    "name": "_user",
                    "type": "address"
                },
                {
                    "internalType": "uint256",
                    "name": "_bloks",
                    "type": "uint256"
                },
                {
                    "internalType": "bool",
                    "name": "_infinity",
                    "type": "bool"
                }
            ],
            "name": "asignarBloke",
            "outputs": [
                {
                    "internalType": "bool",
                    "name": "",
                    "type": "bool"
                }
            ],
            "stateMutability": "nonpayable",
            "type": "function"
        },
        {
            "inputs": [
                {
                    "internalType": "address",
                    "name": "_user",
                    "type": "address"
                },
                {
                    "internalType": "address",
                    "name": "_sponsor",
                    "type": "address"
                }
            ],
            "name": "asignarMembership",
            "outputs": [
                {
                    "internalType": "bool",
                    "name": "",
                    "type": "bool"
                }
            ],
            "stateMutability": "nonpayable",
            "type": "function"
        },
        {
            "inputs": [
                {
                    "internalType": "uint256",
                    "name": "_bloks",
                    "type": "uint256"
                }
            ],
            "name": "buyBlocks",
            "outputs": [],
            "stateMutability": "nonpayable",
            "type": "function"
        },
        {
            "inputs": [
                {
                    "internalType": "address",
                    "name": "yo",
                    "type": "address"
                },
                {
                    "internalType": "uint256",
                    "name": "_largo",
                    "type": "uint256"
                }
            ],
            "name": "column",
            "outputs": [
                {
                    "internalType": "address[]",
                    "name": "",
                    "type": "address[]"
                }
            ],
            "stateMutability": "view",
            "type": "function"
        },
        {
            "inputs": [
                {
                    "internalType": "address",
                    "name": "yo",
                    "type": "address"
                }
            ],
            "name": "columnHijos",
            "outputs": [
                {
                    "internalType": "address[]",
                    "name": "",
                    "type": "address[]"
                }
            ],
            "stateMutability": "view",
            "type": "function"
        },
        {
            "inputs": [
                {
                    "internalType": "bool",
                    "name": "_true_false",
                    "type": "bool"
                }
            ],
            "name": "controlWitdrawl",
            "outputs": [
                {
                    "internalType": "bool",
                    "name": "",
                    "type": "bool"
                }
            ],
            "stateMutability": "nonpayable",
            "type": "function"
        },
        {
            "inputs": [
                {
                    "internalType": "address",
                    "name": "_user",
                    "type": "address"
                },
                {
                    "internalType": "bool",
                    "name": "_infinity",
                    "type": "bool"
                }
            ],
            "name": "depositos",
            "outputs": [
                {
                    "internalType": "uint256[]",
                    "name": "",
                    "type": "uint256[]"
                },
                {
                    "internalType": "uint256[]",
                    "name": "",
                    "type": "uint256[]"
                },
                {
                    "internalType": "bool[]",
                    "name": "",
                    "type": "bool[]"
                },
                {
                    "internalType": "uint256",
                    "name": "",
                    "type": "uint256"
                }
            ],
            "stateMutability": "view",
            "type": "function"
        },
        {
            "inputs": [],
            "name": "descuento",
            "outputs": [
                {
                    "internalType": "uint256",
                    "name": "",
                    "type": "uint256"
                }
            ],
            "stateMutability": "view",
            "type": "function"
        },
        {
            "inputs": [],
            "name": "dias",
            "outputs": [
                {
                    "internalType": "uint256",
                    "name": "",
                    "type": "uint256"
                }
            ],
            "stateMutability": "view",
            "type": "function"
        },
        {
            "inputs": [],
            "name": "duracionMembership",
            "outputs": [
                {
                    "internalType": "uint256",
                    "name": "",
                    "type": "uint256"
                }
            ],
            "stateMutability": "view",
            "type": "function"
        },
        {
            "inputs": [
                {
                    "internalType": "uint256",
                    "name": "",
                    "type": "uint256"
                }
            ],
            "name": "gananciasRango",
            "outputs": [
                {
                    "internalType": "uint256",
                    "name": "",
                    "type": "uint256"
                }
            ],
            "stateMutability": "view",
            "type": "function"
        },
        {
            "inputs": [
                {
                    "internalType": "address",
                    "name": "",
                    "type": "address"
                },
                {
                    "internalType": "uint256",
                    "name": "",
                    "type": "uint256"
                }
            ],
            "name": "hijo",
            "outputs": [
                {
                    "internalType": "address",
                    "name": "",
                    "type": "address"
                }
            ],
            "stateMutability": "view",
            "type": "function"
        },
        {
            "inputs": [
                {
                    "internalType": "uint256",
                    "name": "",
                    "type": "uint256"
                }
            ],
            "name": "idToAddress",
            "outputs": [
                {
                    "internalType": "address",
                    "name": "",
                    "type": "address"
                }
            ],
            "stateMutability": "view",
            "type": "function"
        },
        {
            "inputs": [
                {
                    "internalType": "uint256",
                    "name": "",
                    "type": "uint256"
                }
            ],
            "name": "infinity",
            "outputs": [
                {
                    "internalType": "uint256",
                    "name": "",
                    "type": "uint256"
                }
            ],
            "stateMutability": "view",
            "type": "function"
        },
        {
            "inputs": [],
            "name": "inversiones",
            "outputs": [
                {
                    "internalType": "uint256",
                    "name": "",
                    "type": "uint256"
                }
            ],
            "stateMutability": "view",
            "type": "function"
        },
        {
            "inputs": [
                {
                    "internalType": "address",
                    "name": "",
                    "type": "address"
                }
            ],
            "name": "investors",
            "outputs": [
                {
                    "internalType": "bool",
                    "name": "registered",
                    "type": "bool"
                },
                {
                    "internalType": "uint256",
                    "name": "membership",
                    "type": "uint256"
                },
                {
                    "internalType": "uint256",
                    "name": "balanceRef",
                    "type": "uint256"
                },
                {
                    "internalType": "uint256",
                    "name": "totalRef",
                    "type": "uint256"
                },
                {
                    "internalType": "uint256",
                    "name": "totalInfinit",
                    "type": "uint256"
                },
                {
                    "internalType": "uint256",
                    "name": "invested",
                    "type": "uint256"
                },
                {
                    "internalType": "uint256",
                    "name": "paidAt",
                    "type": "uint256"
                },
                {
                    "internalType": "uint256",
                    "name": "paidAt2",
                    "type": "uint256"
                },
                {
                    "internalType": "uint256",
                    "name": "withdrawn",
                    "type": "uint256"
                },
                {
                    "internalType": "uint256",
                    "name": "directos",
                    "type": "uint256"
                },
                {
                    "internalType": "string",
                    "name": "data",
                    "type": "string"
                },
                {
                    "internalType": "uint256",
                    "name": "blokesDirectos",
                    "type": "uint256"
                }
            ],
            "stateMutability": "view",
            "type": "function"
        },
        {
            "inputs": [],
            "name": "lastUserId",
            "outputs": [
                {
                    "internalType": "uint256",
                    "name": "",
                    "type": "uint256"
                }
            ],
            "stateMutability": "view",
            "type": "function"
        },
        {
            "inputs": [
                {
                    "internalType": "address payable",
                    "name": "_newadmin",
                    "type": "address"
                }
            ],
            "name": "makeNewAdmin",
            "outputs": [],
            "stateMutability": "nonpayable",
            "type": "function"
        },
        {
            "inputs": [
                {
                    "internalType": "address payable",
                    "name": "_oldadmin",
                    "type": "address"
                }
            ],
            "name": "makeRemoveAdmin",
            "outputs": [],
            "stateMutability": "nonpayable",
            "type": "function"
        },
        {
            "inputs": [],
            "name": "newRecompensa",
            "outputs": [],
            "stateMutability": "nonpayable",
            "type": "function"
        },
        {
            "inputs": [],
            "name": "onOffWitdrawl",
            "outputs": [
                {
                    "internalType": "bool",
                    "name": "",
                    "type": "bool"
                }
            ],
            "stateMutability": "view",
            "type": "function"
        },
        {
            "inputs": [],
            "name": "owner",
            "outputs": [
                {
                    "internalType": "address payable",
                    "name": "",
                    "type": "address"
                }
            ],
            "stateMutability": "view",
            "type": "function"
        },
        {
            "inputs": [
                {
                    "internalType": "address",
                    "name": "",
                    "type": "address"
                }
            ],
            "name": "padre",
            "outputs": [
                {
                    "internalType": "address",
                    "name": "",
                    "type": "address"
                }
            ],
            "stateMutability": "view",
            "type": "function"
        },
        {
            "inputs": [],
            "name": "personas",
            "outputs": [
                {
                    "internalType": "uint256",
                    "name": "",
                    "type": "uint256"
                }
            ],
            "stateMutability": "view",
            "type": "function"
        },
        {
            "inputs": [],
            "name": "porcent",
            "outputs": [
                {
                    "internalType": "uint256",
                    "name": "",
                    "type": "uint256"
                }
            ],
            "stateMutability": "view",
            "type": "function"
        },
        {
            "inputs": [
                {
                    "internalType": "uint256",
                    "name": "",
                    "type": "uint256"
                }
            ],
            "name": "porcientos",
            "outputs": [
                {
                    "internalType": "uint256",
                    "name": "",
                    "type": "uint256"
                }
            ],
            "stateMutability": "view",
            "type": "function"
        },
        {
            "inputs": [],
            "name": "precioRegistro",
            "outputs": [
                {
                    "internalType": "uint256",
                    "name": "",
                    "type": "uint256"
                }
            ],
            "stateMutability": "view",
            "type": "function"
        },
        {
            "inputs": [
                {
                    "internalType": "uint256",
                    "name": "",
                    "type": "uint256"
                }
            ],
            "name": "primervez",
            "outputs": [
                {
                    "internalType": "uint256",
                    "name": "",
                    "type": "uint256"
                }
            ],
            "stateMutability": "view",
            "type": "function"
        },
        {
            "inputs": [
                {
                    "internalType": "uint256",
                    "name": "",
                    "type": "uint256"
                }
            ],
            "name": "puntosRango",
            "outputs": [
                {
                    "internalType": "uint256",
                    "name": "",
                    "type": "uint256"
                }
            ],
            "stateMutability": "view",
            "type": "function"
        },
        {
            "inputs": [
                {
                    "internalType": "address",
                    "name": "",
                    "type": "address"
                },
                {
                    "internalType": "uint256",
                    "name": "",
                    "type": "uint256"
                }
            ],
            "name": "rangoReclamado",
            "outputs": [
                {
                    "internalType": "bool",
                    "name": "",
                    "type": "bool"
                }
            ],
            "stateMutability": "view",
            "type": "function"
        },
        {
            "inputs": [],
            "name": "redimBNB",
            "outputs": [
                {
                    "internalType": "uint256",
                    "name": "",
                    "type": "uint256"
                }
            ],
            "stateMutability": "nonpayable",
            "type": "function"
        },
        {
            "inputs": [
                {
                    "internalType": "uint256",
                    "name": "_value",
                    "type": "uint256"
                }
            ],
            "name": "redimTokenPrincipal02",
            "outputs": [
                {
                    "internalType": "uint256",
                    "name": "",
                    "type": "uint256"
                }
            ],
            "stateMutability": "nonpayable",
            "type": "function"
        },
        {
            "inputs": [
                {
                    "internalType": "address",
                    "name": "_sponsor",
                    "type": "address"
                },
                {
                    "internalType": "string",
                    "name": "_datos",
                    "type": "string"
                }
            ],
            "name": "registro",
            "outputs": [],
            "stateMutability": "nonpayable",
            "type": "function"
        },
        {
            "inputs": [
                {
                    "internalType": "uint256",
                    "name": "_descuento",
                    "type": "uint256"
                }
            ],
            "name": "setDescuento",
            "outputs": [
                {
                    "internalType": "bool",
                    "name": "",
                    "type": "bool"
                }
            ],
            "stateMutability": "nonpayable",
            "type": "function"
        },
        {
            "inputs": [
                {
                    "internalType": "uint256",
                    "name": "_numerodeinverionessinganancia",
                    "type": "uint256"
                }
            ],
            "name": "setInversiones",
            "outputs": [
                {
                    "internalType": "uint256",
                    "name": "",
                    "type": "uint256"
                }
            ],
            "stateMutability": "nonpayable",
            "type": "function"
        },
        {
            "inputs": [
                {
                    "internalType": "uint256",
                    "name": "_min",
                    "type": "uint256"
                }
            ],
            "name": "setMIN_RETIRO",
            "outputs": [
                {
                    "internalType": "uint256",
                    "name": "",
                    "type": "uint256"
                }
            ],
            "stateMutability": "nonpayable",
            "type": "function"
        },
        {
            "inputs": [
                {
                    "internalType": "uint256",
                    "name": "_nivel",
                    "type": "uint256"
                },
                {
                    "internalType": "uint256",
                    "name": "_value",
                    "type": "uint256"
                }
            ],
            "name": "setPorcientos",
            "outputs": [
                {
                    "internalType": "uint256[]",
                    "name": "",
                    "type": "uint256[]"
                }
            ],
            "stateMutability": "nonpayable",
            "type": "function"
        },
        {
            "inputs": [
                {
                    "internalType": "uint256",
                    "name": "_nivel",
                    "type": "uint256"
                },
                {
                    "internalType": "uint256",
                    "name": "_value",
                    "type": "uint256"
                }
            ],
            "name": "setPorcientosSalida",
            "outputs": [
                {
                    "internalType": "uint256[]",
                    "name": "",
                    "type": "uint256[]"
                }
            ],
            "stateMutability": "nonpayable",
            "type": "function"
        },
        {
            "inputs": [
                {
                    "internalType": "uint256",
                    "name": "_precio",
                    "type": "uint256"
                }
            ],
            "name": "setPrecioRegistro",
            "outputs": [
                {
                    "internalType": "bool",
                    "name": "",
                    "type": "bool"
                }
            ],
            "stateMutability": "nonpayable",
            "type": "function"
        },
        {
            "inputs": [
                {
                    "internalType": "uint256",
                    "name": "_value",
                    "type": "uint256"
                }
            ],
            "name": "setPriceBlock",
            "outputs": [
                {
                    "internalType": "bool",
                    "name": "",
                    "type": "bool"
                }
            ],
            "stateMutability": "nonpayable",
            "type": "function"
        },
        {
            "inputs": [
                {
                    "internalType": "uint256",
                    "name": "_nivel",
                    "type": "uint256"
                },
                {
                    "internalType": "uint256",
                    "name": "_value",
                    "type": "uint256"
                }
            ],
            "name": "setPrimeravezPorcientos",
            "outputs": [
                {
                    "internalType": "uint256[]",
                    "name": "",
                    "type": "uint256[]"
                }
            ],
            "stateMutability": "nonpayable",
            "type": "function"
        },
        {
            "inputs": [
                {
                    "internalType": "uint256[]",
                    "name": "_gananciasRango",
                    "type": "uint256[]"
                },
                {
                    "internalType": "uint256[]",
                    "name": "_puntosRango",
                    "type": "uint256[]"
                }
            ],
            "name": "setRangos",
            "outputs": [
                {
                    "internalType": "bool",
                    "name": "",
                    "type": "bool"
                }
            ],
            "stateMutability": "nonpayable",
            "type": "function"
        },
        {
            "inputs": [
                {
                    "internalType": "uint256",
                    "name": "_porcentaje",
                    "type": "uint256"
                }
            ],
            "name": "setRetorno",
            "outputs": [
                {
                    "internalType": "uint256",
                    "name": "",
                    "type": "uint256"
                }
            ],
            "stateMutability": "nonpayable",
            "type": "function"
        },
        {
            "inputs": [
                {
                    "internalType": "uint256",
                    "name": "_dias",
                    "type": "uint256"
                }
            ],
            "name": "setTiempo",
            "outputs": [
                {
                    "internalType": "uint256",
                    "name": "",
                    "type": "uint256"
                }
            ],
            "stateMutability": "nonpayable",
            "type": "function"
        },
        {
            "inputs": [
                {
                    "internalType": "uint256",
                    "name": "_unidades",
                    "type": "uint256"
                }
            ],
            "name": "setTiempoUnidades",
            "outputs": [
                {
                    "internalType": "uint256",
                    "name": "",
                    "type": "uint256"
                }
            ],
            "stateMutability": "nonpayable",
            "type": "function"
        },
        {
            "inputs": [
                {
                    "internalType": "address[]",
                    "name": "_wallet",
                    "type": "address[]"
                },
                {
                    "internalType": "uint256[]",
                    "name": "_fee",
                    "type": "uint256[]"
                },
                {
                    "internalType": "uint256",
                    "name": "_activerFee",
                    "type": "uint256"
                }
            ],
            "name": "setWalletFee",
            "outputs": [
                {
                    "internalType": "bool",
                    "name": "",
                    "type": "bool"
                }
            ],
            "stateMutability": "nonpayable",
            "type": "function"
        },
        {
            "inputs": [
                {
                    "internalType": "address[]",
                    "name": "_wallets",
                    "type": "address[]"
                },
                {
                    "internalType": "uint256[]",
                    "name": "_valores",
                    "type": "uint256[]"
                }
            ],
            "name": "setWalletstransfers",
            "outputs": [
                {
                    "internalType": "bool",
                    "name": "",
                    "type": "bool"
                }
            ],
            "stateMutability": "nonpayable",
            "type": "function"
        },
        {
            "inputs": [],
            "name": "setstate",
            "outputs": [
                {
                    "internalType": "uint256",
                    "name": "Investors",
                    "type": "uint256"
                },
                {
                    "internalType": "uint256",
                    "name": "Invested",
                    "type": "uint256"
                },
                {
                    "internalType": "uint256",
                    "name": "RefRewards",
                    "type": "uint256"
                }
            ],
            "stateMutability": "view",
            "type": "function"
        },
        {
            "inputs": [],
            "name": "tiempo",
            "outputs": [
                {
                    "internalType": "uint256",
                    "name": "",
                    "type": "uint256"
                }
            ],
            "stateMutability": "view",
            "type": "function"
        },
        {
            "inputs": [],
            "name": "tokenPricipal",
            "outputs": [
                {
                    "internalType": "address",
                    "name": "",
                    "type": "address"
                }
            ],
            "stateMutability": "view",
            "type": "function"
        },
        {
            "inputs": [],
            "name": "totalInvested",
            "outputs": [
                {
                    "internalType": "uint256",
                    "name": "",
                    "type": "uint256"
                }
            ],
            "stateMutability": "view",
            "type": "function"
        },
        {
            "inputs": [],
            "name": "totalInvestors",
            "outputs": [
                {
                    "internalType": "uint256",
                    "name": "",
                    "type": "uint256"
                }
            ],
            "stateMutability": "view",
            "type": "function"
        },
        {
            "inputs": [],
            "name": "totalRefRewards",
            "outputs": [
                {
                    "internalType": "uint256",
                    "name": "",
                    "type": "uint256"
                }
            ],
            "stateMutability": "view",
            "type": "function"
        },
        {
            "inputs": [],
            "name": "totalRefWitdrawl",
            "outputs": [
                {
                    "internalType": "uint256",
                    "name": "",
                    "type": "uint256"
                }
            ],
            "stateMutability": "view",
            "type": "function"
        },
        {
            "inputs": [
                {
                    "internalType": "address payable",
                    "name": "newOwner",
                    "type": "address"
                }
            ],
            "name": "transferOwnership",
            "outputs": [],
            "stateMutability": "nonpayable",
            "type": "function"
        },
        {
            "inputs": [],
            "name": "unidades",
            "outputs": [
                {
                    "internalType": "uint256",
                    "name": "",
                    "type": "uint256"
                }
            ],
            "stateMutability": "view",
            "type": "function"
        },
        {
            "inputs": [
                {
                    "internalType": "string",
                    "name": "_datos",
                    "type": "string"
                }
            ],
            "name": "updateData",
            "outputs": [],
            "stateMutability": "nonpayable",
            "type": "function"
        },
        {
            "inputs": [
                {
                    "internalType": "uint256",
                    "name": "",
                    "type": "uint256"
                }
            ],
            "name": "valor",
            "outputs": [
                {
                    "internalType": "uint256",
                    "name": "",
                    "type": "uint256"
                }
            ],
            "stateMutability": "view",
            "type": "function"
        },
        {
            "inputs": [
                {
                    "internalType": "uint256",
                    "name": "",
                    "type": "uint256"
                }
            ],
            "name": "valorFee",
            "outputs": [
                {
                    "internalType": "uint256",
                    "name": "",
                    "type": "uint256"
                }
            ],
            "stateMutability": "view",
            "type": "function"
        },
        {
            "inputs": [
                {
                    "internalType": "uint256",
                    "name": "",
                    "type": "uint256"
                }
            ],
            "name": "wallet",
            "outputs": [
                {
                    "internalType": "address",
                    "name": "",
                    "type": "address"
                }
            ],
            "stateMutability": "view",
            "type": "function"
        },
        {
            "inputs": [
                {
                    "internalType": "uint256",
                    "name": "",
                    "type": "uint256"
                }
            ],
            "name": "walletFee",
            "outputs": [
                {
                    "internalType": "address",
                    "name": "",
                    "type": "address"
                }
            ],
            "stateMutability": "view",
            "type": "function"
        },
        {
            "inputs": [],
            "name": "withdraw",
            "outputs": [],
            "stateMutability": "nonpayable",
            "type": "function"
        },
        {
            "inputs": [],
            "name": "withdraw2",
            "outputs": [],
            "stateMutability": "nonpayable",
            "type": "function"
        },
        {
            "inputs": [],
            "name": "withdrawTeam",
            "outputs": [],
            "stateMutability": "nonpayable",
            "type": "function"
        },
        {
            "inputs": [
                {
                    "internalType": "address",
                    "name": "any_user",
                    "type": "address"
                },
                {
                    "internalType": "bool",
                    "name": "_infinity",
                    "type": "bool"
                }
            ],
            "name": "withdrawable",
            "outputs": [
                {
                    "internalType": "uint256",
                    "name": "",
                    "type": "uint256"
                }
            ],
            "stateMutability": "view",
            "type": "function"
        },
        {
            "inputs": [
                {
                    "internalType": "address",
                    "name": "any_user",
                    "type": "address"
                }
            ],
            "name": "withdrawableRange",
            "outputs": [
                {
                    "internalType": "uint256",
                    "name": "amount",
                    "type": "uint256"
                }
            ],
            "stateMutability": "view",
            "type": "function"
        },
        {
            "stateMutability": "payable",
            "type": "receive"
        }
    ],
    "bytecode": "600280547355d398326f99059ff775485246999027b31979556001600160a01b031991821681179092556003805482168317905567d02ab486cedc00006004556802b5e3af16b18800006005908155600680549092169092179055600160075561012060405260326080908152601e60a052601460c052600a60e0819052610100526200009091600891906200047a565b506040805160a08101825260328152601e6020820152601491810191909152600a606082018190526080820152620000cd9060099060056200047a565b506040805160a08101825260058082526003602083015260029282019290925260016060820181905260808201526200010a91600a91906200047a565b5060408051610100810182526828a857425466f800008152685150ae84a8cdf00000602082015268cb49b44ba602d80000918101919091526901969368974c05b00000606082015269032d26d12e980b6000006080820152690a968163f0a57b40000060a0820152691fc3842bd1f071c0000060c08201526934f086f3b33b6840000060e0820152620001a290600b906008620004cf565b5060408051610100810182526103e881526107d06020820152611388918101919091526127106060820152614e206080820152620186a060a0820152620493e060c08201526207a12060e08201526200020090600c90600862000518565b50600d805460ff1916600190811790915561016d600e55610384600f556201518060105560f06011556064601255600260138190556014829055601e9190915560408051808201909152734490566647735e8cbce0ce96efc8fb91c164859b815273981374de858078c0be8c0bb51c4cdce6393a740560208201526200028a91601f91906200055d565b506040805180820190915260058152605f602080830191909152620002b19160026200047a565b506801a055690d9db800006021556002602255604080516060810182527317a7e5b2d9b5d191f7307e990e630c9dc18e1396815273afe9d039ec7d4409b1b8c2f1556f20843079b7286020820152738dd59f5670e9809c8a800a49d1ff1cea471c53da918101919091526200032b9060239060036200055d565b506040805160608101825260468152600860208201526005918101919091526200035a9060249060036200047a565b503480156200036857600080fd5b50600080546001600160a01b0319163390811782558152600160208181526040808420805460ff19908116851790915584546001600160a01b0316855260189092529092208054909216178155601054600e54620003c7919062000684565b620003db90670de0b6b3a764000062000684565b620003e79042620006a6565b60018201556040805160a081018252600080825260208083018290528284018290526060830182905260808301829052338252601d9052919091206200042f916005620005b5565b50507f584f46c60af19681376031579adb04a2416e54ee5505351c2a8435e3766026ea80546001600160a01b031916339081179091556000908152601c6020526040812055620006c1565b828054828255906000526020600020908101928215620004bd579160200282015b82811115620004bd578251829060ff169055916020019190600101906200049b565b50620004cb92915062000657565b5090565b828054828255906000526020600020908101928215620004bd579160200282015b82811115620004bd57825182906001600160501b0316905591602001919060010190620004f0565b828054828255906000526020600020908101928215620004bd579160200282015b82811115620004bd578251829062ffffff1690559160200191906001019062000539565b828054828255906000526020600020908101928215620004bd579160200282015b82811115620004bd57825182546001600160a01b0319166001600160a01b039091161782556020909201916001909101906200057e565b82805482825590600052602060002090601f01602090048101928215620004bd5791602002820160005b838211156200061e57835183826101000a81548160ff0219169083151502179055509260200192600101602081600001049283019260010302620005df565b80156200064d5782816101000a81549060ff02191690556001016020816000010492830192600103026200061e565b5050620004cb9291505b5b80821115620004cb576000815560010162000658565b634e487b7160e01b600052601160045260246000fd5b6000816000190483118215151615620006a157620006a16200066e565b500290565b60008219821115620006bc57620006bc6200066e565b500190565b61432480620006d16000396000f3fe60806040526004361061041b5760003560e01c80637b0412ed1161021c578063b17b6e4411610122578063cb0e0d7d116100b0578063ea98847b11610077578063ea98847b14610d16578063edf5eb1d14610d2b578063f2fde38b14610d4b578063f90b3f5a14610d6b578063fd14d59814610d8b57005b8063cb0e0d7d14610c79578063cc759ba214610ca6578063db3be1a214610cbc578063e04fe66514610cdc578063e7348e8c14610cfc57005b8063bb51f32d116100f4578063bb51f32d14610c02578063bd9bee1914610c17578063bfe0e02014610c2d578063c17dbdf914610c43578063c40d5dbc14610c6357005b8063b17b6e4414610b6c578063b35f0a8f14610b8c578063b3d9fa0914610bc2578063b85ea33514610be257005b80638f9ef8c1116101aa578063a77d211911610171578063a77d211914610ae0578063a8beb71714610af6578063aaa749c514610b16578063ab6db19914610b36578063b139042614610b4c57005b80638f9ef8c114610a3a57806398c07d0a14610a5a5780639b8ff50314610a7a578063a278133514610a90578063a365528b14610ab057005b806381032892116101ee5780638103289214610989578063815374ca146109a957806385338e20146109c957806389b2521c146109fa5780638da5cb5b14610a1a57005b80637b0412ed146109105780637db9e9c6146109265780637faee0471461093c5780637fcc1e361461095c57005b80634de1be621161032157806367f74aab116102af5780636f7bc9be116102765780636f7bc9be1461085857806370a0966b146108905780637251b9ac146108b0578063725fc270146108d05780637367b080146108f057005b806367f74aab146107cd57806368446ead146107ed57806369ed1e0a1461080d57806369f4a84b1461082d5780636c5292791461084257005b806354822522116102f3578063548225221461071d5780635d216c601461073d578063625509161461075d57806363a846f81461077d5780636589fa8a146107ad57005b80634de1be62146106b257806350188c08146106d257806350da983f146106e75780635216aeec1461070757005b806329b8caff116103a9578063339640b511610370578063339640b51461063b578063348d44871461065b5780633ccfd60b146106715780634728f718146106865780634b9b82031461069c57005b806329b8caff1461057757806329e1a2431461058d5780632a2d0c47146105ad5780632acc8210146105fb5780632e8a03cf1461061b57005b80631e403c35116103ed5780631e403c35146104d457806321309f211461050157806324de19f2146105215780632748d29b1461053757806328cca7191461055757005b80631053abb1146104245780631140e85b1461045957806315e8392b146104875780631ce7f99b146104b457005b3661042257005b005b34801561043057600080fd5b5061044461043f366004613a6b565b610da0565b60405190151581526020015b60405180910390f35b34801561046557600080fd5b50610479610474366004613aa4565b610f4f565b604051908152602001610450565b34801561049357600080fd5b506104a76104a2366004613abd565b611067565b6040516104509190613ae9565b3480156104c057600080fd5b506104a76104cf366004613c13565b6110fc565b3480156104e057600080fd5b506104f46104ef366004613c47565b6111ba565b6040516104509190613ca4565b34801561050d57600080fd5b5061047961051c366004613aa4565b611258565b34801561052d57600080fd5b5061047960055481565b34801561054357600080fd5b50610479610552366004613aa4565b611279565b34801561056357600080fd5b50610479610572366004613aa4565b6112a3565b34801561058357600080fd5b5061047960145481565b34801561059957600080fd5b506104796105a8366004613aa4565b6112b3565b3480156105b957600080fd5b506105e36105c8366004613aa4565b601b602052600090815260409020546001600160a01b031681565b6040516001600160a01b039091168152602001610450565b34801561060757600080fd5b50610444610616366004613abd565b6112c3565b34801561062757600080fd5b50610444610636366004613aa4565b611306565b34801561064757600080fd5b506105e3610656366004613abd565b611330565b34801561066757600080fd5b50610479601e5481565b34801561067d57600080fd5b50610422611368565b34801561069257600080fd5b5061047960115481565b3480156106a857600080fd5b5061047960105481565b3480156106be57600080fd5b506104796106cd366004613aa4565b6114fc565b3480156106de57600080fd5b50610479611526565b3480156106f357600080fd5b50610444610702366004613cb7565b611544565b34801561071357600080fd5b5061047960155481565b34801561072957600080fd5b506104f4610738366004613c47565b611598565b34801561074957600080fd5b506104f4610758366004613c47565b611634565b34801561076957600080fd5b50610479610778366004613aa4565b6116d0565b34801561078957600080fd5b50610444610798366004613cb7565b60016020526000908152604090205460ff1681565b3480156107b957600080fd5b506104796107c8366004613aa4565b6116e0565b3480156107d957600080fd5b506104446107e8366004613ce2565b611705565b3480156107f957600080fd5b50610422610808366004613d93565b611859565b34801561081957600080fd5b50610422610828366004613cb7565b611885565b34801561083957600080fd5b5061042261190f565b34801561084e57600080fd5b5061047960045481565b34801561086457600080fd5b50610878610873366004613cb7565b611c6a565b6040516104509c9b9a99989796959493929190613dc7565b34801561089c57600080fd5b506104226108ab366004613cb7565b611d57565b3480156108bc57600080fd5b506105e36108cb366004613aa4565b611ddf565b3480156108dc57600080fd5b506104796108eb366004613aa4565b611e09565b3480156108fc57600080fd5b506104f461090b366004613ed4565b611e19565b34801561091c57600080fd5b5061047960125481565b34801561093257600080fd5b5061047960215481565b34801561094857600080fd5b506104a7610957366004613c13565b611ec3565b34801561096857600080fd5b5061097c610977366004613f08565b611fe0565b6040516104509190613fd3565b34801561099557600080fd5b506104796109a4366004613aa4565b61208f565b3480156109b557600080fd5b506104a76109c4366004613cb7565b61209f565b3480156109d557600080fd5b5060145460155460165460408051938452602084019290925290820152606001610450565b348015610a0657600080fd5b50610479610a15366004613fe6565b612156565b348015610a2657600080fd5b506000546105e3906001600160a01b031681565b348015610a4657600080fd5b50610422610a55366004614014565b612177565b348015610a6657600080fd5b50610479610a75366004613cb7565b6125c8565b348015610a8657600080fd5b5061047960175481565b348015610a9c57600080fd5b506105e3610aab366004613aa4565b61283e565b348015610abc57600080fd5b50610ad0610acb366004613fe6565b61284e565b6040516104509493929190614063565b348015610aec57600080fd5b5061047960075481565b348015610b0257600080fd5b50610444610b113660046140ae565b612a59565b348015610b2257600080fd5b50610444610b31366004613aa4565b612aab565b348015610b4257600080fd5b50610479600f5481565b348015610b5857600080fd5b506006546105e3906001600160a01b031681565b348015610b7857600080fd5b50610444610b87366004614107565b612ad5565b348015610b9857600080fd5b506105e3610ba7366004613cb7565b6019602052600090815260409020546001600160a01b031681565b348015610bce57600080fd5b50610444610bdd366004613aa4565b612b03565b348015610bee57600080fd5b50610479610bfd366004613aa4565b612b2d565b348015610c0e57600080fd5b50610422612b57565b348015610c2357600080fd5b5061047960225481565b348015610c3957600080fd5b5061047960165481565b348015610c4f57600080fd5b50610422610c5e366004613aa4565b612d10565b348015610c6f57600080fd5b50610479600e5481565b348015610c8557600080fd5b50610479610c94366004613cb7565b601c6020526000908152604090205481565b348015610cb257600080fd5b5061047960135481565b348015610cc857600080fd5b50610444610cd7366004614124565b6132b5565b348015610ce857600080fd5b50610444610cf7366004614190565b613309565b348015610d0857600080fd5b50600d546104449060ff1681565b348015610d2257600080fd5b50610422613351565b348015610d3757600080fd5b50610479610d46366004613aa4565b6134d6565b348015610d5757600080fd5b50610422610d66366004613cb7565b6134e6565b348015610d7757600080fd5b50610479610d86366004613aa4565b613574565b348015610d9757600080fd5b50610479613599565b3360009081526001602052604081205460ff16610dbc57600080fd5b6001600160a01b0383166000908152601860205260409020805460ff16610f1e57805460ff19166001178155601054600e54610df891906141dc565b610e0290426141fb565b60018201556001600160a01b03848116600090815260196020526040902080546001600160a01b031916918516918217905515610e69576001600160a01b03831660009081526018602052604081206009810180549192610e6283614213565b9190505550505b60148054906000610e7983614213565b90915550506040805160a0810182526000808252602080830182905282840182905260608301829052608083018290526001600160a01b0388168252601d905291909120610ec8916005613896565b50601e80546000908152601b6020908152604080832080546001600160a01b0319166001600160a01b038a169081179091558454908452601c90925282208190559190610f1483614213565b9190505550610f43565b601054600e54610f2e91906141dc565b8160010154610f3d91906141fb565b60018201555b60019150505b92915050565b600080546001600160a01b0316336001600160a01b031614610f7057600080fd5b6003546040516370a0823160e01b815230600482015283916001600160a01b0316906370a0823190602401602060405180830381865afa158015610fb8573d6000803e3d6000fd5b505050506040513d601f19601f82011682018060405250810190610fdc919061422e565b1015610fe757600080fd5b60035460005460405163a9059cbb60e01b81526001600160a01b0391821660048201526024810185905291169063a9059cbb906044016020604051808303816000875af115801561103c573d6000803e3d6000fd5b505050506040513d601f19601f820116820180604052508101906110609190614247565b5090919050565b60608060005b838110156110f45761107e826110fc565b6001600160a01b03808716600090815260196020526040902054825192945016908390839081106110b1576110b1614264565b6001600160a01b039283166020918202929092018101919091529581166000908152601990965260409095205490941693806110ec81614213565b91505061106d565b509392505050565b606060008251600161110e91906141fb565b6001600160401b0381111561112557611125613b36565b60405190808252806020026020018201604052801561114e578160200160208202803683370190505b50905060005b83518110156111b35783818151811061116f5761116f614264565b602002602001015182828151811061118957611189614264565b6001600160a01b0390921660209283029190910190910152806111ab81614213565b915050611154565b5092915050565b6000546060906001600160a01b0316336001600160a01b0316146111dd57600080fd5b81600984815481106111f1576111f1614264565b9060005260206000200181905550600980548060200260200160405190810160405280929190818152602001828054801561124b57602002820191906000526020600020905b815481526020019060010190808311611237575b5050505050905092915050565b600c818154811061126857600080fd5b600091825260209091200154905081565b600080546001600160a01b0316336001600160a01b03161461129a57600080fd5b50601081905590565b6009818154811061126857600080fd5b6020818154811061126857600080fd5b601d60205281600052604060002081815481106112df57600080fd5b9060005260206000209060209182820401919006915091509054906101000a900460ff1681565b600080546001600160a01b0316336001600160a01b03161461132757600080fd5b50600555600190565b601a602052816000526040600020818154811061134c57600080fd5b6000918252602090912001546001600160a01b03169150829050565b600d5460ff1661137757600080fd5b33600081815260186020526040812091611392906000612156565b6003546040516370a0823160e01b815230600482015291925082916001600160a01b03909116906370a0823190602401602060405180830381865afa1580156113df573d6000803e3d6000fd5b505050506040513d601f19601f82011682018060405250810190611403919061422e565b101561140e57600080fd5b60045481101561141d57600080fd5b6003546001600160a01b031663a9059cbb3361144f6064611449601254876135fb90919063ffffffff16565b90613634565b6040516001600160e01b031960e085901b1681526001600160a01b03909216600483015260248201526044016020604051808303816000875af115801561149a573d6000803e3d6000fd5b505050506040513d601f19601f820116820180604052508101906114be9190614247565b50808260080160008282546114d391906141fb565b9091555050426006830155601780548291906000906114f39084906141fb565b90915550505050565b600080546001600160a01b0316336001600160a01b03161461151d57600080fd5b50600481905590565b600061153f601054600f546135fb90919063ffffffff16565b905090565b600080546001600160a01b0316336001600160a01b03161461156557600080fd5b50600380546001600160a01b0383166001600160a01b031991821681179092556006805490911690911790556001919050565b6000546060906001600160a01b0316336001600160a01b0316146115bb57600080fd5b81600884815481106115cf576115cf614264565b9060005260206000200181905550600880548060200260200160405190810160405280929190818152602001828054801561124b5760200282019190600052602060002090815481526020019060010190808311611237575050505050905092915050565b6000546060906001600160a01b0316336001600160a01b03161461165757600080fd5b81600a848154811061166b5761166b614264565b9060005260206000200181905550600a80548060200260200160405190810160405280929190818152602001828054801561124b5760200282019190600052602060002090815481526020019060010190808311611237575050505050905092915050565b6024818154811061126857600080fd5b3360009081526001602052604081205460ff166116fc57600080fd5b50601181905590565b3360009081526001602052604081205460ff1661172157600080fd5b600083116117765760405162461bcd60e51b815260206004820152601e60248201527f63616e7469646164206d696e696d6120646520626c6f6b65732065732031000060448201526064015b60405180910390fd5b6001600160a01b0384166000908152601860205260409020805460ff1661179c57600080fd5b6000846005546117ac91906141dc565b905081600b0160405180608001604052804281526020016117dd6064611449601154876135fb90919063ffffffff16565b81526020016117fc6064611449601154876135fb90919063ffffffff16565b81529515156020968701528154600180820184556000938452928790208251600490920201908155958101518683015560408101516002870155606001516003909501805460ff1916951515959095179094555091949350505050565b3360009081526018602090815260409091208251909161188091600a84019185019061393b565b505050565b3360009081526001602052604090205460ff166118a157600080fd5b6001600160a01b0381166118b457600080fd5b6040516001600160a01b038216907f71614071b88dee5e0b2ae578a9dd7b2ebbe9ae832ba419dc0242cd065a290b6c90600090a26001600160a01b03166000908152600160208190526040909120805460ff19169091179055565b600d5460ff1661191e57600080fd5b6000611929336125c8565b90506000811161193857600080fd5b33600090815260186020908152604080832081516101a081018352815460ff16151581526001820154938101939093526002810154918301919091526003810154606083015260048101546080830152600581015460a0830152600681015460c0830152600781015460e083015260088101546101008301526009810154610120830152600a81018054610140840191906119d29061427a565b80601f01602080910402602001604051908101604052809291908181526020018280546119fe9061427a565b8015611a4b5780601f10611a2057610100808354040283529160200191611a4b565b820191906000526020600020905b815481529060010190602001808311611a2e57829003601f168201915b50505050508152602001600b8201805480602002602001604051908101604052809291908181526020016000905b82821015611ad2576000848152602090819020604080516080810182526004860290920180548352600180820154848601526002820154928401929092526003015460ff16151560608301529083529092019101611a79565b505050508152602001600c82015481525050905060005b600b5481101561188057600c8181548110611b0657611b06614264565b906000526020600020015482610180015110158015611b635750336000908152601d60205260409020805482908110611b4157611b41614264565b90600052602060002090602091828204019190069054906101000a900460ff16155b15611c58576003546001600160a01b031663a9059cbb33600b8481548110611b8d57611b8d614264565b6000918252602090912001546040516001600160e01b031960e085901b1681526001600160a01b03909216600483015260248201526044016020604051808303816000875af1158015611be4573d6000803e3d6000fd5b505050506040513d601f19601f82011682018060405250810190611c089190614247565b50336000908152601d6020526040902080546001919083908110611c2e57611c2e614264565b90600052602060002090602091828204019190066101000a81548160ff0219169083151502179055505b80611c6281614213565b915050611ae9565b601860205260009081526040902080546001820154600283015460038401546004850154600586015460068701546007880154600889015460098a0154600a8b01805460ff909b169b999a98999798969795969495939492939192611cce9061427a565b80601f0160208091040260200160405190810160405280929190818152602001828054611cfa9061427a565b8015611d475780601f10611d1c57610100808354040283529160200191611d47565b820191906000526020600020905b815481529060010190602001808311611d2a57829003601f168201915b50505050509080600c015490508c565b6000546001600160a01b0316336001600160a01b031614611d7757600080fd5b6001600160a01b038116611d8a57600080fd5b6040516001600160a01b038216907fa3b62bc36326052d97ea62d63c3d60308ed4c3ea8ac079dd8499f1e9c4f80c0f90600090a26001600160a01b03166000908152600160205260409020805460ff19169055565b601f8181548110611def57600080fd5b6000918252602090912001546001600160a01b0316905081565b6008818154811061126857600080fd5b6060600082516001611e2b91906141fb565b6001600160401b03811115611e4257611e42613b36565b604051908082528060200260200182016040528015611e6b578160200160208202803683370190505b50905060005b83518110156111b357838181518110611e8c57611e8c614264565b6020026020010151828281518110611ea657611ea6614264565b602090810291909101015280611ebb81614213565b915050611e71565b60606000805b8351811015611fd85760186000858381518110611ee857611ee8614264565b60200260200101516001600160a01b03166001600160a01b0316815260200190815260200160002091506000805b8551811015611f6957858181518110611f3157611f31614264565b60200260200101516001600160a01b0316826001600160a01b03161415611f5757600091505b80611f6181614213565b915050611f16565b506001600160a01b03811615611fc557611f82856110fc565b9450808560018751611f9491906142b5565b81518110611fa457611fa4614264565b60200260200101906001600160a01b031690816001600160a01b0316815250505b5080611fd081614213565b915050611ec9565b509192915050565b6060600082516001611ff291906141fb565b6001600160401b0381111561200957612009613b36565b604051908082528060200260200182016040528015612032578160200160208202803683370190505b50905060005b83518110156111b35783818151811061205357612053614264565b602002602001015182828151811061206d5761206d614264565b911515602092830291909101909101528061208781614213565b915050612038565b600b818154811061126857600080fd5b60608060005b6001600160a01b0384166000908152601a60205260409020548110156111b3576120ce826110fc565b6001600160a01b0385166000908152601a60205260409020805491935090829081106120fc576120fc614264565b9060005260206000200160009054906101000a90046001600160a01b031682828151811061212c5761212c614264565b6001600160a01b03909216602092830291909101909101528061214e81614213565b9150506120a5565b600060608060606000612169878761284e565b9a9950505050505050505050565b3360009081526018602052604090206001600160a01b0383166121ea5760405162461bcd60e51b815260206004820152602560248201527f64656265732074656e657220726566657269646f207061726120726567697374604482015264726172746560d81b606482015260840161176d565b60215415612313576021546003546001600160a01b031663dd62ed3e336040516001600160e01b031960e084901b1681526001600160a01b039091166004820152306024820152604401602060405180830381865afa158015612251573d6000803e3d6000fd5b505050506040513d601f19601f82011682018060405250810190612275919061422e565b101561228057600080fd5b6003546001600160a01b03166323b872dd336021546040516001600160e01b031960e085901b1681526001600160a01b03909216600483015230602483015260448201526064016020604051808303816000875af11580156122e6573d6000803e3d6000fd5b505050506040513d601f19601f8201168201806040525081019061230a9190614247565b61231357600080fd5b60026022541061242d5760005b601f5481101561242b57600354601f80546001600160a01b039092169163a9059cbb91908490811061235457612354614264565b9060005260206000200160009054906101000a90046001600160a01b03166123a960646114496020878154811061238d5761238d614264565b90600052602060002001546021546135fb90919063ffffffff16565b6040516001600160e01b031960e085901b1681526001600160a01b03909216600483015260248201526044016020604051808303816000875af11580156123f4573d6000803e3d6000fd5b505050506040513d601f19601f820116820180604052508101906124189190614247565b508061242381614213565b915050612320565b505b805460ff1661258857805460ff19166001178155601054600e5461245191906141dc565b61245b90426141fb565b600182015533600090815260196020908152604080832080546001600160a01b0319166001600160a01b03881690811790915583526018909152812060098101805491926124a883614213565b90915550506001600160a01b0384166000908152601a60209081526040822080546001810182559083529082200180546001600160a01b0319163317905560148054916124f483614213565b90915550506040805160a081018252600080825260208083018290528284018290526060830182905260808301829052338252601d90529190912061253a916005613896565b50601e80546000908152601b6020908152604080832080546001600160a01b031916339081179091558454908452601c9092528220819055919061257d83614213565b9190505550506125ad565b601054600e5461259891906141dc565b81600101546125a791906141fb565b60018201555b81516125c290600a830190602085019061393b565b50505050565b6001600160a01b038116600090815260186020908152604080832081516101a081018352815460ff16151581526001820154938101939093526002810154918301919091526003810154606083015260048101546080830152600581015460a0830152600681015460c0830152600781015460e083015260088101546101008301526009810154610120830152600a810180548493929161014084019161266e9061427a565b80601f016020809104026020016040519081016040528092919081815260200182805461269a9061427a565b80156126e75780601f106126bc576101008083540402835291602001916126e7565b820191906000526020600020905b8154815290600101906020018083116126ca57829003601f168201915b50505050508152602001600b8201805480602002602001604051908101604052809291908181526020016000905b8282101561276e576000848152602090819020604080516080810182526004860290920180548352600180820154848601526002820154928401929092526003015460ff16151560608301529083529092019101612715565b505050508152602001600c82015481525050905060005b600b5481101561283757600c81815481106127a2576127a2614264565b9060005260206000200154826101800151101580156127ff5750336000908152601d602052604090208054829081106127dd576127dd614264565b90600052602060002090602091828204019190069054906101000a900460ff16155b1561282557600b818154811061281757612817614264565b906000526020600020015492505b8061282f81614213565b915050612785565b5050919050565b60238181548110611def57600080fd5b6001600160a01b038216600090815260186020526040812060609182918291908183808083808080805b600b8a0154811015612a415789600b01818154811061289957612899614264565b6000918252602090912060036004909202019081015490995060ff1615158f15151415612a2f576128c988611e19565b97506128d487611e19565b96506128df86611fe0565b9550886000015487600189516128f591906142b5565b8151811061290557612905614264565b602002602001018181525050612919611526565b895461292591906141fb565b93508342116129345742612936565b835b60038a015490925060ff161561296657885460078b01541161295957885461295f565b89600701545b9250612982565b885460068b01541161297957885461297f565b89600601545b92505b821580159061299057508183105b156129fe5761299d611526565b6129a784846142b5565b8a600201546129b691906141dc565b6129c091906142cc565b6129ca90866141fb565b9450600186600188516129dd91906142b5565b815181106129ed576129ed614264565b911515602092830291909101909101525b88600201548860018a51612a1291906142b5565b81518110612a2257612a22614264565b6020026020010181815250505b80612a3981614213565b915050612878565b50959e949d50929b5090995091975050505050505050565b600080546001600160a01b0316336001600160a01b031614612a7a57600080fd5b8251612a8d9060239060208601906139af565b508151612aa1906024906020850190613a04565b5060019392505050565b600080546001600160a01b0316336001600160a01b031614612acc57600080fd5b50602155600190565b3360009081526001602052604081205460ff16612af157600080fd5b50600d805460ff191682151517905590565b600080546001600160a01b0316336001600160a01b031614612b2457600080fd5b50601255600190565b600080546001600160a01b0316336001600160a01b031614612b4e57600080fd5b50600781905590565b600d5460ff16612b6657600080fd5b6000601881336001600160a01b03908116825260208201929092526040908101600020600281015460035492516370a0823160e01b815230600482015291945092839216906370a0823190602401602060405180830381865afa158015612bd1573d6000803e3d6000fd5b505050506040513d601f19601f82011682018060405250810190612bf5919061422e565b1015612c5a5760405162461bcd60e51b815260206004820152602e60248201527f6e6f206861792073616c646f20656e20656c20636f6e747261746f207061726160448201526d20686163657220656c207061676f60901b606482015260840161176d565b600454811015612c6957600080fd5b6003546001600160a01b031663a9059cbb33612c956064611449601254876135fb90919063ffffffff16565b6040516001600160e01b031960e085901b1681526001600160a01b03909216600483015260248201526044016020604051808303816000875af1158015612ce0573d6000803e3d6000fd5b505050506040513d601f19601f82011682018060405250810190612d049190614247565b50506000600290910155565b60008111612d605760405162461bcd60e51b815260206004820152601e60248201527f63616e7469646164206d696e696d6120646520626c6f6b657320657320310000604482015260640161176d565b336000908152601860205260409020805460ff16612db55760405162461bcd60e51b81526020600482015260126024820152716e6f2065737461207265676973747261646f60701b604482015260640161176d565b80600101544210612dfe5760405162461bcd60e51b815260206004820152601360248201527206e6f207469656e65206d656d6265727368697606c1b604482015260640161176d565b600082600554612e0e91906141dc565b60035490915081906001600160a01b031663dd62ed3e336040516001600160e01b031960e084901b1681526001600160a01b039091166004820152306024820152604401602060405180830381865afa158015612e6f573d6000803e3d6000fd5b505050506040513d601f19601f82011682018060405250810190612e93919061422e565b1015612ee15760405162461bcd60e51b815260206004820152601b60248201527f73616c646f206170726f7661646f20696e737566696369656e74650000000000604482015260640161176d565b6003546001600160a01b03166323b872dd336040516001600160e01b031960e084901b1681526001600160a01b039091166004820152306024820152604481018490526064016020604051808303816000875af1158015612f46573d6000803e3d6000fd5b505050506040513d601f19601f82011682018060405250810190612f6a9190614247565b612fad5760405162461bcd60e51b81526020600482015260146024820152737472616e666572656e6369612066616c6c69646160601b604482015260640161176d565b336000908152601960205260409020546001600160a01b0316156130d357600754600b8301541015613039576130343382600880548060200260200160405190810160405280929190818152602001828054801561302a57602002820191906000526020600020905b815481526020019060010190808311613016575b5050505050613656565b613092565b6130923382600980548060200260200160405190810160405280929190818152602001828054801561302a5760200282019190600052602060002090815481526020019060010190808311613016575050505050613656565b336000908152601960209081526040808320546001600160a01b0316835260189091528120600c81018054919286926130cc9084906141fb565b9091555050505b81600b0160405180608001604052804281526020016131026064611449601154876135fb90919063ffffffff16565b81526020016131216064611449601154876135fb90919063ffffffff16565b81526000602091820181905283546001808201865594825282822084516004909202019081559183015193820193909355604082015160028201556060909101516003909101805460ff191691151591909117905560058301805485929061318a9084906141fb565b9250508190555080601560008282546131a391906141fb565b90915550600090505b6023548110156125c257600354602380546001600160a01b039092169163a9059cbb9190849081106131e0576131e0614264565b9060005260206000200160009054906101000a90046001600160a01b031661323360646114496024878154811061321957613219614264565b9060005260206000200154886135fb90919063ffffffff16565b6040516001600160e01b031960e085901b1681526001600160a01b03909216600483015260248201526044016020604051808303816000875af115801561327e573d6000803e3d6000fd5b505050506040513d601f19601f820116820180604052508101906132a29190614247565b50806132ad81614213565b9150506131ac565b600080546001600160a01b0316336001600160a01b0316146132d657600080fd5b83516132e990601f9060208701906139af565b5082516132fc9060209081860190613a04565b5050602255506001919050565b600080546001600160a01b0316336001600160a01b03161461332a57600080fd5b825161333d90600b906020860190613a04565b508151612aa190600c906020850190613a04565b600d5460ff1661336057600080fd5b3360008181526018602052604081209161337b906001612156565b6003546040516370a0823160e01b815230600482015291925082916001600160a01b03909116906370a0823190602401602060405180830381865afa1580156133c8573d6000803e3d6000fd5b505050506040513d601f19601f820116820180604052508101906133ec919061422e565b10156133f757600080fd5b60045481101561340657600080fd5b6003546001600160a01b031663a9059cbb336134326064611449601254876135fb90919063ffffffff16565b6040516001600160e01b031960e085901b1681526001600160a01b03909216600483015260248201526044016020604051808303816000875af115801561347d573d6000803e3d6000fd5b505050506040513d601f19601f820116820180604052508101906134a19190614247565b50808260080160008282546134b691906141fb565b9091555050426007830155601780548291906000906114f39084906141fb565b600a818154811061126857600080fd5b6000546001600160a01b0316336001600160a01b03161461350657600080fd5b6001600160a01b03811661351957600080fd5b600080546040516001600160a01b03808516939216917f8be0079c531659141344cd1fd0a4f28419497f9722a3daafe3b4186f6b6457e091a3600080546001600160a01b0319166001600160a01b0392909216919091179055565b3360009081526001602052604081205460ff1661359057600080fd5b50600f81905590565b600080546001600160a01b0316336001600160a01b0316146135ba57600080fd5b600080546040516001600160a01b03909116914780156108fc02929091818181858888f193505050501580156135f4573d6000803e3d6000fd5b5047905090565b60008261360a57506000610f49565b600061361683856141dc565b90508261362385836142cc565b1461362d57600080fd5b9392505050565b600080821161364257600080fd5b600061364e83856142cc565b949350505050565b6060613663848351611067565b905060008060005b845181101561388d5784818151811061368657613686614264565b602002602001015160001461387657601860008583815181106136ab576136ab614264565b6020908102919091018101516001600160a01b03168252810191909152604001600020805490925060ff1680156136e6575042826001015410155b1561387b5760006001600160a01b031684828151811061370857613708614264565b60200260200101516001600160a01b031614613876576137506103e861144987848151811061373957613739614264565b6020026020010151896135fb90919063ffffffff16565b92508282600201600082825461376691906141fb565b925050819055508282600301600082825461378191906141fb565b9250508190555081600b0160405180608001604052804281526020016137b86103e8611449601154896135fb90919063ffffffff16565b81526020016137d86103e8611449601154896135fb90919063ffffffff16565b815260016020918201819052835480820185556000948552938290208351600490950201938455908201519083015560408101516002830155606001516003909101805460ff191691151591909117905560115461383f906103e8906114499086906135fb565b82600401600082825461385291906141fb565b92505081905550826016600082825461386b91906141fb565b9091555061387b9050565b61388d565b8061388581614213565b91505061366b565b50505050505050565b82805482825590600052602060002090601f0160209004810192821561392b5791602002820160005b838211156138fc57835183826101000a81548160ff02191690831515021790555092602001926001016020816000010492830192600103026138bf565b80156139295782816101000a81549060ff02191690556001016020816000010492830192600103026138fc565b505b50613937929150613a3e565b5090565b8280546139479061427a565b90600052602060002090601f016020900481019282613969576000855561392b565b82601f1061398257805160ff191683800117855561392b565b8280016001018555821561392b579182015b8281111561392b578251825591602001919060010190613994565b82805482825590600052602060002090810192821561392b579160200282015b8281111561392b57825182546001600160a01b0319166001600160a01b039091161782556020909201916001909101906139cf565b82805482825590600052602060002090810192821561392b579160200282018281111561392b578251825591602001919060010190613994565b5b808211156139375760008155600101613a3f565b6001600160a01b0381168114613a6857600080fd5b50565b60008060408385031215613a7e57600080fd5b8235613a8981613a53565b91506020830135613a9981613a53565b809150509250929050565b600060208284031215613ab657600080fd5b5035919050565b60008060408385031215613ad057600080fd5b8235613adb81613a53565b946020939093013593505050565b6020808252825182820181905260009190848201906040850190845b81811015613b2a5783516001600160a01b031683529284019291840191600101613b05565b50909695505050505050565b634e487b7160e01b600052604160045260246000fd5b604051601f8201601f191681016001600160401b0381118282101715613b7457613b74613b36565b604052919050565b60006001600160401b03821115613b9557613b95613b36565b5060051b60200190565b600082601f830112613bb057600080fd5b81356020613bc5613bc083613b7c565b613b4c565b82815260059290921b84018101918181019086841115613be457600080fd5b8286015b84811015613c08578035613bfb81613a53565b8352918301918301613be8565b509695505050505050565b600060208284031215613c2557600080fd5b81356001600160401b03811115613c3b57600080fd5b61364e84828501613b9f565b60008060408385031215613c5a57600080fd5b50508035926020909101359150565b600081518084526020808501945080840160005b83811015613c9957815187529582019590820190600101613c7d565b509495945050505050565b60208152600061362d6020830184613c69565b600060208284031215613cc957600080fd5b813561362d81613a53565b8015158114613a6857600080fd5b600080600060608486031215613cf757600080fd5b8335613d0281613a53565b9250602084013591506040840135613d1981613cd4565b809150509250925092565b600082601f830112613d3557600080fd5b81356001600160401b03811115613d4e57613d4e613b36565b613d61601f8201601f1916602001613b4c565b818152846020838601011115613d7657600080fd5b816020850160208301376000918101602001919091529392505050565b600060208284031215613da557600080fd5b81356001600160401b03811115613dbb57600080fd5b61364e84828501613d24565b60006101808e1515835260208e818501528d60408501528c60608501528b60808501528a60a08501528960c08501528860e085015287610100850152866101208501528161014085015285518083860152600092505b80831015613e3c578683018201518584016101a0015291810191613e1d565b80831115613e4f5760006101a082870101525b610160850195909552505050601f91909101601f1916016101a0019b9a5050505050505050505050565b600082601f830112613e8a57600080fd5b81356020613e9a613bc083613b7c565b82815260059290921b84018101918181019086841115613eb957600080fd5b8286015b84811015613c085780358352918301918301613ebd565b600060208284031215613ee657600080fd5b81356001600160401b03811115613efc57600080fd5b61364e84828501613e79565b60006020808385031215613f1b57600080fd5b82356001600160401b03811115613f3157600080fd5b8301601f81018513613f4257600080fd5b8035613f50613bc082613b7c565b81815260059190911b82018301908381019087831115613f6f57600080fd5b928401925b82841015613f96578335613f8781613cd4565b82529284019290840190613f74565b979650505050505050565b600081518084526020808501945080840160005b83811015613c99578151151587529582019590820190600101613fb5565b60208152600061362d6020830184613fa1565b60008060408385031215613ff957600080fd5b823561400481613a53565b91506020830135613a9981613cd4565b6000806040838503121561402757600080fd5b823561403281613a53565b915060208301356001600160401b0381111561404d57600080fd5b61405985828601613d24565b9150509250929050565b6080815260006140766080830187613c69565b82810360208401526140888187613c69565b9050828103604084015261409c8186613fa1565b91505082606083015295945050505050565b600080604083850312156140c157600080fd5b82356001600160401b03808211156140d857600080fd5b6140e486838701613b9f565b935060208501359150808211156140fa57600080fd5b5061405985828601613e79565b60006020828403121561411957600080fd5b813561362d81613cd4565b60008060006060848603121561413957600080fd5b83356001600160401b038082111561415057600080fd5b61415c87838801613b9f565b9450602086013591508082111561417257600080fd5b5061417f86828701613e79565b925050604084013590509250925092565b600080604083850312156141a357600080fd5b82356001600160401b03808211156141ba57600080fd5b6140e486838701613e79565b634e487b7160e01b600052601160045260246000fd5b60008160001904831182151516156141f6576141f66141c6565b500290565b6000821982111561420e5761420e6141c6565b500190565b6000600019821415614227576142276141c6565b5060010190565b60006020828403121561424057600080fd5b5051919050565b60006020828403121561425957600080fd5b815161362d81613cd4565b634e487b7160e01b600052603260045260246000fd5b600181811c9082168061428e57607f821691505b602082108114156142af57634e487b7160e01b600052602260045260246000fd5b50919050565b6000828210156142c7576142c76141c6565b500390565b6000826142e957634e487b7160e01b600052601260045260246000fd5b50049056fea26469706673582212207ec3dc68e548bac5b0923f9e7f8b3d1337103d864b6cae6100c89c06538485c364736f6c634300080a0033",
    "sourcePath": "c:/Users/STC/Documents/GitHub/0-INFINITY-BLOCKS-TEST-UNILEVEL/contracts/UnilevelSystem.sol",
    "compiler": {
        "name": "solc",
        "version": "0.8.10+commit.fc410830"
    },
    "functionHashes": {
        "ChangeTokenPrincipal(address)": "50da983f",
        "MIN_RETIRO()": "6c529279",
        "PRECIO_BLOCK()": "24de19f2",
        "activerFee()": "bd9bee19",
        "actualizarArrayBool(bool[])": "7fcc1e36",
        "actualizarArrayUint256(uint256[])": "7367b080",
        "actualizarNetwork(address[])": "1ce7f99b",
        "addressToId(address)": "cb0e0d7d",
        "admin(address)": "63a846f8",
        "allnetwork(address[])": "7faee047",
        "asignarBloke(address,uint256,bool)": "67f74aab",
        "asignarMembership(address,address)": "1053abb1",
        "buyBlocks(uint256)": "c17dbdf9",
        "column(address,uint256)": "15e8392b",
        "columnHijos(address)": "815374ca",
        "controlWitdrawl(bool)": "b17b6e44",
        "depositos(address,bool)": "a365528b",
        "descuento()": "7b0412ed",
        "dias()": "ab6db199",
        "duracionMembership()": "c40d5dbc",
        "gananciasRango(uint256)": "81032892",
        "hijo(address,uint256)": "339640b5",
        "idToAddress(uint256)": "2a2d0c47",
        "infinity(uint256)": "edf5eb1d",
        "inversiones()": "a77d2119",
        "investors(address)": "6f7bc9be",
        "lastUserId()": "348d4487",
        "makeNewAdmin(address)": "69ed1e0a",
        "makeRemoveAdmin(address)": "70a0966b",
        "newRecompensa()": "69f4a84b",
        "onOffWitdrawl()": "e7348e8c",
        "owner()": "8da5cb5b",
        "padre(address)": "b35f0a8f",
        "personas()": "cc759ba2",
        "porcent()": "4728f718",
        "porcientos(uint256)": "28cca719",
        "precioRegistro()": "7db9e9c6",
        "primervez(uint256)": "725fc270",
        "puntosRango(uint256)": "21309f21",
        "rangoReclamado(address,uint256)": "2acc8210",
        "redimBNB()": "fd14d598",
        "redimTokenPrincipal02(uint256)": "1140e85b",
        "registro(address,string)": "8f9ef8c1",
        "setDescuento(uint256)": "b3d9fa09",
        "setInversiones(uint256)": "b85ea335",
        "setMIN_RETIRO(uint256)": "4de1be62",
        "setPorcientos(uint256,uint256)": "1e403c35",
        "setPorcientosSalida(uint256,uint256)": "5d216c60",
        "setPrecioRegistro(uint256)": "aaa749c5",
        "setPriceBlock(uint256)": "2e8a03cf",
        "setPrimeravezPorcientos(uint256,uint256)": "54822522",
        "setRangos(uint256[],uint256[])": "e04fe665",
        "setRetorno(uint256)": "6589fa8a",
        "setTiempo(uint256)": "f90b3f5a",
        "setTiempoUnidades(uint256)": "2748d29b",
        "setWalletFee(address[],uint256[],uint256)": "db3be1a2",
        "setWalletstransfers(address[],uint256[])": "a8beb717",
        "setstate()": "85338e20",
        "tiempo()": "50188c08",
        "tokenPricipal()": "b1390426",
        "totalInvested()": "5216aeec",
        "totalInvestors()": "29b8caff",
        "totalRefRewards()": "bfe0e020",
        "totalRefWitdrawl()": "9b8ff503",
        "transferOwnership(address)": "f2fde38b",
        "unidades()": "4b9b8203",
        "updateData(string)": "68446ead",
        "valor(uint256)": "62550916",
        "valorFee(uint256)": "29e1a243",
        "wallet(uint256)": "a2781335",
        "walletFee(uint256)": "7251b9ac",
        "withdraw()": "3ccfd60b",
        "withdraw2()": "ea98847b",
        "withdrawTeam()": "bb51f32d",
        "withdrawable(address,bool)": "89b2521c",
        "withdrawableRange(address)": "98c07d0a"
    },
    "gasEstimates": {
        "creation": {
            "codeDepositCost": "3437600",
            "executionCost": "infinite",
            "totalCost": "infinite"
        },
        "external": {
            "": "231",
            "ChangeTokenPrincipal(address)": "51128",
            "MIN_RETIRO()": "2451",
            "PRECIO_BLOCK()": "2408",
            "activerFee()": "2384",
            "actualizarArrayBool(bool[])": "infinite",
            "actualizarArrayUint256(uint256[])": "infinite",
            "actualizarNetwork(address[])": "infinite",
            "addressToId(address)": "2580",
            "admin(address)": "2648",
            "allnetwork(address[])": "infinite",
            "asignarBloke(address,uint256,bool)": "infinite",
            "asignarMembership(address,address)": "infinite",
            "buyBlocks(uint256)": "infinite",
            "column(address,uint256)": "infinite",
            "columnHijos(address)": "infinite",
            "controlWitdrawl(bool)": "26830",
            "depositos(address,bool)": "infinite",
            "descuento()": "2364",
            "dias()": "2428",
            "duracionMembership()": "2450",
            "gananciasRango(uint256)": "4643",
            "hijo(address,uint256)": "4846",
            "idToAddress(uint256)": "2590",
            "infinity(uint256)": "4663",
            "inversiones()": "2362",
            "investors(address)": "infinite",
            "lastUserId()": "2385",
            "makeNewAdmin(address)": "28121",
            "makeRemoveAdmin(address)": "28047",
            "newRecompensa()": "infinite",
            "onOffWitdrawl()": "2454",
            "owner()": "2493",
            "padre(address)": "2642",
            "personas()": "2384",
            "porcent()": "2429",
            "porcientos(uint256)": "4732",
            "precioRegistro()": "2386",
            "primervez(uint256)": "4708",
            "puntosRango(uint256)": "4666",
            "rangoReclamado(address,uint256)": "6527",
            "redimBNB()": "infinite",
            "redimTokenPrincipal02(uint256)": "infinite",
            "registro(address,string)": "infinite",
            "setDescuento(uint256)": "24657",
            "setInversiones(uint256)": "24687",
            "setMIN_RETIRO(uint256)": "24622",
            "setPorcientos(uint256,uint256)": "infinite",
            "setPorcientosSalida(uint256,uint256)": "infinite",
            "setPrecioRegistro(uint256)": "24656",
            "setPriceBlock(uint256)": "24702",
            "setPrimeravezPorcientos(uint256,uint256)": "infinite",
            "setRangos(uint256[],uint256[])": "infinite",
            "setRetorno(uint256)": "24739",
            "setTiempo(uint256)": "24715",
            "setTiempoUnidades(uint256)": "24688",
            "setWalletFee(address[],uint256[],uint256)": "infinite",
            "setWalletstransfers(address[],uint256[])": "infinite",
            "setstate()": "6640",
            "tiempo()": "infinite",
            "tokenPricipal()": "2492",
            "totalInvested()": "2430",
            "totalInvestors()": "2364",
            "totalRefRewards()": "2406",
            "totalRefWitdrawl()": "2407",
            "transferOwnership(address)": "30522",
            "unidades()": "2451",
            "updateData(string)": "infinite",
            "valor(uint256)": "4687",
            "valorFee(uint256)": "4666",
            "wallet(uint256)": "4748",
            "walletFee(uint256)": "4725",
            "withdraw()": "infinite",
            "withdraw2()": "infinite",
            "withdrawTeam()": "infinite",
            "withdrawable(address,bool)": "infinite",
            "withdrawableRange(address)": "infinite"
        },
        "internal": {
            "rewardReferers(address,uint256,uint256[] memory)": "infinite"
        }
    }
}