{
    "contractName": "UnilevelSystem",
    "abi": [
        {
            "inputs": [],
            "stateMutability": "nonpayable",
            "type": "constructor"
        },
        {
            "anonymous": false,
            "inputs": [
                {
                    "indexed": true,
                    "internalType": "address",
                    "name": "admin",
                    "type": "address"
                }
            ],
            "name": "AdminRemoved",
            "type": "event"
        },
        {
            "anonymous": false,
            "inputs": [
                {
                    "indexed": true,
                    "internalType": "address",
                    "name": "admin",
                    "type": "address"
                }
            ],
            "name": "NewAdmin",
            "type": "event"
        },
        {
            "anonymous": false,
            "inputs": [
                {
                    "indexed": true,
                    "internalType": "address",
                    "name": "previousOwner",
                    "type": "address"
                },
                {
                    "indexed": true,
                    "internalType": "address",
                    "name": "newOwner",
                    "type": "address"
                }
            ],
            "name": "OwnershipTransferred",
            "type": "event"
        },
        {
            "stateMutability": "payable",
            "type": "fallback"
        },
        {
            "inputs": [
                {
                    "internalType": "address",
                    "name": "_tokenTRC20",
                    "type": "address"
                }
            ],
            "name": "ChangeTokenPrincipal",
            "outputs": [
                {
                    "internalType": "bool",
                    "name": "",
                    "type": "bool"
                }
            ],
            "stateMutability": "nonpayable",
            "type": "function"
        },
        {
            "inputs": [],
            "name": "MIN_RETIRO",
            "outputs": [
                {
                    "internalType": "uint256",
                    "name": "",
                    "type": "uint256"
                }
            ],
            "stateMutability": "view",
            "type": "function"
        },
        {
            "inputs": [],
            "name": "PRECIO_BLOCK",
            "outputs": [
                {
                    "internalType": "uint256",
                    "name": "",
                    "type": "uint256"
                }
            ],
            "stateMutability": "view",
            "type": "function"
        },
        {
            "inputs": [],
            "name": "activerFee",
            "outputs": [
                {
                    "internalType": "uint256",
                    "name": "",
                    "type": "uint256"
                }
            ],
            "stateMutability": "view",
            "type": "function"
        },
        {
            "inputs": [
                {
                    "internalType": "bool[]",
                    "name": "old",
                    "type": "bool[]"
                }
            ],
            "name": "actualizarArrayBool",
            "outputs": [
                {
                    "internalType": "bool[]",
                    "name": "",
                    "type": "bool[]"
                }
            ],
            "stateMutability": "pure",
            "type": "function"
        },
        {
            "inputs": [
                {
                    "internalType": "uint256[]",
                    "name": "old",
                    "type": "uint256[]"
                }
            ],
            "name": "actualizarArrayUint256",
            "outputs": [
                {
                    "internalType": "uint256[]",
                    "name": "",
                    "type": "uint256[]"
                }
            ],
            "stateMutability": "pure",
            "type": "function"
        },
        {
            "inputs": [
                {
                    "internalType": "address[]",
                    "name": "oldNetwork",
                    "type": "address[]"
                }
            ],
            "name": "actualizarNetwork",
            "outputs": [
                {
                    "internalType": "address[]",
                    "name": "",
                    "type": "address[]"
                }
            ],
            "stateMutability": "pure",
            "type": "function"
        },
        {
            "inputs": [
                {
                    "internalType": "address",
                    "name": "",
                    "type": "address"
                }
            ],
            "name": "addressToId",
            "outputs": [
                {
                    "internalType": "uint256",
                    "name": "",
                    "type": "uint256"
                }
            ],
            "stateMutability": "view",
            "type": "function"
        },
        {
            "inputs": [
                {
                    "internalType": "address",
                    "name": "",
                    "type": "address"
                }
            ],
            "name": "admin",
            "outputs": [
                {
                    "internalType": "bool",
                    "name": "",
                    "type": "bool"
                }
            ],
            "stateMutability": "view",
            "type": "function"
        },
        {
            "inputs": [
                {
                    "internalType": "address[]",
                    "name": "network",
                    "type": "address[]"
                }
            ],
            "name": "allnetwork",
            "outputs": [
                {
                    "internalType": "address[]",
                    "name": "",
                    "type": "address[]"
                }
            ],
            "stateMutability": "view",
            "type": "function"
        },
        {
            "inputs": [
                {
                    "internalType": "address",
                    "name": "_user",
                    "type": "address"
                },
                {
                    "internalType": "uint256",
                    "name": "_bloks",
                    "type": "uint256"
                },
                {
                    "internalType": "bool",
                    "name": "_infinity",
                    "type": "bool"
                }
            ],
            "name": "asignarBloke",
            "outputs": [
                {
                    "internalType": "bool",
                    "name": "",
                    "type": "bool"
                }
            ],
            "stateMutability": "nonpayable",
            "type": "function"
        },
        {
            "inputs": [
                {
                    "internalType": "address",
                    "name": "_user",
                    "type": "address"
                },
                {
                    "internalType": "address",
                    "name": "_sponsor",
                    "type": "address"
                }
            ],
            "name": "asignarMembership",
            "outputs": [
                {
                    "internalType": "bool",
                    "name": "",
                    "type": "bool"
                }
            ],
            "stateMutability": "nonpayable",
            "type": "function"
        },
        {
            "inputs": [
                {
                    "internalType": "uint256",
                    "name": "",
                    "type": "uint256"
                }
            ],
            "name": "baserange",
            "outputs": [
                {
                    "internalType": "bool",
                    "name": "",
                    "type": "bool"
                }
            ],
            "stateMutability": "view",
            "type": "function"
        },
        {
            "inputs": [],
            "name": "baserangelength",
            "outputs": [
                {
                    "internalType": "uint256",
                    "name": "",
                    "type": "uint256"
                }
            ],
            "stateMutability": "view",
            "type": "function"
        },
        {
            "inputs": [
                {
                    "internalType": "uint256",
                    "name": "_bloks",
                    "type": "uint256"
                }
            ],
            "name": "buyBlocks",
            "outputs": [],
            "stateMutability": "nonpayable",
            "type": "function"
        },
        {
            "inputs": [
                {
                    "internalType": "address",
                    "name": "yo",
                    "type": "address"
                },
                {
                    "internalType": "uint256",
                    "name": "_largo",
                    "type": "uint256"
                }
            ],
            "name": "column",
            "outputs": [
                {
                    "internalType": "address[]",
                    "name": "",
                    "type": "address[]"
                }
            ],
            "stateMutability": "view",
            "type": "function"
        },
        {
            "inputs": [
                {
                    "internalType": "address",
                    "name": "yo",
                    "type": "address"
                }
            ],
            "name": "columnHijos",
            "outputs": [
                {
                    "internalType": "address[]",
                    "name": "",
                    "type": "address[]"
                }
            ],
            "stateMutability": "view",
            "type": "function"
        },
        {
            "inputs": [
                {
                    "internalType": "bool",
                    "name": "_true_false",
                    "type": "bool"
                }
            ],
            "name": "controlWitdrawl",
            "outputs": [
                {
                    "internalType": "bool",
                    "name": "",
                    "type": "bool"
                }
            ],
            "stateMutability": "nonpayable",
            "type": "function"
        },
        {
            "inputs": [
                {
                    "internalType": "address",
                    "name": "_user",
                    "type": "address"
                },
                {
                    "internalType": "bool",
                    "name": "_infinity",
                    "type": "bool"
                }
            ],
            "name": "depositos",
            "outputs": [
                {
                    "internalType": "uint256[]",
                    "name": "",
                    "type": "uint256[]"
                },
                {
                    "internalType": "uint256[]",
                    "name": "",
                    "type": "uint256[]"
                },
                {
                    "internalType": "bool[]",
                    "name": "",
                    "type": "bool[]"
                },
                {
                    "internalType": "uint256",
                    "name": "",
                    "type": "uint256"
                }
            ],
            "stateMutability": "view",
            "type": "function"
        },
        {
            "inputs": [],
            "name": "descuento",
            "outputs": [
                {
                    "internalType": "uint256",
                    "name": "",
                    "type": "uint256"
                }
            ],
            "stateMutability": "view",
            "type": "function"
        },
        {
            "inputs": [],
            "name": "dias",
            "outputs": [
                {
                    "internalType": "uint256",
                    "name": "",
                    "type": "uint256"
                }
            ],
            "stateMutability": "view",
            "type": "function"
        },
        {
            "inputs": [],
            "name": "duracionMembership",
            "outputs": [
                {
                    "internalType": "uint256",
                    "name": "",
                    "type": "uint256"
                }
            ],
            "stateMutability": "view",
            "type": "function"
        },
        {
            "inputs": [
                {
                    "internalType": "uint256",
                    "name": "",
                    "type": "uint256"
                }
            ],
            "name": "gananciasRango",
            "outputs": [
                {
                    "internalType": "uint256",
                    "name": "",
                    "type": "uint256"
                }
            ],
            "stateMutability": "view",
            "type": "function"
        },
        {
            "inputs": [
                {
                    "internalType": "address",
                    "name": "",
                    "type": "address"
                },
                {
                    "internalType": "uint256",
                    "name": "",
                    "type": "uint256"
                }
            ],
            "name": "hijo",
            "outputs": [
                {
                    "internalType": "address",
                    "name": "",
                    "type": "address"
                }
            ],
            "stateMutability": "view",
            "type": "function"
        },
        {
            "inputs": [
                {
                    "internalType": "uint256",
                    "name": "",
                    "type": "uint256"
                }
            ],
            "name": "idToAddress",
            "outputs": [
                {
                    "internalType": "address",
                    "name": "",
                    "type": "address"
                }
            ],
            "stateMutability": "view",
            "type": "function"
        },
        {
            "inputs": [
                {
                    "internalType": "uint256",
                    "name": "",
                    "type": "uint256"
                }
            ],
            "name": "infinity",
            "outputs": [
                {
                    "internalType": "uint256",
                    "name": "",
                    "type": "uint256"
                }
            ],
            "stateMutability": "view",
            "type": "function"
        },
        {
            "inputs": [],
            "name": "inversiones",
            "outputs": [
                {
                    "internalType": "uint256",
                    "name": "",
                    "type": "uint256"
                }
            ],
            "stateMutability": "view",
            "type": "function"
        },
        {
            "inputs": [
                {
                    "internalType": "address",
                    "name": "",
                    "type": "address"
                }
            ],
            "name": "investors",
            "outputs": [
                {
                    "internalType": "bool",
                    "name": "registered",
                    "type": "bool"
                },
                {
                    "internalType": "uint256",
                    "name": "membership",
                    "type": "uint256"
                },
                {
                    "internalType": "uint256",
                    "name": "balanceRef",
                    "type": "uint256"
                },
                {
                    "internalType": "uint256",
                    "name": "totalRef",
                    "type": "uint256"
                },
                {
                    "internalType": "uint256",
                    "name": "invested",
                    "type": "uint256"
                },
                {
                    "internalType": "uint256",
                    "name": "paidAt",
                    "type": "uint256"
                },
                {
                    "internalType": "uint256",
                    "name": "paidAt2",
                    "type": "uint256"
                },
                {
                    "internalType": "uint256",
                    "name": "withdrawn",
                    "type": "uint256"
                },
                {
                    "internalType": "uint256",
                    "name": "directos",
                    "type": "uint256"
                },
                {
                    "internalType": "string",
                    "name": "data",
                    "type": "string"
                },
                {
                    "internalType": "uint256",
                    "name": "blokesDirectos",
                    "type": "uint256"
                }
            ],
            "stateMutability": "view",
            "type": "function"
        },
        {
            "inputs": [],
            "name": "lastUserId",
            "outputs": [
                {
                    "internalType": "uint256",
                    "name": "",
                    "type": "uint256"
                }
            ],
            "stateMutability": "view",
            "type": "function"
        },
        {
            "inputs": [
                {
                    "internalType": "address payable",
                    "name": "_newadmin",
                    "type": "address"
                }
            ],
            "name": "makeNewAdmin",
            "outputs": [],
            "stateMutability": "nonpayable",
            "type": "function"
        },
        {
            "inputs": [
                {
                    "internalType": "address payable",
                    "name": "_oldadmin",
                    "type": "address"
                }
            ],
            "name": "makeRemoveAdmin",
            "outputs": [],
            "stateMutability": "nonpayable",
            "type": "function"
        },
        {
            "inputs": [],
            "name": "newRecompensa",
            "outputs": [],
            "stateMutability": "nonpayable",
            "type": "function"
        },
        {
            "inputs": [],
            "name": "onOffWitdrawl",
            "outputs": [
                {
                    "internalType": "bool",
                    "name": "",
                    "type": "bool"
                }
            ],
            "stateMutability": "view",
            "type": "function"
        },
        {
            "inputs": [],
            "name": "owner",
            "outputs": [
                {
                    "internalType": "address payable",
                    "name": "",
                    "type": "address"
                }
            ],
            "stateMutability": "view",
            "type": "function"
        },
        {
            "inputs": [
                {
                    "internalType": "address",
                    "name": "",
                    "type": "address"
                }
            ],
            "name": "padre",
            "outputs": [
                {
                    "internalType": "address",
                    "name": "",
                    "type": "address"
                }
            ],
            "stateMutability": "view",
            "type": "function"
        },
        {
            "inputs": [],
            "name": "personas",
            "outputs": [
                {
                    "internalType": "uint256",
                    "name": "",
                    "type": "uint256"
                }
            ],
            "stateMutability": "view",
            "type": "function"
        },
        {
            "inputs": [],
            "name": "porcent",
            "outputs": [
                {
                    "internalType": "uint256",
                    "name": "",
                    "type": "uint256"
                }
            ],
            "stateMutability": "view",
            "type": "function"
        },
        {
            "inputs": [
                {
                    "internalType": "uint256",
                    "name": "",
                    "type": "uint256"
                }
            ],
            "name": "porcientos",
            "outputs": [
                {
                    "internalType": "uint256",
                    "name": "",
                    "type": "uint256"
                }
            ],
            "stateMutability": "view",
            "type": "function"
        },
        {
            "inputs": [],
            "name": "precioRegistro",
            "outputs": [
                {
                    "internalType": "uint256",
                    "name": "",
                    "type": "uint256"
                }
            ],
            "stateMutability": "view",
            "type": "function"
        },
        {
            "inputs": [
                {
                    "internalType": "uint256",
                    "name": "",
                    "type": "uint256"
                }
            ],
            "name": "primervez",
            "outputs": [
                {
                    "internalType": "uint256",
                    "name": "",
                    "type": "uint256"
                }
            ],
            "stateMutability": "view",
            "type": "function"
        },
        {
            "inputs": [
                {
                    "internalType": "uint256",
                    "name": "",
                    "type": "uint256"
                }
            ],
            "name": "puntosRango",
            "outputs": [
                {
                    "internalType": "uint256",
                    "name": "",
                    "type": "uint256"
                }
            ],
            "stateMutability": "view",
            "type": "function"
        },
        {
            "inputs": [
                {
                    "internalType": "address",
                    "name": "",
                    "type": "address"
                },
                {
                    "internalType": "uint256",
                    "name": "",
                    "type": "uint256"
                }
            ],
            "name": "rangoReclamado",
            "outputs": [
                {
                    "internalType": "bool",
                    "name": "",
                    "type": "bool"
                }
            ],
            "stateMutability": "view",
            "type": "function"
        },
        {
            "inputs": [],
            "name": "redimBNB",
            "outputs": [
                {
                    "internalType": "uint256",
                    "name": "",
                    "type": "uint256"
                }
            ],
            "stateMutability": "nonpayable",
            "type": "function"
        },
        {
            "inputs": [
                {
                    "internalType": "uint256",
                    "name": "_value",
                    "type": "uint256"
                }
            ],
            "name": "redimTokenPrincipal02",
            "outputs": [
                {
                    "internalType": "uint256",
                    "name": "",
                    "type": "uint256"
                }
            ],
            "stateMutability": "nonpayable",
            "type": "function"
        },
        {
            "inputs": [
                {
                    "internalType": "address",
                    "name": "_sponsor",
                    "type": "address"
                },
                {
                    "internalType": "string",
                    "name": "_datos",
                    "type": "string"
                }
            ],
            "name": "registro",
            "outputs": [],
            "stateMutability": "nonpayable",
            "type": "function"
        },
        {
            "inputs": [
                {
                    "internalType": "uint256",
                    "name": "_descuento",
                    "type": "uint256"
                }
            ],
            "name": "setDescuento",
            "outputs": [
                {
                    "internalType": "bool",
                    "name": "",
                    "type": "bool"
                }
            ],
            "stateMutability": "nonpayable",
            "type": "function"
        },
        {
            "inputs": [
                {
                    "internalType": "uint256",
                    "name": "_numerodeinverionessinganancia",
                    "type": "uint256"
                }
            ],
            "name": "setInversiones",
            "outputs": [
                {
                    "internalType": "uint256",
                    "name": "",
                    "type": "uint256"
                }
            ],
            "stateMutability": "nonpayable",
            "type": "function"
        },
        {
            "inputs": [
                {
                    "internalType": "uint256",
                    "name": "_min",
                    "type": "uint256"
                }
            ],
            "name": "setMIN_RETIRO",
            "outputs": [
                {
                    "internalType": "uint256",
                    "name": "",
                    "type": "uint256"
                }
            ],
            "stateMutability": "nonpayable",
            "type": "function"
        },
        {
            "inputs": [
                {
                    "internalType": "uint256",
                    "name": "_nivel",
                    "type": "uint256"
                },
                {
                    "internalType": "uint256",
                    "name": "_value",
                    "type": "uint256"
                }
            ],
            "name": "setPorcientos",
            "outputs": [
                {
                    "internalType": "uint256[]",
                    "name": "",
                    "type": "uint256[]"
                }
            ],
            "stateMutability": "nonpayable",
            "type": "function"
        },
        {
            "inputs": [
                {
                    "internalType": "uint256",
                    "name": "_nivel",
                    "type": "uint256"
                },
                {
                    "internalType": "uint256",
                    "name": "_value",
                    "type": "uint256"
                }
            ],
            "name": "setPorcientosSalida",
            "outputs": [
                {
                    "internalType": "uint256[]",
                    "name": "",
                    "type": "uint256[]"
                }
            ],
            "stateMutability": "nonpayable",
            "type": "function"
        },
        {
            "inputs": [
                {
                    "internalType": "uint256",
                    "name": "_precio",
                    "type": "uint256"
                }
            ],
            "name": "setPrecioRegistro",
            "outputs": [
                {
                    "internalType": "bool",
                    "name": "",
                    "type": "bool"
                }
            ],
            "stateMutability": "nonpayable",
            "type": "function"
        },
        {
            "inputs": [
                {
                    "internalType": "uint256",
                    "name": "_value",
                    "type": "uint256"
                }
            ],
            "name": "setPriceBlock",
            "outputs": [
                {
                    "internalType": "bool",
                    "name": "",
                    "type": "bool"
                }
            ],
            "stateMutability": "nonpayable",
            "type": "function"
        },
        {
            "inputs": [
                {
                    "internalType": "uint256",
                    "name": "_nivel",
                    "type": "uint256"
                },
                {
                    "internalType": "uint256",
                    "name": "_value",
                    "type": "uint256"
                }
            ],
            "name": "setPrimeravezPorcientos",
            "outputs": [
                {
                    "internalType": "uint256[]",
                    "name": "",
                    "type": "uint256[]"
                }
            ],
            "stateMutability": "nonpayable",
            "type": "function"
        },
        {
            "inputs": [
                {
                    "internalType": "bool[]",
                    "name": "_baserange",
                    "type": "bool[]"
                },
                {
                    "internalType": "uint256[]",
                    "name": "_gananciasRango",
                    "type": "uint256[]"
                },
                {
                    "internalType": "uint256[]",
                    "name": "_puntosRango",
                    "type": "uint256[]"
                }
            ],
            "name": "setRangos",
            "outputs": [
                {
                    "internalType": "bool",
                    "name": "",
                    "type": "bool"
                }
            ],
            "stateMutability": "nonpayable",
            "type": "function"
        },
        {
            "inputs": [
                {
                    "internalType": "uint256",
                    "name": "_porcentaje",
                    "type": "uint256"
                }
            ],
            "name": "setRetorno",
            "outputs": [
                {
                    "internalType": "uint256",
                    "name": "",
                    "type": "uint256"
                }
            ],
            "stateMutability": "nonpayable",
            "type": "function"
        },
        {
            "inputs": [
                {
                    "internalType": "uint256",
                    "name": "_dias",
                    "type": "uint256"
                }
            ],
            "name": "setTiempo",
            "outputs": [
                {
                    "internalType": "uint256",
                    "name": "",
                    "type": "uint256"
                }
            ],
            "stateMutability": "nonpayable",
            "type": "function"
        },
        {
            "inputs": [
                {
                    "internalType": "uint256",
                    "name": "_unidades",
                    "type": "uint256"
                }
            ],
            "name": "setTiempoUnidades",
            "outputs": [
                {
                    "internalType": "uint256",
                    "name": "",
                    "type": "uint256"
                }
            ],
            "stateMutability": "nonpayable",
            "type": "function"
        },
        {
            "inputs": [
                {
                    "internalType": "address[]",
                    "name": "_wallet",
                    "type": "address[]"
                },
                {
                    "internalType": "uint256[]",
                    "name": "_fee",
                    "type": "uint256[]"
                },
                {
                    "internalType": "uint256",
                    "name": "_activerFee",
                    "type": "uint256"
                }
            ],
            "name": "setWalletFee",
            "outputs": [
                {
                    "internalType": "bool",
                    "name": "",
                    "type": "bool"
                }
            ],
            "stateMutability": "nonpayable",
            "type": "function"
        },
        {
            "inputs": [
                {
                    "internalType": "address[]",
                    "name": "_wallets",
                    "type": "address[]"
                },
                {
                    "internalType": "uint256[]",
                    "name": "_valores",
                    "type": "uint256[]"
                }
            ],
            "name": "setWalletstransfers",
            "outputs": [
                {
                    "internalType": "bool",
                    "name": "",
                    "type": "bool"
                }
            ],
            "stateMutability": "nonpayable",
            "type": "function"
        },
        {
            "inputs": [],
            "name": "setstate",
            "outputs": [
                {
                    "internalType": "uint256",
                    "name": "Investors",
                    "type": "uint256"
                },
                {
                    "internalType": "uint256",
                    "name": "Invested",
                    "type": "uint256"
                },
                {
                    "internalType": "uint256",
                    "name": "RefRewards",
                    "type": "uint256"
                }
            ],
            "stateMutability": "view",
            "type": "function"
        },
        {
            "inputs": [],
            "name": "tiempo",
            "outputs": [
                {
                    "internalType": "uint256",
                    "name": "",
                    "type": "uint256"
                }
            ],
            "stateMutability": "view",
            "type": "function"
        },
        {
            "inputs": [],
            "name": "tokenPricipal",
            "outputs": [
                {
                    "internalType": "address",
                    "name": "",
                    "type": "address"
                }
            ],
            "stateMutability": "view",
            "type": "function"
        },
        {
            "inputs": [],
            "name": "totalInvested",
            "outputs": [
                {
                    "internalType": "uint256",
                    "name": "",
                    "type": "uint256"
                }
            ],
            "stateMutability": "view",
            "type": "function"
        },
        {
            "inputs": [],
            "name": "totalInvestors",
            "outputs": [
                {
                    "internalType": "uint256",
                    "name": "",
                    "type": "uint256"
                }
            ],
            "stateMutability": "view",
            "type": "function"
        },
        {
            "inputs": [],
            "name": "totalRefRewards",
            "outputs": [
                {
                    "internalType": "uint256",
                    "name": "",
                    "type": "uint256"
                }
            ],
            "stateMutability": "view",
            "type": "function"
        },
        {
            "inputs": [],
            "name": "totalRefWitdrawl",
            "outputs": [
                {
                    "internalType": "uint256",
                    "name": "",
                    "type": "uint256"
                }
            ],
            "stateMutability": "view",
            "type": "function"
        },
        {
            "inputs": [
                {
                    "internalType": "address payable",
                    "name": "newOwner",
                    "type": "address"
                }
            ],
            "name": "transferOwnership",
            "outputs": [],
            "stateMutability": "nonpayable",
            "type": "function"
        },
        {
            "inputs": [],
            "name": "unidades",
            "outputs": [
                {
                    "internalType": "uint256",
                    "name": "",
                    "type": "uint256"
                }
            ],
            "stateMutability": "view",
            "type": "function"
        },
        {
            "inputs": [
                {
                    "internalType": "string",
                    "name": "_datos",
                    "type": "string"
                }
            ],
            "name": "updateData",
            "outputs": [],
            "stateMutability": "nonpayable",
            "type": "function"
        },
        {
            "inputs": [
                {
                    "internalType": "uint256",
                    "name": "",
                    "type": "uint256"
                }
            ],
            "name": "valor",
            "outputs": [
                {
                    "internalType": "uint256",
                    "name": "",
                    "type": "uint256"
                }
            ],
            "stateMutability": "view",
            "type": "function"
        },
        {
            "inputs": [
                {
                    "internalType": "uint256",
                    "name": "",
                    "type": "uint256"
                }
            ],
            "name": "valorFee",
            "outputs": [
                {
                    "internalType": "uint256",
                    "name": "",
                    "type": "uint256"
                }
            ],
            "stateMutability": "view",
            "type": "function"
        },
        {
            "inputs": [
                {
                    "internalType": "uint256",
                    "name": "",
                    "type": "uint256"
                }
            ],
            "name": "wallet",
            "outputs": [
                {
                    "internalType": "address",
                    "name": "",
                    "type": "address"
                }
            ],
            "stateMutability": "view",
            "type": "function"
        },
        {
            "inputs": [
                {
                    "internalType": "uint256",
                    "name": "",
                    "type": "uint256"
                }
            ],
            "name": "walletFee",
            "outputs": [
                {
                    "internalType": "address",
                    "name": "",
                    "type": "address"
                }
            ],
            "stateMutability": "view",
            "type": "function"
        },
        {
            "inputs": [],
            "name": "withdraw",
            "outputs": [],
            "stateMutability": "nonpayable",
            "type": "function"
        },
        {
            "inputs": [],
            "name": "withdraw2",
            "outputs": [],
            "stateMutability": "nonpayable",
            "type": "function"
        },
        {
            "inputs": [],
            "name": "withdrawTeam",
            "outputs": [],
            "stateMutability": "nonpayable",
            "type": "function"
        },
        {
            "inputs": [
                {
                    "internalType": "address",
                    "name": "any_user",
                    "type": "address"
                },
                {
                    "internalType": "bool",
                    "name": "_infinity",
                    "type": "bool"
                }
            ],
            "name": "withdrawable",
            "outputs": [
                {
                    "internalType": "uint256",
                    "name": "",
                    "type": "uint256"
                }
            ],
            "stateMutability": "view",
            "type": "function"
        },
        {
            "inputs": [
                {
                    "internalType": "address",
                    "name": "any_user",
                    "type": "address"
                }
            ],
            "name": "withdrawableRange",
            "outputs": [
                {
                    "internalType": "uint256",
                    "name": "amount",
                    "type": "uint256"
                }
            ],
            "stateMutability": "view",
            "type": "function"
        },
        {
            "stateMutability": "payable",
            "type": "receive"
        }
    ],
    "bytecode": "600280547355d398326f99059ff775485246999027b31979556001600160a01b031991821681179092556003805482168317905567d02ab486cedc00006004556802b5e3af16b18800006005908155600680549092169092179055600160075561012060405260326080908152601e60a052601460c052600a60e081905261010052620000909160089190620004ab565b506040805160a081018252600f81526009602082018190526006928201929092526003606082018190526080820152620000cd91906005620004ab565b506040805160a08101825260058082526003602083015260029282019290925260016060820181905260808201526200010a91600a9190620004ab565b506040805161010081018252600080825260208201819052918101829052606081018290526080810182905260a0810182905260c0810182905260e08101919091526200015c90600b90600862000500565b5060408051610100810182526828a857425466f800008152685150ae84a8cdf00000602082015268cb49b44ba602d80000918101919091526901969368974c05b00000606082015269032d26d12e980b6000006080820152690a968163f0a57b40000060a0820152691fc3842bd1f071c0000060c08201526934f086f3b33b6840000060e0820152620001f490600c906008620005a7565b5060408051610100810182526103e881526107d06020820152611388918101919091526127106060820152614e206080820152620186a060a0820152620493e060c08201526207a12060e08201526200025290600d906008620005f0565b50600e805460ff1916600190811790915561016d600f556103846010556201518060115560f06012556064601355600260148190556015829055601f9190915560408051808201909152734490566647735e8cbce0ce96efc8fb91c164859b815273d0f2fcdf7d399205e9709c6d0fbee434335e42dd602080830191909152620002df9290919062000635565b506040805180820190915260058152605f602082015262000305906021906002620004ab565b506801a055690d9db800006022556002602355604080516060810182527317a7e5b2d9b5d191f7307e990e630c9dc18e1396815273afe9d039ec7d4409b1b8c2f1556f20843079b7286020820152738dd59f5670e9809c8a800a49d1ff1cea471c53da918101919091526200037f90602490600362000635565b50604080516060810182526046815260086020820152600591810191909152620003ae906025906003620004ab565b50348015620003bc57600080fd5b50600080546001600160a01b0319163390811782558152600160208181526040808420805460ff19908116851790915584546001600160a01b0316855260199092529092208054909216178155601154600f546200041b91906200070b565b6200042f90670de0b6b3a76400006200070b565b6200043b90426200072d565b6001820155336000908152601e60205260409020600b8054620004609291906200068d565b50507fb9c6de81004e18dedadca3e5eabaab449ca91dff6f58efc9461da635fe77f84980546001600160a01b031916339081179091556000908152601d602052604081205562000748565b828054828255906000526020600020908101928215620004ee579160200282015b82811115620004ee578251829060ff16905591602001919060010190620004cc565b50620004fc929150620006de565b5090565b82805482825590600052602060002090601f01602090048101928215620004ee5791602002820160005b838211156200056957835183826101000a81548160ff02191690831515021790555092602001926001016020816000010492830192600103026200052a565b8015620005985782816101000a81549060ff021916905560010160208160000104928301926001030262000569565b5050620004fc929150620006de565b828054828255906000526020600020908101928215620004ee579160200282015b82811115620004ee57825182906001600160501b0316905591602001919060010190620005c8565b828054828255906000526020600020908101928215620004ee579160200282015b82811115620004ee578251829062ffffff1690559160200191906001019062000611565b828054828255906000526020600020908101928215620004ee579160200282015b82811115620004ee57825182546001600160a01b0319166001600160a01b0390911617825560209092019160019091019062000656565b82805482825590600052602060002090601f01602090048101928215620004ee57600052602060002091601f016020900482015b82811115620004ee578254825591600101919060010190620006c1565b5b80821115620004fc5760008155600101620006df565b634e487b7160e01b600052601160045260246000fd5b6000816000190483118215151615620007285762000728620006f5565b500290565b60008219821115620007435762000743620006f5565b500190565b6143d480620007586000396000f3fe6080604052600436106104315760003560e01c80637b0412ed11610227578063b17b6e441161012d578063cc759ba2116100b0578063edf5eb1d11610077578063edf5eb1d14610d60578063f2fde38b14610d80578063f5c9dbef14610da0578063f90b3f5a14610db5578063fd14d59814610dd557005b8063cc759ba214610cdb578063cfda9ee614610cf1578063db3be1a214610d11578063e7348e8c14610d31578063ea98847b14610d4b57005b8063bd9bee19116100f4578063bd9bee1914610c4c578063bfe0e02014610c62578063c17dbdf914610c78578063c40d5dbc14610c98578063cb0e0d7d14610cae57005b8063b17b6e4414610ba1578063b35f0a8f14610bc1578063b3d9fa0914610bf7578063b85ea33514610c17578063bb51f32d14610c3757005b80638f9ef8c1116101b5578063a77d21191161017c578063a77d211914610b15578063a8beb71714610b2b578063aaa749c514610b4b578063ab6db19914610b6b578063b139042614610b8157005b80638f9ef8c114610a6f57806398c07d0a14610a8f5780639b8ff50314610aaf578063a278133514610ac5578063a365528b14610ae557005b806381032892116101f957806381032892146109be578063815374ca146109de57806385338e20146109fe57806389b2521c14610a2f5780638da5cb5b14610a4f57005b80637b0412ed146109455780637db9e9c61461095b5780637faee047146109715780637fcc1e361461099157005b80634b9b82031161033757806367f74aab116102ba5780636f7bc9be116102815780636f7bc9be1461088e57806370a0966b146108c55780637251b9ac146108e5578063725fc270146109055780637367b0801461092557005b806367f74aab1461080357806368446ead1461082357806369ed1e0a1461084357806369f4a84b146108635780636c5292791461087857005b806354822522116102fe57806354822522146107535780635d216c6014610773578063625509161461079357806363a846f8146107b35780636589fa8a146107e357005b80634b9b8203146106d25780634de1be62146106e857806350188c081461070857806350da983f1461071d5780635216aeec1461073d57005b806329b8caff116103bf578063339640b511610386578063339640b514610651578063348d4487146106715780633ccfd60b1461068757806343bf0bd41461069c5780634728f718146106bc57005b806329b8caff1461058d57806329e1a243146105a35780632a2d0c47146105c35780632acc8210146106115780632e8a03cf1461063157005b80631e403c35116104035780631e403c35146104ea57806321309f211461051757806324de19f2146105375780632748d29b1461054d57806328cca7191461056d57005b80631053abb11461043a5780631140e85b1461046f57806315e8392b1461049d5780631ce7f99b146104ca57005b3661043857005b005b34801561044657600080fd5b5061045a610455366004613ad3565b610dea565b60405190151581526020015b60405180910390f35b34801561047b57600080fd5b5061048f61048a366004613b0c565b610fb6565b604051908152602001610466565b3480156104a957600080fd5b506104bd6104b8366004613b25565b6110ce565b6040516104669190613b51565b3480156104d657600080fd5b506104bd6104e5366004613c7b565b611163565b3480156104f657600080fd5b5061050a610505366004613caf565b611221565b6040516104669190613d0c565b34801561052357600080fd5b5061048f610532366004613b0c565b6112bf565b34801561054357600080fd5b5061048f60055481565b34801561055957600080fd5b5061048f610568366004613b0c565b6112e0565b34801561057957600080fd5b5061048f610588366004613b0c565b61130a565b34801561059957600080fd5b5061048f60155481565b3480156105af57600080fd5b5061048f6105be366004613b0c565b61131a565b3480156105cf57600080fd5b506105f96105de366004613b0c565b601c602052600090815260409020546001600160a01b031681565b6040516001600160a01b039091168152602001610466565b34801561061d57600080fd5b5061045a61062c366004613b25565b61132a565b34801561063d57600080fd5b5061045a61064c366004613b0c565b61136d565b34801561065d57600080fd5b506105f961066c366004613b25565b611397565b34801561067d57600080fd5b5061048f601f5481565b34801561069357600080fd5b506104386113cf565b3480156106a857600080fd5b5061045a6106b7366004613dec565b611563565b3480156106c857600080fd5b5061048f60125481565b3480156106de57600080fd5b5061048f60115481565b3480156106f457600080fd5b5061048f610703366004613b0c565b6115e9565b34801561071457600080fd5b5061048f611613565b34801561072957600080fd5b5061045a610738366004613e73565b611631565b34801561074957600080fd5b5061048f60165481565b34801561075f57600080fd5b5061050a61076e366004613caf565b611685565b34801561077f57600080fd5b5061050a61078e366004613caf565b611721565b34801561079f57600080fd5b5061048f6107ae366004613b0c565b6117bd565b3480156107bf57600080fd5b5061045a6107ce366004613e73565b60016020526000908152604090205460ff1681565b3480156107ef57600080fd5b5061048f6107fe366004613b0c565b6117cd565b34801561080f57600080fd5b5061045a61081e366004613e90565b6117f2565b34801561082f57600080fd5b5061043861083e366004613f41565b611946565b34801561084f57600080fd5b5061043861085e366004613e73565b611972565b34801561086f57600080fd5b506104386119fc565b34801561088457600080fd5b5061048f60045481565b34801561089a57600080fd5b506108ae6108a9366004613e73565b611d4c565b6040516104669b9a99989796959493929190613f75565b3480156108d157600080fd5b506104386108e0366004613e73565b611e33565b3480156108f157600080fd5b506105f9610900366004613b0c565b611ebb565b34801561091157600080fd5b5061048f610920366004613b0c565b611ee5565b34801561093157600080fd5b5061050a61094036600461401f565b611ef5565b34801561095157600080fd5b5061048f60135481565b34801561096757600080fd5b5061048f60225481565b34801561097d57600080fd5b506104bd61098c366004613c7b565b611f9f565b34801561099d57600080fd5b506109b16109ac366004614053565b6120bc565b60405161046691906140b9565b3480156109ca57600080fd5b5061048f6109d9366004613b0c565b61216b565b3480156109ea57600080fd5b506104bd6109f9366004613e73565b61217b565b348015610a0a57600080fd5b5060155460165460175460408051938452602084019290925290820152606001610466565b348015610a3b57600080fd5b5061048f610a4a3660046140cc565b612232565b348015610a5b57600080fd5b506000546105f9906001600160a01b031681565b348015610a7b57600080fd5b50610438610a8a3660046140fa565b612253565b348015610a9b57600080fd5b5061048f610aaa366004613e73565b612695565b348015610abb57600080fd5b5061048f60185481565b348015610ad157600080fd5b506105f9610ae0366004613b0c565b612900565b348015610af157600080fd5b50610b05610b003660046140cc565b612910565b6040516104669493929190614149565b348015610b2157600080fd5b5061048f60075481565b348015610b3757600080fd5b5061045a610b46366004614194565b612b1b565b348015610b5757600080fd5b5061045a610b66366004613b0c565b612b6d565b348015610b7757600080fd5b5061048f60105481565b348015610b8d57600080fd5b506006546105f9906001600160a01b031681565b348015610bad57600080fd5b5061045a610bbc3660046141ed565b612b97565b348015610bcd57600080fd5b506105f9610bdc366004613e73565b601a602052600090815260409020546001600160a01b031681565b348015610c0357600080fd5b5061045a610c12366004613b0c565b612bc5565b348015610c2357600080fd5b5061048f610c32366004613b0c565b612bef565b348015610c4357600080fd5b50610438612c19565b348015610c5857600080fd5b5061048f60235481565b348015610c6e57600080fd5b5061048f60175481565b348015610c8457600080fd5b50610438610c93366004613b0c565b612dd2565b348015610ca457600080fd5b5061048f600f5481565b348015610cba57600080fd5b5061048f610cc9366004613e73565b601d6020526000908152604090205481565b348015610ce757600080fd5b5061048f60145481565b348015610cfd57600080fd5b5061045a610d0c366004613b0c565b61330c565b348015610d1d57600080fd5b5061045a610d2c36600461420a565b613340565b348015610d3d57600080fd5b50600e5461045a9060ff1681565b348015610d5757600080fd5b50610438613394565b348015610d6c57600080fd5b5061048f610d7b366004613b0c565b613519565b348015610d8c57600080fd5b50610438610d9b366004613e73565b613529565b348015610dac57600080fd5b50600b5461048f565b348015610dc157600080fd5b5061048f610dd0366004613b0c565b6135b7565b348015610de157600080fd5b5061048f6135dc565b3360009081526001602052604081205460ff16610e0657600080fd5b6001600160a01b038216610e1957600080fd5b6001600160a01b0383166000908152601960205260409020805460ff16610f8557805460ff19166001178155601154600f54610e55919061428c565b610e5f90426142ab565b60018201556001600160a01b038481166000908152601a6020908152604080832080546001600160a01b0319169488169485179055928252601990529081206008810180549192610eaf836142c3565b90915550506001600160a01b038481166000908152601b60209081526040822080546001810182559083529082200180546001600160a01b031916928816929092179091556015805491610f02836142c3565b90915550506001600160a01b0385166000908152601e60205260409020600b8054610f2e9291906138a5565b50601f80546000908152601c6020908152604080832080546001600160a01b0319166001600160a01b038b169081179091558454908452601d90925282208190559190610f7a836142c3565b919050555050610faa565b601154600f54610f95919061428c565b8160010154610fa491906142ab565b60018201555b60019150505b92915050565b600080546001600160a01b0316336001600160a01b031614610fd757600080fd5b6003546040516370a0823160e01b815230600482015283916001600160a01b0316906370a0823190602401602060405180830381865afa15801561101f573d6000803e3d6000fd5b505050506040513d601f19601f8201168201806040525081019061104391906142de565b101561104e57600080fd5b60035460005460405163a9059cbb60e01b81526001600160a01b0391821660048201526024810185905291169063a9059cbb906044016020604051808303816000875af11580156110a3573d6000803e3d6000fd5b505050506040513d601f19601f820116820180604052508101906110c791906142f7565b5090919050565b60608060005b8381101561115b576110e582611163565b6001600160a01b038087166000908152601a60205260409020548251929450169083908390811061111857611118614314565b6001600160a01b039283166020918202929092018101919091529581166000908152601a9096526040909520549094169380611153816142c3565b9150506110d4565b509392505050565b606060008251600161117591906142ab565b6001600160401b0381111561118c5761118c613b9e565b6040519080825280602002602001820160405280156111b5578160200160208202803683370190505b50905060005b835181101561121a578381815181106111d6576111d6614314565b60200260200101518282815181106111f0576111f0614314565b6001600160a01b039092166020928302919091019091015280611212816142c3565b9150506111bb565b5092915050565b6000546060906001600160a01b0316336001600160a01b03161461124457600080fd5b816009848154811061125857611258614314565b906000526020600020018190555060098054806020026020016040519081016040528092919081815260200182805480156112b257602002820191906000526020600020905b81548152602001906001019080831161129e575b5050505050905092915050565b600d81815481106112cf57600080fd5b600091825260209091200154905081565b600080546001600160a01b0316336001600160a01b03161461130157600080fd5b50601181905590565b600981815481106112cf57600080fd5b602181815481106112cf57600080fd5b601e602052816000526040600020818154811061134657600080fd5b9060005260206000209060209182820401919006915091509054906101000a900460ff1681565b600080546001600160a01b0316336001600160a01b03161461138e57600080fd5b50600555600190565b601b60205281600052604060002081815481106113b357600080fd5b6000918252602090912001546001600160a01b03169150829050565b600e5460ff166113de57600080fd5b336000818152601960205260408120916113f9906000612232565b6003546040516370a0823160e01b815230600482015291925082916001600160a01b03909116906370a0823190602401602060405180830381865afa158015611446573d6000803e3d6000fd5b505050506040513d601f19601f8201168201806040525081019061146a91906142de565b101561147557600080fd5b60045481101561148457600080fd5b6003546001600160a01b031663a9059cbb336114b660646114b06013548761363e90919063ffffffff16565b90613677565b6040516001600160e01b031960e085901b1681526001600160a01b03909216600483015260248201526044016020604051808303816000875af1158015611501573d6000803e3d6000fd5b505050506040513d601f19601f8201168201806040525081019061152591906142f7565b508082600701600082825461153a91906142ab565b90915550504260058301556018805482919060009061155a9084906142ab565b90915550505050565b600080546001600160a01b0316336001600160a01b03161461158457600080fd5b835161159790600b906020870190613903565b5082516115ab90600c9060208601906139a3565b5081516115bf90600d9060208501906139a3565b50336000908152601e60205260409020600b80546115de9291906138a5565b506001949350505050565b600080546001600160a01b0316336001600160a01b03161461160a57600080fd5b50600481905590565b600061162c60115460105461363e90919063ffffffff16565b905090565b600080546001600160a01b0316336001600160a01b03161461165257600080fd5b50600380546001600160a01b0383166001600160a01b031991821681179092556006805490911690911790556001919050565b6000546060906001600160a01b0316336001600160a01b0316146116a857600080fd5b81600884815481106116bc576116bc614314565b906000526020600020018190555060088054806020026020016040519081016040528092919081815260200182805480156112b2576020028201919060005260206000209081548152602001906001019080831161129e575050505050905092915050565b6000546060906001600160a01b0316336001600160a01b03161461174457600080fd5b81600a848154811061175857611758614314565b9060005260206000200181905550600a8054806020026020016040519081016040528092919081815260200182805480156112b2576020028201919060005260206000209081548152602001906001019080831161129e575050505050905092915050565b602581815481106112cf57600080fd5b3360009081526001602052604081205460ff166117e957600080fd5b50601281905590565b3360009081526001602052604081205460ff1661180e57600080fd5b600083116118635760405162461bcd60e51b815260206004820152601e60248201527f63616e7469646164206d696e696d6120646520626c6f6b65732065732031000060448201526064015b60405180910390fd5b6001600160a01b0384166000908152601960205260409020805460ff1661188957600080fd5b600084600554611899919061428c565b905081600a0160405180608001604052804281526020016118ca60646114b06012548761363e90919063ffffffff16565b81526020016118e960646114b06012548761363e90919063ffffffff16565b81529515156020968701528154600180820184556000938452928790208251600490920201908155958101518683015560408101516002870155606001516003909501805460ff1916951515959095179094555091949350505050565b3360009081526019602090815260409091208251909161196d9160098401918501906139de565b505050565b3360009081526001602052604090205460ff1661198e57600080fd5b6001600160a01b0381166119a157600080fd5b6040516001600160a01b038216907f71614071b88dee5e0b2ae578a9dd7b2ebbe9ae832ba419dc0242cd065a290b6c90600090a26001600160a01b03166000908152600160208190526040909120805460ff19169091179055565b600e5460ff16611a0b57600080fd5b6000611a1633612695565b905060008111611a2557600080fd5b336000908152601960209081526040808320815161018081018352815460ff16151581526001820154938101939093526002810154918301919091526003810154606083015260048101546080830152600581015460a0830152600681015460c0830152600781015460e0830152600881015461010083015260098101805461012084019190611ab49061432a565b80601f0160208091040260200160405190810160405280929190818152602001828054611ae09061432a565b8015611b2d5780601f10611b0257610100808354040283529160200191611b2d565b820191906000526020600020905b815481529060010190602001808311611b1057829003601f168201915b50505050508152602001600a8201805480602002602001604051908101604052809291908181526020016000905b82821015611bb4576000848152602090819020604080516080810182526004860290920180548352600180820154848601526002820154928401929092526003015460ff16151560608301529083529092019101611b5b565b505050508152602001600b82015481525050905060005b600c5481101561196d57600d8181548110611be857611be8614314565b906000526020600020015482610160015110158015611c455750336000908152601e60205260409020805482908110611c2357611c23614314565b90600052602060002090602091828204019190069054906101000a900460ff16155b15611d3a576003546001600160a01b031663a9059cbb33600c8481548110611c6f57611c6f614314565b6000918252602090912001546040516001600160e01b031960e085901b1681526001600160a01b03909216600483015260248201526044016020604051808303816000875af1158015611cc6573d6000803e3d6000fd5b505050506040513d601f19601f82011682018060405250810190611cea91906142f7565b50336000908152601e6020526040902080546001919083908110611d1057611d10614314565b90600052602060002090602091828204019190066101000a81548160ff0219169083151502179055505b80611d44816142c3565b915050611bcb565b601960205260009081526040902080546001820154600283015460038401546004850154600586015460068701546007880154600889015460098a01805460ff909a169a9899979896979596949593949293919291611daa9061432a565b80601f0160208091040260200160405190810160405280929190818152602001828054611dd69061432a565b8015611e235780601f10611df857610100808354040283529160200191611e23565b820191906000526020600020905b815481529060010190602001808311611e0657829003601f168201915b50505050509080600b015490508b565b6000546001600160a01b0316336001600160a01b031614611e5357600080fd5b6001600160a01b038116611e6657600080fd5b6040516001600160a01b038216907fa3b62bc36326052d97ea62d63c3d60308ed4c3ea8ac079dd8499f1e9c4f80c0f90600090a26001600160a01b03166000908152600160205260409020805460ff19169055565b60208181548110611ecb57600080fd5b6000918252602090912001546001600160a01b0316905081565b600881815481106112cf57600080fd5b6060600082516001611f0791906142ab565b6001600160401b03811115611f1e57611f1e613b9e565b604051908082528060200260200182016040528015611f47578160200160208202803683370190505b50905060005b835181101561121a57838181518110611f6857611f68614314565b6020026020010151828281518110611f8257611f82614314565b602090810291909101015280611f97816142c3565b915050611f4d565b60606000805b83518110156120b45760196000858381518110611fc457611fc4614314565b60200260200101516001600160a01b03166001600160a01b0316815260200190815260200160002091506000805b85518110156120455785818151811061200d5761200d614314565b60200260200101516001600160a01b0316826001600160a01b0316141561203357600091505b8061203d816142c3565b915050611ff2565b506001600160a01b038116156120a15761205e85611163565b94508085600187516120709190614365565b8151811061208057612080614314565b60200260200101906001600160a01b031690816001600160a01b0316815250505b50806120ac816142c3565b915050611fa5565b509192915050565b60606000825160016120ce91906142ab565b6001600160401b038111156120e5576120e5613b9e565b60405190808252806020026020018201604052801561210e578160200160208202803683370190505b50905060005b835181101561121a5783818151811061212f5761212f614314565b602002602001015182828151811061214957612149614314565b9115156020928302919091019091015280612163816142c3565b915050612114565b600c81815481106112cf57600080fd5b60608060005b6001600160a01b0384166000908152601b602052604090205481101561121a576121aa82611163565b6001600160a01b0385166000908152601b60205260409020805491935090829081106121d8576121d8614314565b9060005260206000200160009054906101000a90046001600160a01b031682828151811061220857612208614314565b6001600160a01b03909216602092830291909101909101528061222a816142c3565b915050612181565b6000606080606060006122458787612910565b9a9950505050505050505050565b3360009081526019602052604090206001600160a01b0383166122c65760405162461bcd60e51b815260206004820152602560248201527f64656265732074656e657220726566657269646f207061726120726567697374604482015264726172746560d81b606482015260840161185a565b602254156123ef576022546003546001600160a01b031663dd62ed3e336040516001600160e01b031960e084901b1681526001600160a01b039091166004820152306024820152604401602060405180830381865afa15801561232d573d6000803e3d6000fd5b505050506040513d601f19601f8201168201806040525081019061235191906142de565b101561235c57600080fd5b6003546001600160a01b03166323b872dd336022546040516001600160e01b031960e085901b1681526001600160a01b03909216600483015230602483015260448201526064016020604051808303816000875af11580156123c2573d6000803e3d6000fd5b505050506040513d601f19601f820116820180604052508101906123e691906142f7565b6123ef57600080fd5b6002602354106125095760005b60205481101561250757600354602080546001600160a01b039092169163a9059cbb91908490811061243057612430614314565b9060005260206000200160009054906101000a90046001600160a01b031661248560646114b06021878154811061246957612469614314565b906000526020600020015460225461363e90919063ffffffff16565b6040516001600160e01b031960e085901b1681526001600160a01b03909216600483015260248201526044016020604051808303816000875af11580156124d0573d6000803e3d6000fd5b505050506040513d601f19601f820116820180604052508101906124f491906142f7565b50806124ff816142c3565b9150506123fc565b505b805460ff1661265557805460ff19166001178155601154600f5461252d919061428c565b61253790426142ab565b6001820155336000908152601a6020908152604080832080546001600160a01b0319166001600160a01b0388169081179091558352601990915281206008810180549192612584836142c3565b90915550506001600160a01b0384166000908152601b60209081526040822080546001810182559083529082200180546001600160a01b0319163317905560158054916125d0836142c3565b9190505550600b601e60006125e23390565b6001600160a01b031681526020810191909152604001600020815461260792906138a5565b50601f80546000908152601c6020908152604080832080546001600160a01b031916339081179091558454908452601d9092528220819055919061264a836142c3565b91905055505061267a565b601154600f54612665919061428c565b816001015461267491906142ab565b60018201555b815161268f90600983019060208501906139de565b50505050565b6001600160a01b0381166000908152601960209081526040808320815161018081018352815460ff16151581526001820154938101939093526002810154918301919091526003810154606083015260048101546080830152600581015460a0830152600681015460c0830152600781015460e08301526008810154610100830152600981018054849392916101208401916127309061432a565b80601f016020809104026020016040519081016040528092919081815260200182805461275c9061432a565b80156127a95780601f1061277e576101008083540402835291602001916127a9565b820191906000526020600020905b81548152906001019060200180831161278c57829003601f168201915b50505050508152602001600a8201805480602002602001604051908101604052809291908181526020016000905b82821015612830576000848152602090819020604080516080810182526004860290920180548352600180820154848601526002820154928401929092526003015460ff161515606083015290835290920191016127d7565b505050508152602001600b82015481525050905060005b600c548110156128f957600d818154811061286457612864614314565b9060005260206000200154826101600151101580156128c15750336000908152601e6020526040902080548290811061289f5761289f614314565b90600052602060002090602091828204019190069054906101000a900460ff16155b156128e757600c81815481106128d9576128d9614314565b906000526020600020015492505b806128f1816142c3565b915050612847565b5050919050565b60248181548110611ecb57600080fd5b6001600160a01b038216600090815260196020526040812060609182918291908183808083808080805b600a8a0154811015612b035789600a01818154811061295b5761295b614314565b6000918252602090912060036004909202019081015490995060ff1615158f15151415612af15761298b88611ef5565b975061299687611ef5565b96506129a1866120bc565b9550886000015487600189516129b79190614365565b815181106129c7576129c7614314565b6020026020010181815250506129db611613565b89546129e791906142ab565b93508342116129f657426129f8565b835b60038a015490925060ff1615612a2857885460068b015411612a1b578854612a21565b89600601545b9250612a44565b885460058b015411612a3b578854612a41565b89600501545b92505b8215801590612a5257508183105b15612ac057612a5f611613565b612a698484614365565b8a60020154612a78919061428c565b612a82919061437c565b612a8c90866142ab565b945060018660018851612a9f9190614365565b81518110612aaf57612aaf614314565b911515602092830291909101909101525b88600201548860018a51612ad49190614365565b81518110612ae457612ae4614314565b6020026020010181815250505b80612afb816142c3565b91505061293a565b50959e949d50929b5090995091975050505050505050565b600080546001600160a01b0316336001600160a01b031614612b3c57600080fd5b8251612b4f906024906020860190613a51565b508151612b639060259060208501906139a3565b5060019392505050565b600080546001600160a01b0316336001600160a01b031614612b8e57600080fd5b50602255600190565b3360009081526001602052604081205460ff16612bb357600080fd5b50600e805460ff191682151517905590565b600080546001600160a01b0316336001600160a01b031614612be657600080fd5b50601355600190565b600080546001600160a01b0316336001600160a01b031614612c1057600080fd5b50600781905590565b600e5460ff16612c2857600080fd5b6000601981336001600160a01b03908116825260208201929092526040908101600020600281015460035492516370a0823160e01b815230600482015291945092839216906370a0823190602401602060405180830381865afa158015612c93573d6000803e3d6000fd5b505050506040513d601f19601f82011682018060405250810190612cb791906142de565b1015612d1c5760405162461bcd60e51b815260206004820152602e60248201527f6e6f206861792073616c646f20656e20656c20636f6e747261746f207061726160448201526d20686163657220656c207061676f60901b606482015260840161185a565b600454811015612d2b57600080fd5b6003546001600160a01b031663a9059cbb33612d5760646114b06013548761363e90919063ffffffff16565b6040516001600160e01b031960e085901b1681526001600160a01b03909216600483015260248201526044016020604051808303816000875af1158015612da2573d6000803e3d6000fd5b505050506040513d601f19601f82011682018060405250810190612dc691906142f7565b50506000600290910155565b60008111612e225760405162461bcd60e51b815260206004820152601e60248201527f63616e7469646164206d696e696d6120646520626c6f6b657320657320310000604482015260640161185a565b336000908152601960205260409020805460ff16612e775760405162461bcd60e51b81526020600482015260126024820152716e6f2065737461207265676973747261646f60701b604482015260640161185a565b80600101544210612ec05760405162461bcd60e51b815260206004820152601360248201527206e6f207469656e65206d656d6265727368697606c1b604482015260640161185a565b600082600554612ed0919061428c565b60035490915081906001600160a01b031663dd62ed3e336040516001600160e01b031960e084901b1681526001600160a01b039091166004820152306024820152604401602060405180830381865afa158015612f31573d6000803e3d6000fd5b505050506040513d601f19601f82011682018060405250810190612f5591906142de565b1015612fa35760405162461bcd60e51b815260206004820152601b60248201527f73616c646f206170726f7661646f20696e737566696369656e74650000000000604482015260640161185a565b6003546001600160a01b03166323b872dd336040516001600160e01b031960e084901b1681526001600160a01b039091166004820152306024820152604481018490526064016020604051808303816000875af1158015613008573d6000803e3d6000fd5b505050506040513d601f19601f8201168201806040525081019061302c91906142f7565b61306f5760405162461bcd60e51b81526020600482015260146024820152737472616e666572656e6369612066616c6c69646160601b604482015260640161185a565b336000908152601a60205260409020546001600160a01b031615613129576130e8338260088054806020026020016040519081016040528092919081815260200182805480156130de57602002820191906000526020600020905b8154815260200190600101908083116130ca575b5050505050613699565b336000908152601a60209081526040808320546001600160a01b0316835260199091528120600b81018054919286926131229084906142ab565b9091555050505b81600a01604051806080016040528042815260200161315860646114b06012548761363e90919063ffffffff16565b815260200161317760646114b06012548761363e90919063ffffffff16565b815260006020918201819052835460018082018655948252828220845160049283029091019081559284015194830194909455604083015160028301556060909201516003909101805460ff191691151591909117905590830180548592906131e19084906142ab565b9250508190555080601660008282546131fa91906142ab565b90915550600090505b60245481101561268f57600354602480546001600160a01b039092169163a9059cbb91908490811061323757613237614314565b9060005260206000200160009054906101000a90046001600160a01b031661328a60646114b06025878154811061327057613270614314565b90600052602060002001548861363e90919063ffffffff16565b6040516001600160e01b031960e085901b1681526001600160a01b03909216600483015260248201526044016020604051808303816000875af11580156132d5573d6000803e3d6000fd5b505050506040513d601f19601f820116820180604052508101906132f991906142f7565b5080613304816142c3565b915050613203565b600b818154811061331c57600080fd5b9060005260206000209060209182820401919006915054906101000a900460ff1681565b600080546001600160a01b0316336001600160a01b03161461336157600080fd5b83516133739060209081870190613a51565b5082516133879060219060208601906139a3565b5050602355506001919050565b600e5460ff166133a357600080fd5b336000818152601960205260408120916133be906001612232565b6003546040516370a0823160e01b815230600482015291925082916001600160a01b03909116906370a0823190602401602060405180830381865afa15801561340b573d6000803e3d6000fd5b505050506040513d601f19601f8201168201806040525081019061342f91906142de565b101561343a57600080fd5b60045481101561344957600080fd5b6003546001600160a01b031663a9059cbb3361347560646114b06013548761363e90919063ffffffff16565b6040516001600160e01b031960e085901b1681526001600160a01b03909216600483015260248201526044016020604051808303816000875af11580156134c0573d6000803e3d6000fd5b505050506040513d601f19601f820116820180604052508101906134e491906142f7565b50808260070160008282546134f991906142ab565b90915550504260068301556018805482919060009061155a9084906142ab565b600a81815481106112cf57600080fd5b6000546001600160a01b0316336001600160a01b03161461354957600080fd5b6001600160a01b03811661355c57600080fd5b600080546040516001600160a01b03808516939216917f8be0079c531659141344cd1fd0a4f28419497f9722a3daafe3b4186f6b6457e091a3600080546001600160a01b0319166001600160a01b0392909216919091179055565b3360009081526001602052604081205460ff166135d357600080fd5b50601081905590565b600080546001600160a01b0316336001600160a01b0316146135fd57600080fd5b600080546040516001600160a01b03909116914780156108fc02929091818181858888f19350505050158015613637573d6000803e3d6000fd5b5047905090565b60008261364d57506000610fb0565b6000613659838561428c565b905082613666858361437c565b1461367057600080fd5b9392505050565b600080821161368557600080fd5b6000613691838561437c565b949350505050565b60606136a68483516110ce565b905060008080805b855181101561389b578581815181106136c9576136c9614314565b602002602001015160001461388457601960008683815181106136ee576136ee614314565b6020908102919091018101516001600160a01b03168252810191909152604001600020805490925060ff168015613729575042826001015410155b156138895760006001600160a01b031685828151811061374b5761374b614314565b60200260200101516001600160a01b031614613884576137936103e86114b088848151811061377c5761377c614314565b60200260200101518a61363e90919063ffffffff16565b93506137ca60646114b0600984815481106137b0576137b0614314565b90600052602060002001548a61363e90919063ffffffff16565b9250838260020160008282546137e091906142ab565b92505081905550838260030160008282546137fb91906142ab565b9091555050604080516080810182524281526020808201868152928201868152600160608401818152600a88018054808401825560009182529481209551600490950290950193845594519083015551600282015591516003909201805460ff191692151592909217909155601780548692906138799084906142ab565b909155506138899050565b61389b565b80613893816142c3565b9150506136ae565b5050505050505050565b82805482825590600052602060002090601f016020900481019282156138f357600052602060002091601f016020900482015b828111156138f35782548255916001019190600101906138d8565b506138ff929150613aa6565b5090565b82805482825590600052602060002090601f016020900481019282156138f35791602002820160005b8382111561396957835183826101000a81548160ff021916908315150217905550926020019260010160208160000104928301926001030261392c565b80156139965782816101000a81549060ff0219169055600101602081600001049283019260010302613969565b50506138ff929150613aa6565b8280548282559060005260206000209081019282156138f3579160200282015b828111156138f35782518255916020019190600101906139c3565b8280546139ea9061432a565b90600052602060002090601f016020900481019282613a0c57600085556138f3565b82601f10613a2557805160ff19168380011785556138f3565b828001600101855582156138f357918201828111156138f35782518255916020019190600101906139c3565b8280548282559060005260206000209081019282156138f3579160200282015b828111156138f357825182546001600160a01b0319166001600160a01b03909116178255602090920191600190910190613a71565b5b808211156138ff5760008155600101613aa7565b6001600160a01b0381168114613ad057600080fd5b50565b60008060408385031215613ae657600080fd5b8235613af181613abb565b91506020830135613b0181613abb565b809150509250929050565b600060208284031215613b1e57600080fd5b5035919050565b60008060408385031215613b3857600080fd5b8235613b4381613abb565b946020939093013593505050565b6020808252825182820181905260009190848201906040850190845b81811015613b925783516001600160a01b031683529284019291840191600101613b6d565b50909695505050505050565b634e487b7160e01b600052604160045260246000fd5b604051601f8201601f191681016001600160401b0381118282101715613bdc57613bdc613b9e565b604052919050565b60006001600160401b03821115613bfd57613bfd613b9e565b5060051b60200190565b600082601f830112613c1857600080fd5b81356020613c2d613c2883613be4565b613bb4565b82815260059290921b84018101918181019086841115613c4c57600080fd5b8286015b84811015613c70578035613c6381613abb565b8352918301918301613c50565b509695505050505050565b600060208284031215613c8d57600080fd5b81356001600160401b03811115613ca357600080fd5b61369184828501613c07565b60008060408385031215613cc257600080fd5b50508035926020909101359150565b600081518084526020808501945080840160005b83811015613d0157815187529582019590820190600101613ce5565b509495945050505050565b6020815260006136706020830184613cd1565b8015158114613ad057600080fd5b600082601f830112613d3e57600080fd5b81356020613d4e613c2883613be4565b82815260059290921b84018101918181019086841115613d6d57600080fd5b8286015b84811015613c70578035613d8481613d1f565b8352918301918301613d71565b600082601f830112613da257600080fd5b81356020613db2613c2883613be4565b82815260059290921b84018101918181019086841115613dd157600080fd5b8286015b84811015613c705780358352918301918301613dd5565b600080600060608486031215613e0157600080fd5b83356001600160401b0380821115613e1857600080fd5b613e2487838801613d2d565b94506020860135915080821115613e3a57600080fd5b613e4687838801613d91565b93506040860135915080821115613e5c57600080fd5b50613e6986828701613d91565b9150509250925092565b600060208284031215613e8557600080fd5b813561367081613abb565b600080600060608486031215613ea557600080fd5b8335613eb081613abb565b9250602084013591506040840135613ec781613d1f565b809150509250925092565b600082601f830112613ee357600080fd5b81356001600160401b03811115613efc57613efc613b9e565b613f0f601f8201601f1916602001613bb4565b818152846020838601011115613f2457600080fd5b816020850160208301376000918101602001919091529392505050565b600060208284031215613f5357600080fd5b81356001600160401b03811115613f6957600080fd5b61369184828501613ed2565b60006101608d1515835260208d818501528c60408501528b60608501528a60808501528960a08501528860c08501528760e0850152866101008501528161012085015285518083860152600092505b80831015613fe357868301820151858401610180015291810191613fc4565b80831115613ff657600061018082870101525b610140850195909552505050601f91909101601f191601610180019a9950505050505050505050565b60006020828403121561403157600080fd5b81356001600160401b0381111561404757600080fd5b61369184828501613d91565b60006020828403121561406557600080fd5b81356001600160401b0381111561407b57600080fd5b61369184828501613d2d565b600081518084526020808501945080840160005b83811015613d0157815115158752958201959082019060010161409b565b6020815260006136706020830184614087565b600080604083850312156140df57600080fd5b82356140ea81613abb565b91506020830135613b0181613d1f565b6000806040838503121561410d57600080fd5b823561411881613abb565b915060208301356001600160401b0381111561413357600080fd5b61413f85828601613ed2565b9150509250929050565b60808152600061415c6080830187613cd1565b828103602084015261416e8187613cd1565b905082810360408401526141828186614087565b91505082606083015295945050505050565b600080604083850312156141a757600080fd5b82356001600160401b03808211156141be57600080fd5b6141ca86838701613c07565b935060208501359150808211156141e057600080fd5b5061413f85828601613d91565b6000602082840312156141ff57600080fd5b813561367081613d1f565b60008060006060848603121561421f57600080fd5b83356001600160401b038082111561423657600080fd5b61424287838801613c07565b9450602086013591508082111561425857600080fd5b5061426586828701613d91565b925050604084013590509250925092565b634e487b7160e01b600052601160045260246000fd5b60008160001904831182151516156142a6576142a6614276565b500290565b600082198211156142be576142be614276565b500190565b60006000198214156142d7576142d7614276565b5060010190565b6000602082840312156142f057600080fd5b5051919050565b60006020828403121561430957600080fd5b815161367081613d1f565b634e487b7160e01b600052603260045260246000fd5b600181811c9082168061433e57607f821691505b6020821081141561435f57634e487b7160e01b600052602260045260246000fd5b50919050565b60008282101561437757614377614276565b500390565b60008261439957634e487b7160e01b600052601260045260246000fd5b50049056fea2646970667358221220ec9dc883deff61c7d89b2ff3e8395f1b2d5e19955478d71ee46526888cc4720c64736f6c634300080a0033",
    "sourcePath": "c:/Users/STC/Documents/GitHub/0-INFINITY-BLOCKS-TEST-UNILEVEL/contracts/UnilevelSystem.sol",
    "compiler": {
        "name": "solc",
        "version": "0.8.10+commit.fc410830"
    },
    "functionHashes": {
        "ChangeTokenPrincipal(address)": "50da983f",
        "MIN_RETIRO()": "6c529279",
        "PRECIO_BLOCK()": "24de19f2",
        "activerFee()": "bd9bee19",
        "actualizarArrayBool(bool[])": "7fcc1e36",
        "actualizarArrayUint256(uint256[])": "7367b080",
        "actualizarNetwork(address[])": "1ce7f99b",
        "addressToId(address)": "cb0e0d7d",
        "admin(address)": "63a846f8",
        "allnetwork(address[])": "7faee047",
        "asignarBloke(address,uint256,bool)": "67f74aab",
        "asignarMembership(address,address)": "1053abb1",
        "baserange(uint256)": "cfda9ee6",
        "baserangelength()": "f5c9dbef",
        "buyBlocks(uint256)": "c17dbdf9",
        "column(address,uint256)": "15e8392b",
        "columnHijos(address)": "815374ca",
        "controlWitdrawl(bool)": "b17b6e44",
        "depositos(address,bool)": "a365528b",
        "descuento()": "7b0412ed",
        "dias()": "ab6db199",
        "duracionMembership()": "c40d5dbc",
        "gananciasRango(uint256)": "81032892",
        "hijo(address,uint256)": "339640b5",
        "idToAddress(uint256)": "2a2d0c47",
        "infinity(uint256)": "edf5eb1d",
        "inversiones()": "a77d2119",
        "investors(address)": "6f7bc9be",
        "lastUserId()": "348d4487",
        "makeNewAdmin(address)": "69ed1e0a",
        "makeRemoveAdmin(address)": "70a0966b",
        "newRecompensa()": "69f4a84b",
        "onOffWitdrawl()": "e7348e8c",
        "owner()": "8da5cb5b",
        "padre(address)": "b35f0a8f",
        "personas()": "cc759ba2",
        "porcent()": "4728f718",
        "porcientos(uint256)": "28cca719",
        "precioRegistro()": "7db9e9c6",
        "primervez(uint256)": "725fc270",
        "puntosRango(uint256)": "21309f21",
        "rangoReclamado(address,uint256)": "2acc8210",
        "redimBNB()": "fd14d598",
        "redimTokenPrincipal02(uint256)": "1140e85b",
        "registro(address,string)": "8f9ef8c1",
        "setDescuento(uint256)": "b3d9fa09",
        "setInversiones(uint256)": "b85ea335",
        "setMIN_RETIRO(uint256)": "4de1be62",
        "setPorcientos(uint256,uint256)": "1e403c35",
        "setPorcientosSalida(uint256,uint256)": "5d216c60",
        "setPrecioRegistro(uint256)": "aaa749c5",
        "setPriceBlock(uint256)": "2e8a03cf",
        "setPrimeravezPorcientos(uint256,uint256)": "54822522",
        "setRangos(bool[],uint256[],uint256[])": "43bf0bd4",
        "setRetorno(uint256)": "6589fa8a",
        "setTiempo(uint256)": "f90b3f5a",
        "setTiempoUnidades(uint256)": "2748d29b",
        "setWalletFee(address[],uint256[],uint256)": "db3be1a2",
        "setWalletstransfers(address[],uint256[])": "a8beb717",
        "setstate()": "85338e20",
        "tiempo()": "50188c08",
        "tokenPricipal()": "b1390426",
        "totalInvested()": "5216aeec",
        "totalInvestors()": "29b8caff",
        "totalRefRewards()": "bfe0e020",
        "totalRefWitdrawl()": "9b8ff503",
        "transferOwnership(address)": "f2fde38b",
        "unidades()": "4b9b8203",
        "updateData(string)": "68446ead",
        "valor(uint256)": "62550916",
        "valorFee(uint256)": "29e1a243",
        "wallet(uint256)": "a2781335",
        "walletFee(uint256)": "7251b9ac",
        "withdraw()": "3ccfd60b",
        "withdraw2()": "ea98847b",
        "withdrawTeam()": "bb51f32d",
        "withdrawable(address,bool)": "89b2521c",
        "withdrawableRange(address)": "98c07d0a"
    },
    "gasEstimates": {
        "creation": {
            "codeDepositCost": "3472800",
            "executionCost": "infinite",
            "totalCost": "infinite"
        },
        "external": {
            "": "231",
            "ChangeTokenPrincipal(address)": "51150",
            "MIN_RETIRO()": "2451",
            "PRECIO_BLOCK()": "2408",
            "activerFee()": "2362",
            "actualizarArrayBool(bool[])": "infinite",
            "actualizarArrayUint256(uint256[])": "infinite",
            "actualizarNetwork(address[])": "infinite",
            "addressToId(address)": "2668",
            "admin(address)": "2648",
            "allnetwork(address[])": "infinite",
            "asignarBloke(address,uint256,bool)": "infinite",
            "asignarMembership(address,address)": "infinite",
            "baserange(uint256)": "6314",
            "baserangelength()": "2402",
            "buyBlocks(uint256)": "infinite",
            "column(address,uint256)": "infinite",
            "columnHijos(address)": "infinite",
            "controlWitdrawl(bool)": "26830",
            "depositos(address,bool)": "infinite",
            "descuento()": "2364",
            "dias()": "2428",
            "duracionMembership()": "2428",
            "gananciasRango(uint256)": "4643",
            "hijo(address,uint256)": "4846",
            "idToAddress(uint256)": "2590",
            "infinity(uint256)": "4641",
            "inversiones()": "2362",
            "investors(address)": "infinite",
            "lastUserId()": "2385",
            "makeNewAdmin(address)": "28121",
            "makeRemoveAdmin(address)": "28047",
            "newRecompensa()": "infinite",
            "onOffWitdrawl()": "2432",
            "owner()": "2493",
            "padre(address)": "2642",
            "personas()": "2362",
            "porcent()": "2451",
            "porcientos(uint256)": "4732",
            "precioRegistro()": "2386",
            "primervez(uint256)": "4708",
            "puntosRango(uint256)": "4666",
            "rangoReclamado(address,uint256)": "6527",
            "redimBNB()": "infinite",
            "redimTokenPrincipal02(uint256)": "infinite",
            "registro(address,string)": "infinite",
            "setDescuento(uint256)": "24657",
            "setInversiones(uint256)": "24687",
            "setMIN_RETIRO(uint256)": "24644",
            "setPorcientos(uint256,uint256)": "infinite",
            "setPorcientosSalida(uint256,uint256)": "infinite",
            "setPrecioRegistro(uint256)": "24656",
            "setPriceBlock(uint256)": "24702",
            "setPrimeravezPorcientos(uint256,uint256)": "infinite",
            "setRangos(bool[],uint256[],uint256[])": "infinite",
            "setRetorno(uint256)": "24739",
            "setTiempo(uint256)": "24715",
            "setTiempoUnidades(uint256)": "24688",
            "setWalletFee(address[],uint256[],uint256)": "infinite",
            "setWalletstransfers(address[],uint256[])": "infinite",
            "setstate()": "6640",
            "tiempo()": "infinite",
            "tokenPricipal()": "2492",
            "totalInvested()": "2452",
            "totalInvestors()": "2364",
            "totalRefRewards()": "2384",
            "totalRefWitdrawl()": "2407",
            "transferOwnership(address)": "30500",
            "unidades()": "2364",
            "updateData(string)": "infinite",
            "valor(uint256)": "4687",
            "valorFee(uint256)": "4666",
            "wallet(uint256)": "4748",
            "walletFee(uint256)": "4725",
            "withdraw()": "infinite",
            "withdraw2()": "infinite",
            "withdrawTeam()": "infinite",
            "withdrawable(address,bool)": "infinite",
            "withdrawableRange(address)": "infinite"
        },
        "internal": {
            "rewardReferers(address,uint256,uint256[] memory)": "infinite"
        }
    }
}